{
  "_format": "hh-sol-artifact-1",
  "contractName": "personalizedPayPage",
  "sourceName": "contracts/personalizedPage.sol",
  "abi": [
    {
      "inputs": [
        {
          "internalType": "address",
          "name": "_manageraddress",
          "type": "address"
        }
      ],
      "stateMutability": "nonpayable",
      "type": "constructor"
    },
    {
      "inputs": [
        {
          "internalType": "string",
          "name": "name",
          "type": "string"
        },
        {
          "internalType": "string",
          "name": "IpfsCID",
          "type": "string"
        }
      ],
      "name": "createPage",
      "outputs": [],
      "stateMutability": "nonpayable",
      "type": "function"
    },
    {
      "inputs": [
        {
          "internalType": "string",
          "name": "name",
          "type": "string"
        }
      ],
      "name": "getAddress",
      "outputs": [
        {
          "internalType": "address",
          "name": "",
          "type": "address"
        }
      ],
      "stateMutability": "view",
      "type": "function"
    },
    {
      "inputs": [
        {
          "internalType": "address",
          "name": "user",
          "type": "address"
        }
      ],
      "name": "getDetails",
      "outputs": [
        {
          "components": [
            {
              "internalType": "string",
              "name": "_name",
              "type": "string"
            },
            {
              "internalType": "string",
              "name": "_ipfsCID",
              "type": "string"
            },
            {
              "internalType": "address",
              "name": "wallet",
              "type": "address"
            }
          ],
          "internalType": "struct personalizedPayPage.pageDetails",
          "name": "",
          "type": "tuple"
        }
      ],
      "stateMutability": "view",
      "type": "function"
    },
    {
      "inputs": [
        {
          "internalType": "address",
          "name": "user",
          "type": "address"
        }
      ],
      "name": "getWallet",
      "outputs": [
        {
          "internalType": "address",
          "name": "_wallet",
          "type": "address"
        }
      ],
      "stateMutability": "view",
      "type": "function"
    },
    {
      "inputs": [
        {
          "internalType": "address",
          "name": "",
          "type": "address"
        }
      ],
      "name": "pages",
      "outputs": [
        {
          "internalType": "string",
          "name": "_name",
          "type": "string"
        },
        {
          "internalType": "string",
          "name": "_ipfsCID",
          "type": "string"
        },
        {
          "internalType": "address",
          "name": "wallet",
          "type": "address"
        }
      ],
      "stateMutability": "view",
      "type": "function"
    },
    {
      "inputs": [
        {
          "internalType": "string",
          "name": "newCID",
          "type": "string"
        }
      ],
      "name": "updateCID",
      "outputs": [],
      "stateMutability": "nonpayable",
      "type": "function"
    },
    {
      "inputs": [
        {
          "internalType": "string",
          "name": "newName",
          "type": "string"
        }
      ],
      "name": "updatePageName",
      "outputs": [],
      "stateMutability": "nonpayable",
      "type": "function"
    },
    {
      "inputs": [
        {
          "internalType": "string",
          "name": "",
          "type": "string"
        }
      ],
      "name": "users",
      "outputs": [
        {
          "internalType": "address",
          "name": "",
          "type": "address"
        }
      ],
      "stateMutability": "view",
      "type": "function"
    }
  ],
  "bytecode": "0x608060405234801561001057600080fd5b50604051610be2380380610be283398101604081905261002f916100ae565b6001600160a01b0381166100895760405162461bcd60e51b815260206004820152601360248201527f4e6f7420612056616c6964204164647265737300000000000000000000000000604482015260640160405180910390fd5b600080546001600160a01b0319166001600160a01b03929092169190911790556100de565b6000602082840312156100c057600080fd5b81516001600160a01b03811681146100d757600080fd5b9392505050565b610af5806100ed6000396000f3fe608060405234801561001057600080fd5b50600436106100885760003560e01c806330289c611161005b57806330289c61146101235780633a0f783714610143578063689e1c0314610156578063bf40fac11461018a57600080fd5b806304d0a6471461008d57806307cce946146100d95780630a6c1692146100ee5780631b4fd9d714610101575b600080fd5b6100bc61009b366004610752565b6001600160a01b039081166000908152600160205260409020600201541690565b6040516001600160a01b0390911681526020015b60405180910390f35b6100ec6100e7366004610819565b61019d565b005b6100ec6100fc366004610819565b6101c7565b61011461010f366004610752565b61027b565b6040516100d0939291906108b2565b610136610131366004610752565b6103b6565b6040516100d091906108f0565b6100ec61015136600461094b565b610533565b6100bc610164366004610819565b80516020818301810180516002825292820191909301209152546001600160a01b031681565b6100bc610198366004610819565b610670565b33600090815260016020818152604090922083516101c3939190920191908401906106a1565b5050565b3360009081526001602052604080822090519091906002906101ea9084906109ea565b908152604080516020928190038301902080546001600160a01b0319166001600160a01b03949094169390931790925533600090815260018252919091208351610236928501906106a1565b50336002836040516102489190610a86565b90815260405190819003602001902080546001600160a01b03929092166001600160a01b03199092169190911790555050565b600160205260009081526040902080548190610296906109af565b80601f01602080910402602001604051908101604052809291908181526020018280546102c2906109af565b801561030f5780601f106102e45761010080835404028352916020019161030f565b820191906000526020600020905b8154815290600101906020018083116102f257829003601f168201915b505050505090806001018054610324906109af565b80601f0160208091040260200160405190810160405280929190818152602001828054610350906109af565b801561039d5780601f106103725761010080835404028352916020019161039d565b820191906000526020600020905b81548152906001019060200180831161038057829003601f168201915b505050600290930154919250506001600160a01b031683565b604080516060808201835280825260208201526000918101919091526001600160a01b03821660009081526001602052604090819020815160608101909252805482908290610404906109af565b80601f0160208091040260200160405190810160405280929190818152602001828054610430906109af565b801561047d5780601f106104525761010080835404028352916020019161047d565b820191906000526020600020905b81548152906001019060200180831161046057829003601f168201915b50505050508152602001600182018054610496906109af565b80601f01602080910402602001604051908101604052809291908181526020018280546104c2906109af565b801561050f5780601f106104e45761010080835404028352916020019161050f565b820191906000526020600020905b8154815290600101906020018083116104f257829003601f168201915b5050509183525050600291909101546001600160a01b031660209091015292915050565b60008054604051630743144960e01b81523360048201526001600160a01b0390911690630743144990602401602060405180830381865afa15801561057c573d6000803e3d6000fd5b505050506040513d601f19601f820116820180604052508101906105a09190610aa2565b6040805160608101825285815260208082018690526001600160a01b03841682840152336000908152600182529290922081518051949550919390926105ea9284929101906106a1565b50602082810151805161060392600185019201906106a1565b50604091820151600291820180546001600160a01b0319166001600160a01b03909216919091179055905133919061063c908690610a86565b90815260405190819003602001902080546001600160a01b03929092166001600160a01b0319909216919091179055505050565b60006002826040516106829190610a86565b908152604051908190036020019020546001600160a01b031692915050565b8280546106ad906109af565b90600052602060002090601f0160209004810192826106cf5760008555610715565b82601f106106e857805160ff1916838001178555610715565b82800160010185558215610715579182015b828111156107155782518255916020019190600101906106fa565b50610721929150610725565b5090565b5b808211156107215760008155600101610726565b6001600160a01b038116811461074f57600080fd5b50565b60006020828403121561076457600080fd5b813561076f8161073a565b9392505050565b634e487b7160e01b600052604160045260246000fd5b600082601f83011261079d57600080fd5b813567ffffffffffffffff808211156107b8576107b8610776565b604051601f8301601f19908116603f011681019082821181831017156107e0576107e0610776565b816040528381528660208588010111156107f957600080fd5b836020870160208301376000602085830101528094505050505092915050565b60006020828403121561082b57600080fd5b813567ffffffffffffffff81111561084257600080fd5b61084e8482850161078c565b949350505050565b60005b83811015610871578181015183820152602001610859565b83811115610880576000848401525b50505050565b6000815180845261089e816020860160208601610856565b601f01601f19169290920160200192915050565b6060815260006108c56060830186610886565b82810360208401526108d78186610886565b91505060018060a01b0383166040830152949350505050565b60208152600082516060602084015261090c6080840182610886565b90506020840151601f198483030160408501526109298282610886565b604095909501516001600160a01b031660609490940193909352509192915050565b6000806040838503121561095e57600080fd5b823567ffffffffffffffff8082111561097657600080fd5b6109828683870161078c565b9350602085013591508082111561099857600080fd5b506109a58582860161078c565b9150509250929050565b600181811c908216806109c357607f821691505b602082108114156109e457634e487b7160e01b600052602260045260246000fd5b50919050565b600080835481600182811c915080831680610a0657607f831692505b6020808410821415610a2657634e487b7160e01b86526022600452602486fd5b818015610a3a5760018114610a4b57610a78565b60ff19861689528489019650610a78565b60008a81526020902060005b86811015610a705781548b820152908501908301610a57565b505084890196505b509498975050505050505050565b60008251610a98818460208701610856565b9190910192915050565b600060208284031215610ab457600080fd5b815161076f8161073a56fea2646970667358221220c4cd9f6d6f799a7d9aac8e546a272507495f4eeb53a1d772e21f40e77164dd4864736f6c634300080a0033",
  "linkReferences": {},
  "deployedLinkReferences": {}
}