{
  "_format": "hh-sol-artifact-1",
  "contractName": "payments",
  "sourceName": "contracts/payments.sol",
  "abi": [
    {
      "inputs": [
        {
          "internalType": "address",
          "name": "_managerAddress",
          "type": "address"
        },
        {
          "internalType": "address",
          "name": "_fundsAddress",
          "type": "address"
        },
        {
          "internalType": "address",
          "name": "_streamAddress",
          "type": "address"
        }
      ],
      "stateMutability": "nonpayable",
      "type": "constructor"
    },
    {
      "anonymous": false,
      "inputs": [
        {
          "indexed": true,
          "internalType": "address",
          "name": "previousOwner",
          "type": "address"
        },
        {
          "indexed": true,
          "internalType": "address",
          "name": "newOwner",
          "type": "address"
        }
      ],
      "name": "OwnershipTransferred",
      "type": "event"
    },
    {
      "anonymous": false,
      "inputs": [
        {
          "indexed": false,
          "internalType": "address",
          "name": "sender",
          "type": "address"
        },
        {
          "indexed": false,
          "internalType": "address",
          "name": "reciever",
          "type": "address"
        },
        {
          "indexed": false,
          "internalType": "uint256",
          "name": "amount",
          "type": "uint256"
        },
        {
          "indexed": false,
          "internalType": "uint256",
          "name": "timeperiod",
          "type": "uint256"
        }
      ],
      "name": "PaidLater",
      "type": "event"
    },
    {
      "anonymous": false,
      "inputs": [
        {
          "indexed": false,
          "internalType": "address",
          "name": "sender",
          "type": "address"
        },
        {
          "indexed": false,
          "internalType": "address",
          "name": "reciever",
          "type": "address"
        },
        {
          "indexed": false,
          "internalType": "uint256",
          "name": "amount",
          "type": "uint256"
        }
      ],
      "name": "PaidNow",
      "type": "event"
    },
    {
      "anonymous": false,
      "inputs": [
        {
          "indexed": false,
          "internalType": "address",
          "name": "sender",
          "type": "address"
        },
        {
          "indexed": false,
          "internalType": "address",
          "name": "reciever",
          "type": "address"
        },
        {
          "indexed": false,
          "internalType": "uint256",
          "name": "amount",
          "type": "uint256"
        },
        {
          "indexed": false,
          "internalType": "uint256",
          "name": "tenure",
          "type": "uint256"
        }
      ],
      "name": "PaidViaEMI",
      "type": "event"
    },
    {
      "anonymous": false,
      "inputs": [
        {
          "indexed": false,
          "internalType": "address",
          "name": "sender",
          "type": "address"
        },
        {
          "indexed": false,
          "internalType": "address",
          "name": "reciever",
          "type": "address"
        },
        {
          "indexed": false,
          "internalType": "uint256",
          "name": "amount",
          "type": "uint256"
        },
        {
          "indexed": false,
          "internalType": "uint256",
          "name": "timePeriod",
          "type": "uint256"
        }
      ],
      "name": "Streaming",
      "type": "event"
    },
    {
      "inputs": [
        {
          "internalType": "uint256",
          "name": "",
          "type": "uint256"
        }
      ],
      "name": "Streams",
      "outputs": [
        {
          "internalType": "contract ISuperfluidToken",
          "name": "token",
          "type": "address"
        },
        {
          "internalType": "address",
          "name": "sender",
          "type": "address"
        },
        {
          "internalType": "address",
          "name": "reciever",
          "type": "address"
        },
        {
          "internalType": "int96",
          "name": "flowRate",
          "type": "int96"
        },
        {
          "internalType": "uint256",
          "name": "StartTimeStamp",
          "type": "uint256"
        },
        {
          "internalType": "uint256",
          "name": "EndTimeStamp",
          "type": "uint256"
        },
        {
          "internalType": "uint256",
          "name": "amount",
          "type": "uint256"
        },
        {
          "internalType": "bool",
          "name": "streaming",
          "type": "bool"
        },
        {
          "internalType": "bool",
          "name": "paidFull",
          "type": "bool"
        }
      ],
      "stateMutability": "view",
      "type": "function"
    },
    {
      "inputs": [],
      "name": "TotalPlRequests",
      "outputs": [
        {
          "internalType": "uint256",
          "name": "",
          "type": "uint256"
        }
      ],
      "stateMutability": "view",
      "type": "function"
    },
    {
      "inputs": [
        {
          "internalType": "address",
          "name": "",
          "type": "address"
        }
      ],
      "name": "_approved",
      "outputs": [
        {
          "internalType": "bool",
          "name": "",
          "type": "bool"
        }
      ],
      "stateMutability": "view",
      "type": "function"
    },
    {
      "inputs": [
        {
          "internalType": "uint256",
          "name": "_plID",
          "type": "uint256"
        }
      ],
      "name": "calculatePaybackAmount",
      "outputs": [
        {
          "internalType": "uint256",
          "name": "",
          "type": "uint256"
        }
      ],
      "stateMutability": "view",
      "type": "function"
    },
    {
      "inputs": [
        {
          "internalType": "uint256",
          "name": "_EMIId",
          "type": "uint256"
        }
      ],
      "name": "checkEMIDefault",
      "outputs": [],
      "stateMutability": "nonpayable",
      "type": "function"
    },
    {
      "inputs": [
        {
          "internalType": "uint256",
          "name": "_plId",
          "type": "uint256"
        }
      ],
      "name": "checkPlRequest",
      "outputs": [
        {
          "internalType": "bool",
          "name": "",
          "type": "bool"
        }
      ],
      "stateMutability": "view",
      "type": "function"
    },
    {
      "inputs": [
        {
          "internalType": "uint256",
          "name": "_EMIId",
          "type": "uint256"
        }
      ],
      "name": "completeEMI",
      "outputs": [],
      "stateMutability": "nonpayable",
      "type": "function"
    },
    {
      "inputs": [
        {
          "internalType": "uint256",
          "name": "_streamID",
          "type": "uint256"
        }
      ],
      "name": "completePayStream",
      "outputs": [],
      "stateMutability": "nonpayable",
      "type": "function"
    },
    {
      "inputs": [
        {
          "internalType": "address",
          "name": "_sender",
          "type": "address"
        },
        {
          "internalType": "address",
          "name": "_reciever",
          "type": "address"
        },
        {
          "internalType": "uint256",
          "name": "_amount",
          "type": "uint256"
        },
        {
          "internalType": "uint256",
          "name": "tenure",
          "type": "uint256"
        }
      ],
      "name": "createEMI",
      "outputs": [
        {
          "internalType": "uint256",
          "name": "_id",
          "type": "uint256"
        }
      ],
      "stateMutability": "nonpayable",
      "type": "function"
    },
    {
      "inputs": [
        {
          "internalType": "address",
          "name": "_sender",
          "type": "address"
        },
        {
          "internalType": "address",
          "name": "_reciever",
          "type": "address"
        },
        {
          "internalType": "uint256",
          "name": "_amount",
          "type": "uint256"
        },
        {
          "internalType": "uint256",
          "name": "_timePeriod",
          "type": "uint256"
        }
      ],
      "name": "createPLRequest",
      "outputs": [
        {
          "internalType": "uint256",
          "name": "_plID",
          "type": "uint256"
        }
      ],
      "stateMutability": "nonpayable",
      "type": "function"
    },
    {
      "inputs": [
        {
          "internalType": "uint256",
          "name": "",
          "type": "uint256"
        }
      ],
      "name": "emis",
      "outputs": [
        {
          "internalType": "address",
          "name": "sender",
          "type": "address"
        },
        {
          "internalType": "address",
          "name": "reciever",
          "type": "address"
        },
        {
          "internalType": "uint256",
          "name": "totalAmount",
          "type": "uint256"
        },
        {
          "internalType": "uint256",
          "name": "tenure",
          "type": "uint256"
        },
        {
          "internalType": "uint256",
          "name": "totalWithInterest",
          "type": "uint256"
        },
        {
          "internalType": "uint256",
          "name": "perMonth",
          "type": "uint256"
        },
        {
          "internalType": "uint256",
          "name": "timePaid",
          "type": "uint256"
        },
        {
          "internalType": "uint256",
          "name": "defaults",
          "type": "uint256"
        },
        {
          "internalType": "bool",
          "name": "paid",
          "type": "bool"
        },
        {
          "internalType": "uint256",
          "name": "start",
          "type": "uint256"
        },
        {
          "internalType": "uint256",
          "name": "end",
          "type": "uint256"
        }
      ],
      "stateMutability": "view",
      "type": "function"
    },
    {
      "inputs": [],
      "name": "fundAddress",
      "outputs": [
        {
          "internalType": "address",
          "name": "",
          "type": "address"
        }
      ],
      "stateMutability": "view",
      "type": "function"
    },
    {
      "inputs": [
        {
          "internalType": "uint256",
          "name": "_plID",
          "type": "uint256"
        }
      ],
      "name": "getPlRequest",
      "outputs": [
        {
          "components": [
            {
              "internalType": "address",
              "name": "payer",
              "type": "address"
            },
            {
              "internalType": "address",
              "name": "payee",
              "type": "address"
            },
            {
              "internalType": "uint256",
              "name": "amount",
              "type": "uint256"
            },
            {
              "internalType": "uint256",
              "name": "startingTimestamp",
              "type": "uint256"
            },
            {
              "internalType": "uint256",
              "name": "endingTimestamp",
              "type": "uint256"
            },
            {
              "internalType": "bool",
              "name": "paidBack",
              "type": "bool"
            },
            {
              "internalType": "bool",
              "name": "active",
              "type": "bool"
            }
          ],
          "internalType": "struct payments.plRequest",
          "name": "",
          "type": "tuple"
        }
      ],
      "stateMutability": "view",
      "type": "function"
    },
    {
      "inputs": [
        {
          "internalType": "uint256",
          "name": "_streamId",
          "type": "uint256"
        }
      ],
      "name": "getStream",
      "outputs": [
        {
          "components": [
            {
              "internalType": "contract ISuperfluidToken",
              "name": "token",
              "type": "address"
            },
            {
              "internalType": "address",
              "name": "sender",
              "type": "address"
            },
            {
              "internalType": "address",
              "name": "reciever",
              "type": "address"
            },
            {
              "internalType": "int96",
              "name": "flowRate",
              "type": "int96"
            },
            {
              "internalType": "uint256",
              "name": "StartTimeStamp",
              "type": "uint256"
            },
            {
              "internalType": "uint256",
              "name": "EndTimeStamp",
              "type": "uint256"
            },
            {
              "internalType": "uint256",
              "name": "amount",
              "type": "uint256"
            },
            {
              "internalType": "bool",
              "name": "streaming",
              "type": "bool"
            },
            {
              "internalType": "bool",
              "name": "paidFull",
              "type": "bool"
            }
          ],
          "internalType": "struct payments.Stream",
          "name": "",
          "type": "tuple"
        }
      ],
      "stateMutability": "view",
      "type": "function"
    },
    {
      "inputs": [],
      "name": "interestPerMonthEMI",
      "outputs": [
        {
          "internalType": "uint256",
          "name": "",
          "type": "uint256"
        }
      ],
      "stateMutability": "view",
      "type": "function"
    },
    {
      "inputs": [],
      "name": "interestRateOnPL",
      "outputs": [
        {
          "internalType": "uint256",
          "name": "",
          "type": "uint256"
        }
      ],
      "stateMutability": "view",
      "type": "function"
    },
    {
      "inputs": [],
      "name": "managerAddress",
      "outputs": [
        {
          "internalType": "address",
          "name": "",
          "type": "address"
        }
      ],
      "stateMutability": "view",
      "type": "function"
    },
    {
      "inputs": [],
      "name": "owner",
      "outputs": [
        {
          "internalType": "address",
          "name": "",
          "type": "address"
        }
      ],
      "stateMutability": "view",
      "type": "function"
    },
    {
      "inputs": [
        {
          "internalType": "address",
          "name": "sender",
          "type": "address"
        },
        {
          "internalType": "address",
          "name": "reciever",
          "type": "address"
        },
        {
          "internalType": "uint256",
          "name": "_amount",
          "type": "uint256"
        }
      ],
      "name": "pay",
      "outputs": [],
      "stateMutability": "payable",
      "type": "function"
    },
    {
      "inputs": [
        {
          "internalType": "uint256",
          "name": "_EMIId",
          "type": "uint256"
        }
      ],
      "name": "payEMI",
      "outputs": [],
      "stateMutability": "payable",
      "type": "function"
    },
    {
      "inputs": [
        {
          "internalType": "uint256",
          "name": "_EMIId",
          "type": "uint256"
        }
      ],
      "name": "payEMIwithDefaults",
      "outputs": [],
      "stateMutability": "payable",
      "type": "function"
    },
    {
      "inputs": [],
      "name": "payManager",
      "outputs": [
        {
          "internalType": "address",
          "name": "",
          "type": "address"
        }
      ],
      "stateMutability": "view",
      "type": "function"
    },
    {
      "inputs": [
        {
          "internalType": "uint256",
          "name": "_plID",
          "type": "uint256"
        }
      ],
      "name": "payPlRequest",
      "outputs": [],
      "stateMutability": "payable",
      "type": "function"
    },
    {
      "inputs": [
        {
          "internalType": "uint256",
          "name": "_plID",
          "type": "uint256"
        }
      ],
      "name": "payPlRequestAfterTime",
      "outputs": [],
      "stateMutability": "payable",
      "type": "function"
    },
    {
      "inputs": [
        {
          "internalType": "address",
          "name": "sender",
          "type": "address"
        },
        {
          "internalType": "address",
          "name": "reciever",
          "type": "address"
        },
        {
          "internalType": "uint256",
          "name": "_amount",
          "type": "uint256"
        },
        {
          "internalType": "uint256",
          "name": "timePeriod",
          "type": "uint256"
        },
        {
          "internalType": "int96",
          "name": "flowRate",
          "type": "int96"
        },
        {
          "internalType": "contract ISuperfluidToken",
          "name": "_token",
          "type": "address"
        }
      ],
      "name": "payViaStream",
      "outputs": [
        {
          "internalType": "uint256",
          "name": "_streamId",
          "type": "uint256"
        }
      ],
      "stateMutability": "nonpayable",
      "type": "function"
    },
    {
      "inputs": [
        {
          "internalType": "address",
          "name": "sender",
          "type": "address"
        },
        {
          "internalType": "address",
          "name": "reciever",
          "type": "address"
        },
        {
          "internalType": "uint256",
          "name": "_amount",
          "type": "uint256"
        }
      ],
      "name": "payViaWallet",
      "outputs": [],
      "stateMutability": "nonpayable",
      "type": "function"
    },
    {
      "inputs": [
        {
          "internalType": "uint256",
          "name": "",
          "type": "uint256"
        }
      ],
      "name": "plRequests",
      "outputs": [
        {
          "internalType": "address",
          "name": "payer",
          "type": "address"
        },
        {
          "internalType": "address",
          "name": "payee",
          "type": "address"
        },
        {
          "internalType": "uint256",
          "name": "amount",
          "type": "uint256"
        },
        {
          "internalType": "uint256",
          "name": "startingTimestamp",
          "type": "uint256"
        },
        {
          "internalType": "uint256",
          "name": "endingTimestamp",
          "type": "uint256"
        },
        {
          "internalType": "bool",
          "name": "paidBack",
          "type": "bool"
        },
        {
          "internalType": "bool",
          "name": "active",
          "type": "bool"
        }
      ],
      "stateMutability": "view",
      "type": "function"
    },
    {
      "inputs": [],
      "name": "renounceOwnership",
      "outputs": [],
      "stateMutability": "nonpayable",
      "type": "function"
    },
    {
      "inputs": [
        {
          "internalType": "address",
          "name": "_fundsAddress",
          "type": "address"
        }
      ],
      "name": "setFunds",
      "outputs": [],
      "stateMutability": "nonpayable",
      "type": "function"
    },
    {
      "inputs": [
        {
          "internalType": "address",
          "name": "_managerAddress",
          "type": "address"
        }
      ],
      "name": "setManager",
      "outputs": [],
      "stateMutability": "nonpayable",
      "type": "function"
    },
    {
      "inputs": [
        {
          "internalType": "address",
          "name": "_streamAddress",
          "type": "address"
        }
      ],
      "name": "setStream",
      "outputs": [],
      "stateMutability": "nonpayable",
      "type": "function"
    },
    {
      "inputs": [],
      "name": "streamAddress",
      "outputs": [
        {
          "internalType": "address",
          "name": "",
          "type": "address"
        }
      ],
      "stateMutability": "view",
      "type": "function"
    },
    {
      "inputs": [],
      "name": "totalEMIs",
      "outputs": [
        {
          "internalType": "uint256",
          "name": "",
          "type": "uint256"
        }
      ],
      "stateMutability": "view",
      "type": "function"
    },
    {
      "inputs": [],
      "name": "totalStreams",
      "outputs": [
        {
          "internalType": "uint256",
          "name": "",
          "type": "uint256"
        }
      ],
      "stateMutability": "view",
      "type": "function"
    },
    {
      "inputs": [
        {
          "internalType": "address",
          "name": "newOwner",
          "type": "address"
        }
      ],
      "name": "transferOwnership",
      "outputs": [],
      "stateMutability": "nonpayable",
      "type": "function"
    }
  ],
  "bytecode": "0x6080604052600f6004819055600a600881905554600b80546001600160a01b03199081166001600160a01b0393841617909155600c54600d80548316918416919091179055600e54835490911691161790553480156200005e57600080fd5b5060405162002f9338038062002f93833981016040819052620000819162000240565b6200008c33620001d3565b6001600160a01b038316620000de5760405162461bcd60e51b81526020600482015260136024820152724e6f7420612076616c6964206164647265737360681b60448201526064015b60405180910390fd5b600a80546001600160a01b0319166001600160a01b03858116919091179091558216620001445760405162461bcd60e51b81526020600482015260136024820152724e6f7420612076616c6964206164647265737360681b6044820152606401620000d5565b600e80546001600160a01b0319166001600160a01b03848116919091179091558116620001aa5760405162461bcd60e51b81526020600482015260136024820152724e6f7420612076616c6964206164647265737360681b6044820152606401620000d5565b600c80546001600160a01b0319166001600160a01b0392909216919091179055506200028a9050565b600080546001600160a01b038381166001600160a01b0319831681178455604051919092169283917f8be0079c531659141344cd1fd0a4f28419497f9722a3daafe3b4186f6b6457e09190a35050565b80516001600160a01b03811681146200023b57600080fd5b919050565b6000806000606084860312156200025657600080fd5b620002618462000223565b9250620002716020850162000223565b9150620002816040850162000223565b90509250925092565b612cf9806200029a6000396000f3fe6080604052600436106102045760003560e01c80638da5cb5b11610118578063d7541cbb116100a0578063eed1e2cb1161006f578063eed1e2cb14610832578063f2fde38b14610845578063f67473b114610865578063fa72f5d714610878578063fc6ff96f1461089857600080fd5b8063d7541cbb146107c6578063e025494c146107dc578063e82bef29146107fc578063ea524ca11461081c57600080fd5b8063b3d76188116100e7578063b3d761881461073d578063b50cd50b14610750578063c49a6cf514610766578063cf73a1bc14610786578063d0ebdbe7146107a657600080fd5b80638da5cb5b146106bf5780639adfa2d9146106dd578063a67fbe2d146106fd578063a9205efe1461071d57600080fd5b80636d4f09be1161019b578063733706001161016a578063733706001461059c57806376544cac146105af578063785bc38b146105ef5780637c8d22d41461060f578063894e9a0d1461069257600080fd5b80636d4f09be146104615780636e5574bb146105475780636e688f1814610567578063715018a61461058757600080fd5b806330477d36116101d757806330477d361461033c57806353948e04146103745780635f11cac8146103945780636bda31451461044157600080fd5b80630fd24e0c14610209578063165f97a514610232578063196ab6b9146102545780631a004bb714610267575b600080fd5b34801561021557600080fd5b5061021f60075481565b6040519081526020015b60405180910390f35b34801561023e57600080fd5b5061025261024d366004612808565b6108ae565b005b610252610262366004612849565b610a17565b34801561027357600080fd5b506102e2610282366004612849565b600260208190526000918252604090912080546001820154928201546003830154600484015460058501546006909501546001600160a01b039485169685169594841694600160a01b909404600b0b939060ff8082169161010090041689565b604080516001600160a01b039a8b168152988a1660208a01529690981695870195909552600b9390930b6060860152608085019190915260a084015260c0830152151560e082015290151561010082015261012001610229565b34801561034857600080fd5b50600c5461035c906001600160a01b031681565b6040516001600160a01b039091168152602001610229565b34801561038057600080fd5b5061021f61038f366004612862565b610c27565b3480156103a057600080fd5b506103fd6103af366004612849565b6009602052600090815260409020805460018201546002830154600384015460048501546005909501546001600160a01b039485169593909416939192909160ff8082169161010090041687565b604080516001600160a01b0398891681529790961660208801529486019390935260608501919091526080840152151560a0830152151560c082015260e001610229565b34801561044d57600080fd5b5061021f61045c3660046128a8565b610f98565b34801561046d57600080fd5b506104e761047c366004612849565b600560208190526000918252604090912080546001820154600283015460038401546004850154958501546006860154600787015460088801546009890154600a909901546001600160a01b039889169a9790981698959794969593949293919260ff90911691908b565b604080516001600160a01b039c8d1681529b909a1660208c0152988a01979097526060890195909552608088019390935260a087019190915260c086015260e0850152151561010084015261012083015261014082015261016001610229565b34801561055357600080fd5b50610252610562366004612849565b6111be565b34801561057357600080fd5b5061021f610582366004612849565b61135f565b34801561059357600080fd5b5061025261141a565b6102526105aa366004612849565b61142e565b3480156105bb57600080fd5b506105df6105ca36600461291f565b60106020526000908152604090205460ff1681565b6040519015158152602001610229565b3480156105fb57600080fd5b5061025261060a36600461291f565b6116db565b34801561061b57600080fd5b5061062f61062a366004612849565b61172b565b604051610229919081516001600160a01b0390811682526020808401519091169082015260408083015190820152606080830151908201526080808301519082015260a08281015115159082015260c09182015115159181019190915260e00190565b34801561069e57600080fd5b506106b26106ad366004612849565b611829565b6040516102299190612943565b3480156106cb57600080fd5b506000546001600160a01b031661035c565b3480156106e957600080fd5b5061021f6106f8366004612862565b61194d565b34801561070957600080fd5b50610252610718366004612849565b611d98565b34801561072957600080fd5b5060065461035c906001600160a01b031681565b61025261074b366004612808565b611e38565b34801561075c57600080fd5b5061021f60085481565b34801561077257600080fd5b50610252610781366004612849565b611f55565b34801561079257600080fd5b50600a5461035c906001600160a01b031681565b3480156107b257600080fd5b506102526107c136600461291f565b612080565b3480156107d257600080fd5b5061021f60035481565b3480156107e857600080fd5b506102526107f736600461291f565b6120d0565b34801561080857600080fd5b50600e5461035c906001600160a01b031681565b34801561082857600080fd5b5061021f60045481565b610252610840366004612849565b612120565b34801561085157600080fd5b5061025261086036600461291f565b612366565b610252610873366004612849565b6123df565b34801561088457600080fd5b506105df610893366004612849565b61271d565b3480156108a457600080fd5b5061021f60015481565b600b54604051630743144960e01b81526001600160a01b0385811660048301526000921690630743144990602401602060405180830381865afa1580156108f9573d6000803e3d6000fd5b505050506040513d601f19601f8201168201806040525081019061091d91906129e4565b9050600082116109745760405162461bcd60e51b815260206004820152601960248201527f54686520616d6f756e74206973206e6f7420636f72726563740000000000000060448201526064015b60405180910390fd5b604051636203b43b60e11b81526001600160a01b0384811660048301526024820184905282169063c407687690604401600060405180830381600087803b1580156109be57600080fd5b505af11580156109d2573d6000803e3d6000fd5b505050507fbc69718c7151a503a01ed181d728f623e76bab894d47ad793d9df2ea13081301848484604051610a0993929190612a01565b60405180910390a150505050565b600081815260096020526040902080546001600160a01b03163314610a4e5760405162461bcd60e51b815260040161096b90612a25565b6005810154610100900460ff16610a775760405162461bcd60e51b815260040161096b90612a5c565b8060020154341015610a9b5760405162461bcd60e51b815260040161096b90612a89565b42816004015411610abe5760405162461bcd60e51b815260040161096b90612aca565b600e5460028201546040516000926001600160a01b031691908381818185875af1925050503d8060008114610b0f576040519150601f19603f3d011682016040523d82523d6000602084013e610b14565b606091505b5050905080610b355760405162461bcd60e51b815260040161096b90612b0e565b600b548254604051630743144960e01b81526001600160a01b0391821660048201526000929190911690630743144990602401602060405180830381865afa158015610b85573d6000803e3d6000fd5b505050506040513d601f19601f82011682018060405250810190610ba991906129e4565b600284015460405163f430bbff60e01b81529192506001600160a01b0383169163f430bbff91610bdf9160040190815260200190565b600060405180830381600087803b158015610bf957600080fd5b505af1158015610c0d573d6000803e3d6000fd5b5050506005909301805461ffff1916600117905550505050565b6000808311610c6f5760405162461bcd60e51b8152602060048201526014602482015273030b6b7bab73a1034b9903737ba103934b3b43a160651b604482015260640161096b565b600b54604051630743144960e01b81526001600160a01b0387811660048301526000921690630743144990602401602060405180830381865afa158015610cba573d6000803e3d6000fd5b505050506040513d601f19601f82011682018060405250810190610cde91906129e4565b905083816001600160a01b03166312065fe06040518163ffffffff1660e01b8152600401602060405180830381865afa158015610d1f573d6000803e3d6000fd5b505050506040513d601f19601f82011682018060405250810190610d439190612b3d565b1015610d615760405162461bcd60e51b815260040161096b90612b56565b60405163141e1a1b60e01b8152600481018590526001600160a01b0382169063141e1a1b90602401600060405180830381600087803b158015610da357600080fd5b505af1158015610db7573d6000803e3d6000fd5b505050506040518060e00160405280876001600160a01b03168152602001866001600160a01b031681526020018581526020014281526020018442610dfc9190612bbb565b8152600060208083018290526001604093840181905260075483526009825291839020845181546001600160a01b03199081166001600160a01b039283161783559286015193820180549093169381169390931790915583830151600282015560608401516003820155608084015160048083019190915560a08501516005909201805460c09096015161ffff1990961692151561ff0019169290921761010095151595909502949094179055600f54915163d2262d7760e01b815291169163d2262d7791610ed1918a918a918a9101612a01565b6020604051808303816000875af1158015610ef0573d6000803e3d6000fd5b505050506040513d601f19601f82011682018060405250810190610f149190612bd3565b50604080516001600160a01b03808916825287166020820152908101859052606081018490527ffbf124694620515a17a2bf1deec221bfee5928c3001739dded182f07bd5137bc9060800160405180910390a1600160076000828254610f7a9190612bbb565b9091555050600754610f8e90600190612bf5565b9695505050505050565b60006001600160a01b038616610fe95760405162461bcd60e51b81526020600482015260166024820152751059191c995cdcc81a5cc81b9bdd0818dbdc9c9958dd60521b604482015260640161096b565b600d5460405163235ff66960e21b81526001600160a01b03848116600483015289811660248301528881166044830152600b86900b606483015290911690638d7fd9a490608401600060405180830381600087803b15801561104a57600080fd5b505af115801561105e573d6000803e3d6000fd5b50505050604051806101200160405280836001600160a01b03168152602001886001600160a01b03168152602001876001600160a01b0316815260200184600b0b815260200142815260200185426110b69190612bbb565b815260208082018890526001604080840182905260006060948501819052825481526002808552828220875181546001600160a01b039182166001600160a01b0319918216178355968901518287018054918316919098161790965592870151958701516bffffffffffffffffffffffff16600160a01b029590941694909417928101929092556080840151600383015560a0840151600483015560c0840151600583015560e08401516006909201805461010095860151151590950261ff00199315159390931661ffff19909516949094179190911790925581548291906111a0908390612bbb565b9091555050600180546111b39190612bf5565b979650505050505050565b3360009081526010602052604090205460ff1661120e5760405162461bcd60e51b815260206004820152600e60248201526d139bdd08105d5d1a1bdc9a5e995960921b604482015260640161096b565b600081815260026020526040902060048101544211156112675760405162461bcd60e51b815260206004820152601460248201527314dd1c99585b481b9bdd081e595d08195b99195960621b604482015260640161096b565b600681015460ff16801561128557506006810154610100900460ff16155b6112d15760405162461bcd60e51b815260206004820152601860248201527f53747265616d20697320616c726561647920636c6f7365640000000000000000604482015260640161096b565b600d54815460018301546002840154604051632991319f60e21b81526001600160a01b03938416600482015291831660248301528216604482015291169063a644c67c90606401600060405180830381600087803b15801561133257600080fd5b505af1158015611346573d6000803e3d6000fd5b5050506006909101805461ffff19166101001790555050565b60008181526009602052604081206005810154610100900460ff166113965760405162461bcd60e51b815260040161096b90612a5c565b428160040154106113b95760405162461bcd60e51b815260040161096b90612aca565b60008160040154426113cb9190612bf5565b905060006064622819a06008546113e29190612c22565b8385600201546113f29190612c36565b6113fc9190612c36565b6114069190612c22565b90506000818460020154610f8e9190612bbb565b611422612749565b61142c60006127a3565b565b6003548111156114505760405162461bcd60e51b815260040161096b90612c55565b600081815260056020526040902080546001600160a01b031633146114875760405162461bcd60e51b815260040161096b90612a25565b600881015460ff16156114cb5760405162461bcd60e51b815260206004820152600c60248201526b105b1c9958591e4814185a5960a21b604482015260640161096b565b80600301548160060154141561151a5760405162461bcd60e51b8152602060048201526014602482015273454d4920436f6d706c65746520416c726561647960601b604482015260640161096b565b80600501543410156115685760405162461bcd60e51b8152602060048201526017602482015276105b5bdd5b9d081a5cc81d1a19481a5b98dbdc9c9958dd604a1b604482015260640161096b565b600e5460058201546040516000926001600160a01b031691908381818185875af1925050503d80600081146115b9576040519150601f19603f3d011682016040523d82523d6000602084013e6115be565b606091505b50509050806115df5760405162461bcd60e51b815260040161096b90612b0e565b600b548254604051630743144960e01b81526001600160a01b0391821660048201526000929190911690630743144990602401602060405180830381865afa15801561162f573d6000803e3d6000fd5b505050506040513d601f19601f8201168201806040525081019061165391906129e4565b600584015460405163f430bbff60e01b81529192506001600160a01b0383169163f430bbff916116899160040190815260200190565b600060405180830381600087803b1580156116a357600080fd5b505af11580156116b7573d6000803e3d6000fd5b5050505060018360060160008282546116d09190612bbb565b909155505050505050565b6116e3612749565b6001600160a01b0381166117095760405162461bcd60e51b815260040161096b90612c82565b600e80546001600160a01b0319166001600160a01b0392909216919091179055565b6040805160e081018252600080825260208201819052918101829052606081018290526080810182905260a0810182905260c08101919091526007548211156117af5760405162461bcd60e51b8152602060048201526016602482015275139bdd0818481d985b1a59081c995c5d595cdd08125160521b604482015260640161096b565b50600090815260096020908152604091829020825160e08101845281546001600160a01b03908116825260018301541692810192909252600281015492820192909252600382015460608201526004820154608082015260059091015460ff808216151560a084015261010090910416151560c082015290565b6040805161012081018252600080825260208201819052918101829052606081018290526080810182905260a0810182905260c0810182905260e081018290526101008101919091526001548211156118b65760405162461bcd60e51b815260206004820152600f60248201526e02737ba1030903b30b634b21024a21608d1b604482015260640161096b565b5060009081526002602081815260409283902083516101208101855281546001600160a01b03908116825260018301548116938201939093529281015491821693830193909352600160a01b9004600b0b606082015260038201546080820152600482015460a0820152600582015460c082015260069091015460ff808216151560e0840152610100918290041615159082015290565b60008083116119945760405162461bcd60e51b8152602060048201526013602482015272105b5bdd5b9d081a5cc8125b98dbdc9c9958dd606a1b604482015260640161096b565b81600314806119a35750816006145b806119ae5750816009145b806119b9575081600c145b6119f85760405162461bcd60e51b815260206004820152601060248201526f15195b9d5c9948139bdd081c9a59da1d60821b604482015260640161096b565b600b54604051630743144960e01b81526001600160a01b0387811660048301526000921690630743144990602401602060405180830381865afa158015611a43573d6000803e3d6000fd5b505050506040513d601f19601f82011682018060405250810190611a6791906129e4565b905083816001600160a01b03166312065fe06040518163ffffffff1660e01b8152600401602060405180830381865afa158015611aa8573d6000803e3d6000fd5b505050506040513d601f19601f82011682018060405250810190611acc9190612b3d565b1015611aea5760405162461bcd60e51b815260040161096b90612b56565b60405163141e1a1b60e01b8152600481018590526001600160a01b0382169063141e1a1b90602401600060405180830381600087803b158015611b2c57600080fd5b505af1158015611b40573d6000803e3d6000fd5b50505050600060648460045487611b579190612c36565b611b619190612c36565b611b6b9190612c22565b90506000611b798287612bbb565b90506000611b878683612c22565b90506000611b9887622819a0612c36565b90506000611ba68242612bbb565b60408051610160810182526001600160a01b038e811682528d811660208084019182528385018f8152606085018f8152608086018c815260a087018c8152600060c0890181815260e08a018281526101008b01838152426101208d019081526101408d018f815260038054875260059b8c9052958f90209d518e546001600160a01b0319908116918f16919091178f559b5160018f018054909d16908e1617909b55975160028d01559551928b019290925592516004808b019190915591519589019590955590516006880155925160078701555160088601805460ff19169115159190911790555160098501559051600a90930192909255600f54925163d2262d7760e01b8152939450919091169163d2262d7791611ccc918f918f918f9101612a01565b6020604051808303816000875af1158015611ceb573d6000803e3d6000fd5b505050506040513d601f19601f82011682018060405250810190611d0f9190612bd3565b50604080516001600160a01b03808e1682528c1660208201529081018a9052606081018990527f38a55fff930109dc4405ab090e6d55a3553a6bd9c061f231eb6c715d084159ad9060800160405180910390a1600160036000828254611d759190612bbb565b9091555050600354611d8990600190612bf5565b9b9a5050505050505050505050565b600354811115611dba5760405162461bcd60e51b815260040161096b90612c55565b60008181526005602052604081206009810154909190611dda9042612bf5565b90506000611deb622819a083612caf565b90508083600601541415611e055760006007840155611e32565b8083600601541015611e2a576006830154611e209082612bf5565b6007840155611e32565b600060078401555b50505050565b803414611e875760405162461bcd60e51b815260206004820152601e60248201527f54686520616d6f756e742073656e74206973206e6f7420636f72726563740000604482015260640161096b565b6000826001600160a01b03168260405160006040518083038185875af1925050503d8060008114611ed4576040519150601f19603f3d011682016040523d82523d6000602084013e611ed9565b606091505b5050905080611f225760405162461bcd60e51b81526020600482015260156024820152741c995c5d595cdd081b9bdd0818dbdb5c1b195d1959605a1b604482015260640161096b565b7fbc69718c7151a503a01ed181d728f623e76bab894d47ad793d9df2ea13081301848484604051610a0993929190612a01565b600354811115611f775760405162461bcd60e51b815260040161096b90612c55565b6000818152600560205260409020600881015460ff1615611fda5760405162461bcd60e51b815260206004820152601e60248201527f416c726561647920436f6d706c657465206f72206e6f74204163746976650000604482015260640161096b565b80600301548160060154146120235760405162461bcd60e51b815260206004820152600f60248201526e454d49204e6f7420416c726561647960881b604482015260640161096b565b4281600a01541061206f5760405162461bcd60e51b815260206004820152601660248201527502a34b6b2903832b934b7b2103737ba1032b73232b2160551b604482015260640161096b565b600801805460ff1916600117905550565b612088612749565b6001600160a01b0381166120ae5760405162461bcd60e51b815260040161096b90612c82565b600a80546001600160a01b0319166001600160a01b0392909216919091179055565b6120d8612749565b6001600160a01b0381166120fe5760405162461bcd60e51b815260040161096b90612c82565b600c80546001600160a01b0319166001600160a01b0392909216919091179055565b600081815260096020526040902080546001600160a01b031633146121575760405162461bcd60e51b815260040161096b90612a25565b6005810154610100900460ff166121805760405162461bcd60e51b815260040161096b90612a5c565b600061218b8361135f565b9050803410156121ad5760405162461bcd60e51b815260040161096b90612a89565b428260040154106122005760405162461bcd60e51b815260206004820152601860248201527f54696d65506572696f64206973206e6f74207061737365640000000000000000604482015260640161096b565b600e546040516000916001600160a01b03169083908381818185875af1925050503d806000811461224d576040519150601f19603f3d011682016040523d82523d6000602084013e612252565b606091505b50509050806122735760405162461bcd60e51b815260040161096b90612b0e565b600b548354604051630743144960e01b81526001600160a01b0391821660048201526000929190911690630743144990602401602060405180830381865afa1580156122c3573d6000803e3d6000fd5b505050506040513d601f19601f820116820180604052508101906122e791906129e4565b600285015460405163f430bbff60e01b81529192506001600160a01b0383169163f430bbff9161231d9160040190815260200190565b600060405180830381600087803b15801561233757600080fd5b505af115801561234b573d6000803e3d6000fd5b5050506005909401805461ffff191660011790555050505050565b61236e612749565b6001600160a01b0381166123d35760405162461bcd60e51b815260206004820152602660248201527f4f776e61626c653a206e6577206f776e657220697320746865207a65726f206160448201526564647265737360d01b606482015260840161096b565b6123dc816127a3565b50565b6003548111156124015760405162461bcd60e51b815260040161096b90612c55565b600081815260056020526040902080546001600160a01b031633146124385760405162461bcd60e51b815260040161096b90612a25565b600881015460ff161561247c5760405162461bcd60e51b815260206004820152600c60248201526b105b1c9958591e4814185a5960a21b604482015260640161096b565b8060030154816006015414156124cb5760405162461bcd60e51b8152602060048201526014602482015273454d4920436f6d706c65746520416c726561647960601b604482015260640161096b565b600281600701541161251f5760405162461bcd60e51b815260206004820152601960248201527f44656661756c74206c696d6974206e6f742063726f7373656400000000000000604482015260640161096b565b60006064600c6004546125329190612c22565b83600501546125419190612c36565b61254b9190612c22565b826005015461255a9190612bbb565b9050803410156125a65760405162461bcd60e51b8152602060048201526017602482015276105b5bdd5b9d081a5cc81d1a19481a5b98dbdc9c9958dd604a1b604482015260640161096b565b60058201819055600e546040516000916001600160a01b03169083908381818185875af1925050503d80600081146125fa576040519150601f19603f3d011682016040523d82523d6000602084013e6125ff565b606091505b50509050806126205760405162461bcd60e51b815260040161096b90612b0e565b600b548354604051630743144960e01b81526001600160a01b0391821660048201526000929190911690630743144990602401602060405180830381865afa158015612670573d6000803e3d6000fd5b505050506040513d601f19601f8201168201806040525081019061269491906129e4565b600585015460405163f430bbff60e01b81529192506001600160a01b0383169163f430bbff916126ca9160040190815260200190565b600060405180830381600087803b1580156126e457600080fd5b505af11580156126f8573d6000803e3d6000fd5b5050505060018460060160008282546127119190612bbb565b90915550505050505050565b600081815260096020526040812060048101544211156127405750600192915050565b50600092915050565b6000546001600160a01b0316331461142c5760405162461bcd60e51b815260206004820181905260248201527f4f776e61626c653a2063616c6c6572206973206e6f7420746865206f776e6572604482015260640161096b565b600080546001600160a01b038381166001600160a01b0319831681178455604051919092169283917f8be0079c531659141344cd1fd0a4f28419497f9722a3daafe3b4186f6b6457e09190a35050565b6001600160a01b03811681146123dc57600080fd5b60008060006060848603121561281d57600080fd5b8335612828816127f3565b92506020840135612838816127f3565b929592945050506040919091013590565b60006020828403121561285b57600080fd5b5035919050565b6000806000806080858703121561287857600080fd5b8435612883816127f3565b93506020850135612893816127f3565b93969395505050506040820135916060013590565b60008060008060008060c087890312156128c157600080fd5b86356128cc816127f3565b955060208701356128dc816127f3565b945060408701359350606087013592506080870135600b81900b811461290157600080fd5b915060a0870135612911816127f3565b809150509295509295509295565b60006020828403121561293157600080fd5b813561293c816127f3565b9392505050565b81516001600160a01b03168152602080830151610120830191612970908401826001600160a01b03169052565b50604083015161298b60408401826001600160a01b03169052565b5060608301516129a06060840182600b0b9052565b506080830151608083015260a083015160a083015260c083015160c083015260e08301516129d260e084018215159052565b50610100928301511515919092015290565b6000602082840312156129f657600080fd5b815161293c816127f3565b6001600160a01b039384168152919092166020820152604081019190915260600190565b6020808252601f908201527f596f7520617265206e6f742074686520726571756573742063726561746f7200604082015260600190565b60208082526013908201527202932b8bab2b9ba103737ba1030b1ba34bb329606d1b604082015260600190565b60208082526021908201527f416d6f756e742073656e74206973206c657373207468616e20657870656374656040820152601960fa1b606082015260800190565b60208082526024908201527f54696d65506572696f6420506173736564202c207061795769746820496e74656040820152631c995cdd60e21b606082015260800190565b60208082526015908201527414185e5b595b9d081b9bdd0818dbdb5c1b195d1959605a1b604082015260600190565b600060208284031215612b4f57600080fd5b5051919050565b6020808252602f908201527f57616c6c657420686173206c6573732062616c616e6365207468616e20616d6f60408201526e1d5b9d081d1bc81899481cdc195b9d608a1b606082015260800190565b634e487b7160e01b600052601160045260246000fd5b60008219821115612bce57612bce612ba5565b500190565b600060208284031215612be557600080fd5b8151801515811461293c57600080fd5b600082821015612c0757612c07612ba5565b500390565b634e487b7160e01b600052601260045260246000fd5b600082612c3157612c31612c0c565b500490565b6000816000190483118215151615612c5057612c50612ba5565b500290565b60208082526013908201527202737ba1030903b30b634b21022a6a49024a21606d1b604082015260600190565b6020808252601390820152724e6f7420612076616c6964204164647265737360681b604082015260600190565b600082612cbe57612cbe612c0c565b50069056fea264697066735822122075220ce44398a0fd50f4995de58149ba6109e442b8638fe44e36cac14c411f0d64736f6c634300080a0033",
  "linkReferences": {},
  "deployedLinkReferences": {}
}