{
  "_format": "hh-sol-artifact-1",
  "contractName": "payoutManager",
  "sourceName": "contracts/payoutManager.sol",
  "abi": [
    {
      "inputs": [],
      "stateMutability": "nonpayable",
      "type": "constructor"
    },
    {
      "anonymous": false,
      "inputs": [
        {
          "indexed": true,
          "internalType": "address",
          "name": "previousOwner",
          "type": "address"
        },
        {
          "indexed": true,
          "internalType": "address",
          "name": "newOwner",
          "type": "address"
        }
      ],
      "name": "OwnershipTransferred",
      "type": "event"
    },
    {
      "inputs": [
        {
          "internalType": "uint256",
          "name": "_id",
          "type": "uint256"
        }
      ],
      "name": "completePayout",
      "outputs": [],
      "stateMutability": "nonpayable",
      "type": "function"
    },
    {
      "inputs": [
        {
          "internalType": "address",
          "name": "_receiver",
          "type": "address"
        },
        {
          "internalType": "uint256",
          "name": "amount",
          "type": "uint256"
        }
      ],
      "name": "createPayout",
      "outputs": [],
      "stateMutability": "nonpayable",
      "type": "function"
    },
    {
      "inputs": [
        {
          "internalType": "uint256",
          "name": "_id",
          "type": "uint256"
        }
      ],
      "name": "getPayoutContractAddress",
      "outputs": [
        {
          "internalType": "address",
          "name": "",
          "type": "address"
        }
      ],
      "stateMutability": "view",
      "type": "function"
    },
    {
      "inputs": [
        {
          "internalType": "uint256",
          "name": "_id",
          "type": "uint256"
        }
      ],
      "name": "getPayoutDetails",
      "outputs": [
        {
          "components": [
            {
              "internalType": "address",
              "name": "creator",
              "type": "address"
            },
            {
              "internalType": "address",
              "name": "receiver",
              "type": "address"
            },
            {
              "internalType": "address",
              "name": "payoutContract",
              "type": "address"
            },
            {
              "internalType": "contract payout",
              "name": "_contract",
              "type": "address"
            },
            {
              "internalType": "bool",
              "name": "completed",
              "type": "bool"
            },
            {
              "internalType": "uint256",
              "name": "amount",
              "type": "uint256"
            }
          ],
          "internalType": "struct payoutManager.payoutRequest",
          "name": "",
          "type": "tuple"
        }
      ],
      "stateMutability": "view",
      "type": "function"
    },
    {
      "inputs": [],
      "name": "owner",
      "outputs": [
        {
          "internalType": "address",
          "name": "",
          "type": "address"
        }
      ],
      "stateMutability": "view",
      "type": "function"
    },
    {
      "inputs": [
        {
          "internalType": "uint256",
          "name": "",
          "type": "uint256"
        }
      ],
      "name": "payouts",
      "outputs": [
        {
          "internalType": "address",
          "name": "creator",
          "type": "address"
        },
        {
          "internalType": "address",
          "name": "receiver",
          "type": "address"
        },
        {
          "internalType": "address",
          "name": "payoutContract",
          "type": "address"
        },
        {
          "internalType": "contract payout",
          "name": "_contract",
          "type": "address"
        },
        {
          "internalType": "bool",
          "name": "completed",
          "type": "bool"
        },
        {
          "internalType": "uint256",
          "name": "amount",
          "type": "uint256"
        }
      ],
      "stateMutability": "view",
      "type": "function"
    },
    {
      "inputs": [],
      "name": "renounceOwnership",
      "outputs": [],
      "stateMutability": "nonpayable",
      "type": "function"
    },
    {
      "inputs": [],
      "name": "totalRequests",
      "outputs": [
        {
          "internalType": "uint256",
          "name": "",
          "type": "uint256"
        }
      ],
      "stateMutability": "view",
      "type": "function"
    },
    {
      "inputs": [
        {
          "internalType": "address",
          "name": "newOwner",
          "type": "address"
        }
      ],
      "name": "transferOwnership",
      "outputs": [],
      "stateMutability": "nonpayable",
      "type": "function"
    }
  ],
  "bytecode": "0x6080604052600060025534801561001557600080fd5b5061001f33610024565b610074565b600080546001600160a01b038381166001600160a01b0319831681178455604051919092169283917f8be0079c531659141344cd1fd0a4f28419497f9722a3daafe3b4186f6b6457e09190a35050565b610ebc806100836000396000f3fe608060405234801561001057600080fd5b50600436106100935760003560e01c8063715018a611610066578063715018a6146102725780638aea61dc1461027a5780638da5cb5b1461029157806397d4fdd8146102b6578063f2fde38b146102e257600080fd5b80631f670fd9146100985780631faa0414146100ad57806329652e86146101c35780634c93a2dd1461025f575b600080fd5b6100ab6100a636600461062f565b6102f5565b005b61015f6100bb36600461062f565b6040805160c081018252600080825260208201819052918101829052606081018290526080810182905260a081019190915250600090815260016020818152604092839020835160c08101855281546001600160a01b03908116825293820154841692810192909252600281015483169382019390935260038301549182166060820152600160a01b90910460ff161515608082015260049091015460a082015290565b6040516101ba919081516001600160a01b0390811682526020808401518216908301526040808401518216908301526060808401519091169082015260808083015115159082015260a0918201519181019190915260c00190565b60405180910390f35b61021d6101d136600461062f565b6001602081905260009182526040909120805491810154600282015460038301546004909301546001600160a01b03948516949283169391831692821691600160a01b900460ff169086565b604080516001600160a01b03978816815295871660208701529386169385019390935293166060830152911515608082015260a081019190915260c0016101ba565b6100ab61026d366004610664565b61037d565b6100ab6104eb565b61028360025481565b6040519081526020016101ba565b6000546001600160a01b03165b6040516001600160a01b0390911681526020016101ba565b61029e6102c436600461062f565b6000908152600160205260409020600201546001600160a01b031690565b6100ab6102f036600461068e565b6104ff565b6000818152600160208190526040909120908101546001600160a01b031633146103665760405162461bcd60e51b815260206004820152601760248201527f596f752063616e206e6f7420636f6d706c65746520697400000000000000000060448201526064015b60405180910390fd5b600301805460ff60a01b1916600160a01b17905550565b806001600160a01b0383166103cb5760405162461bcd60e51b81526020600482015260146024820152731059191c995cdcc81a5cc81b9bdd081d985b1a5960621b604482015260640161035d565b600083336040516103db90610622565b6001600160a01b03928316815291166020820152604001604051809103906000f08015801561040e573d6000803e3d6000fd5b506040805160c0810182523381526001600160a01b0387811660208084019182528286168486018181526060860191825260006080870181815260a088018c8152600280548452600196879052998320985189549089166001600160a01b0319918216178a5596518987018054918a169189169190911790559251888a0180549189169190971617909555915160038701805495511515600160a01b026001600160a81b03199096169190961617939093179093559051600490930192909255825493945090926104e09084906106b0565b909155505050505050565b6104f3610578565b6104fd60006105d2565b565b610507610578565b6001600160a01b03811661056c5760405162461bcd60e51b815260206004820152602660248201527f4f776e61626c653a206e6577206f776e657220697320746865207a65726f206160448201526564647265737360d01b606482015260840161035d565b610575816105d2565b50565b6000546001600160a01b031633146104fd5760405162461bcd60e51b815260206004820181905260248201527f4f776e61626c653a2063616c6c6572206973206e6f7420746865206f776e6572604482015260640161035d565b600080546001600160a01b038381166001600160a01b0319831681178455604051919092169283917f8be0079c531659141344cd1fd0a4f28419497f9722a3daafe3b4186f6b6457e09190a35050565b6107b0806106d783390190565b60006020828403121561064157600080fd5b5035919050565b80356001600160a01b038116811461065f57600080fd5b919050565b6000806040838503121561067757600080fd5b61068083610648565b946020939093013593505050565b6000602082840312156106a057600080fd5b6106a982610648565b9392505050565b600082198211156106d157634e487b7160e01b600052601160045260246000fd5b50019056fe60c060405234801561001057600080fd5b506040516107b03803806107b083398101604081905261002f91610115565b610038336100a9565b6001600160a01b0382166100925760405162461bcd60e51b815260206004820152601460248201527f41646472657373206973206e6f742076616c6964000000000000000000000000604482015260640160405180910390fd5b6001600160a01b039182166080521660a052610148565b600080546001600160a01b038381166001600160a01b0319831681178455604051919092169283917f8be0079c531659141344cd1fd0a4f28419497f9722a3daafe3b4186f6b6457e09190a35050565b80516001600160a01b038116811461011057600080fd5b919050565b6000806040838503121561012857600080fd5b610131836100f9565b915061013f602084016100f9565b90509250929050565b60805160a0516106276101896000396000818161013701528181610277015261047c0152600081816101d50152818161029c015261030801526106276000f3fe6080604052600436106100915760003560e01c8063ae90b21311610059578063ae90b21314610125578063b7794c1214610159578063e834a83414610179578063f2fde38b146101a3578063f7260d3e146101c357600080fd5b8063715018a6146100965780637881be17146100ad5780638129fc1c146100c25780638da5cb5b146100ca578063aa8c217c14610101575b600080fd5b3480156100a257600080fd5b506100ab6101f7565b005b3480156100b957600080fd5b506100ab61020b565b6100ab610216565b3480156100d657600080fd5b506000546001600160a01b03165b6040516001600160a01b0390911681526020015b60405180910390f35b34801561010d57600080fd5b5061011760015481565b6040519081526020016100f8565b34801561013157600080fd5b506100e47f000000000000000000000000000000000000000000000000000000000000000081565b34801561016557600080fd5b506100ab6101743660046105c1565b6102fd565b34801561018557600080fd5b506002546101939060ff1681565b60405190151581526020016100f8565b3480156101af57600080fd5b506100ab6101be3660046105c1565b61049e565b3480156101cf57600080fd5b506100e47f000000000000000000000000000000000000000000000000000000000000000081565b6101ff610517565b6102096000610571565b565b610213610517565b33ff5b600034116102635760405162461bcd60e51b8152602060048201526015602482015274020b6b7bab73a1039b437bab632103132901f10181605d1b60448201526064015b60405180910390fd5b346001819055604080516001600160a01b037f0000000000000000000000000000000000000000000000000000000000000000811682527f0000000000000000000000000000000000000000000000000000000000000000166020820152908101919091523060608201527fcccb7c2f5a7cfd14da627777479db85df2ea50ad0d5d0eb4d38ca93be75600089060800160405180910390a1565b336001600160a01b037f000000000000000000000000000000000000000000000000000000000000000016146103755760405162461bcd60e51b815260206004820152601860248201527f596f7520617265206e6f74207468652072656369657665720000000000000000604482015260640161025a565b6001600160a01b0381166103cb5760405162461bcd60e51b815260206004820152601860248201527f496e76616c696420726563696576657220616464726573730000000000000000604482015260640161025a565b6001546040516000916001600160a01b038416918381818185875af1925050503d8060008114610417576040519150601f19603f3d011682016040523d82523d6000602084013e61041c565b606091505b50509050806104655760405162461bcd60e51b81526020600482015260156024820152741c995c5d595cdd081b9bdd0818dbdb5c1b195d1959605a1b604482015260640161025a565b6002805460ff191660011790556001600160a01b037f000000000000000000000000000000000000000000000000000000000000000016ff5b6104a6610517565b6001600160a01b03811661050b5760405162461bcd60e51b815260206004820152602660248201527f4f776e61626c653a206e6577206f776e657220697320746865207a65726f206160448201526564647265737360d01b606482015260840161025a565b61051481610571565b50565b6000546001600160a01b031633146102095760405162461bcd60e51b815260206004820181905260248201527f4f776e61626c653a2063616c6c6572206973206e6f7420746865206f776e6572604482015260640161025a565b600080546001600160a01b038381166001600160a01b0319831681178455604051919092169283917f8be0079c531659141344cd1fd0a4f28419497f9722a3daafe3b4186f6b6457e09190a35050565b6000602082840312156105d357600080fd5b81356001600160a01b03811681146105ea57600080fd5b939250505056fea2646970667358221220f46e736ac2cd2264af3750a1f2416f509f84c6fe4086c55a0882b21d9e0fc18a64736f6c634300080a0033a264697066735822122051f9b6c0797d622353117702b52bc3575129c4a83115bea8d42f09e10963eeef64736f6c634300080a0033",
  "linkReferences": {},
  "deployedLinkReferences": {}
}