{
  "_format": "hh-sol-artifact-1",
  "contractName": "walletVerifier",
  "sourceName": "contracts/walletVerifier.sol",
  "abi": [
    {
      "inputs": [],
      "stateMutability": "payable",
      "type": "constructor"
    },
    {
      "anonymous": false,
      "inputs": [
        {
          "indexed": true,
          "internalType": "address",
          "name": "_user",
          "type": "address"
        },
        {
          "indexed": true,
          "internalType": "address",
          "name": "_owner",
          "type": "address"
        }
      ],
      "name": "compromised",
      "type": "event"
    },
    {
      "anonymous": false,
      "inputs": [
        {
          "indexed": true,
          "internalType": "address",
          "name": "_user",
          "type": "address"
        },
        {
          "indexed": true,
          "internalType": "address",
          "name": "_owner",
          "type": "address"
        }
      ],
      "name": "verified",
      "type": "event"
    },
    {
      "stateMutability": "payable",
      "type": "fallback"
    },
    {
      "inputs": [
        {
          "internalType": "address",
          "name": "user",
          "type": "address"
        }
      ],
      "name": "checkVerification",
      "outputs": [],
      "stateMutability": "nonpayable",
      "type": "function"
    },
    {
      "inputs": [
        {
          "internalType": "address",
          "name": "user",
          "type": "address"
        }
      ],
      "name": "startVerification",
      "outputs": [],
      "stateMutability": "nonpayable",
      "type": "function"
    },
    {
      "inputs": [
        {
          "internalType": "address",
          "name": "",
          "type": "address"
        }
      ],
      "name": "verifyRequests",
      "outputs": [
        {
          "internalType": "address",
          "name": "owner",
          "type": "address"
        },
        {
          "internalType": "bool",
          "name": "verified",
          "type": "bool"
        },
        {
          "internalType": "bool",
          "name": "compromised",
          "type": "bool"
        },
        {
          "internalType": "bool",
          "name": "sent",
          "type": "bool"
        },
        {
          "internalType": "uint256",
          "name": "timesRequested",
          "type": "uint256"
        }
      ],
      "stateMutability": "view",
      "type": "function"
    },
    {
      "stateMutability": "payable",
      "type": "receive"
    }
  ],
  "bytecode": "0x608060405266038d7ea4c680006001556104588061001e6000396000f3fe6080604052600436106100355760003560e01c8063184991701461003e578063797c0faa1461005e578063baab9797146100f657005b3661003c57005b005b34801561004a57600080fd5b5061003c6100593660046103cc565b610116565b34801561006a57600080fd5b506100be6100793660046103cc565b600060208190529081526040902080546001909101546001600160a01b0382169160ff600160a01b8204811692600160a81b8304821692600160b01b90049091169085565b604080516001600160a01b03969096168652931515602086015291151584840152151560608401526080830152519081900360a00190f35b34801561010257600080fd5b5061003c6101113660046103cc565b6102b1565b6001600160a01b03811660009081526020819052604090208054600160a01b900460ff161561017f5760405162461bcd60e51b815260206004820152601060248201526f105b1c9958591e481d995c9a599a595960821b60448201526064015b60405180910390fd5b60038160010154106101d35760405162461bcd60e51b815260206004820152601760248201527f4e6f2e206f6620726571756573747320637265617465640000000000000000006044820152606401610176565b80546001600160a01b03191633178155600180820180546000906101f89084906103fc565b90915550506001546040516000916001600160a01b038516918381818185875af1925050503d8060008114610249576040519150601f19603f3d011682016040523d82523d6000602084013e61024e565b606091505b50509050806102975760405162461bcd60e51b81526020600482015260156024820152741c995c5d595cdd081b9bdd0818dbdb5c1b195d1959605a1b6044820152606401610176565b8154901515600160b01b0260ff60b01b1990911617905550565b6001600160a01b03811660009081526020819052604090208054600160b01b900460ff166103175760405162461bcd60e51b8152602060048201526013602482015272105b5bdd5b9d081b9bdd081e595d081cd95b9d606a1b6044820152606401610176565b6001546001600160a01b0383163190811061037c57815461ffff60a01b198116600160a01b1783556040516001600160a01b03918216918516907f48ac88bb9ebd8ba0a81516d92df7f348bfb61b7ea5e0357db273012eca9b6ba090600090a3505050565b815461ffff60a01b198116600160a81b1783556040516001600160a01b03918216918516907ffaaff668cb5c759dc057d576fd1e7b85f50a0949bbfe1da3df08ff0c228854a490600090a3505050565b6000602082840312156103de57600080fd5b81356001600160a01b03811681146103f557600080fd5b9392505050565b6000821982111561041d57634e487b7160e01b600052601160045260246000fd5b50019056fea264697066735822122021d40460cec99eff06e8ea1b3a433329fb0f8a5d0751505ee1b11a2bd5caeecc64736f6c634300080a0033",
  "linkReferences": {},
  "deployedLinkReferences": {}
}