{
  "_format": "hh-sol-artifact-1",
  "contractName": "giftcard",
  "sourceName": "contracts/giftcard.sol",
  "abi": [
    {
      "inputs": [
        {
          "internalType": "address",
          "name": "_nftCollectionAddress",
          "type": "address"
        },
        {
          "internalType": "uint256",
          "name": "_tokenId",
          "type": "uint256"
        },
        {
          "internalType": "address",
          "name": "_payee",
          "type": "address"
        },
        {
          "internalType": "uint256",
          "name": "validity",
          "type": "uint256"
        }
      ],
      "stateMutability": "nonpayable",
      "type": "constructor"
    },
    {
      "anonymous": false,
      "inputs": [
        {
          "indexed": true,
          "internalType": "address",
          "name": "previousOwner",
          "type": "address"
        },
        {
          "indexed": true,
          "internalType": "address",
          "name": "newOwner",
          "type": "address"
        }
      ],
      "name": "OwnershipTransferred",
      "type": "event"
    },
    {
      "anonymous": false,
      "inputs": [
        {
          "indexed": false,
          "internalType": "address",
          "name": "creator",
          "type": "address"
        },
        {
          "indexed": false,
          "internalType": "address",
          "name": "nftCollection",
          "type": "address"
        },
        {
          "indexed": false,
          "internalType": "uint256",
          "name": "_tokenId",
          "type": "uint256"
        },
        {
          "indexed": false,
          "internalType": "address",
          "name": "giftCardAddress",
          "type": "address"
        }
      ],
      "name": "giftCardCreated",
      "type": "event"
    },
    {
      "anonymous": false,
      "inputs": [
        {
          "indexed": false,
          "internalType": "address",
          "name": "owner",
          "type": "address"
        },
        {
          "indexed": false,
          "internalType": "uint256",
          "name": "_amount",
          "type": "uint256"
        }
      ],
      "name": "giftCardExpired",
      "type": "event"
    },
    {
      "anonymous": false,
      "inputs": [
        {
          "indexed": false,
          "internalType": "address",
          "name": "_receiver",
          "type": "address"
        },
        {
          "indexed": false,
          "internalType": "address",
          "name": "_wallet",
          "type": "address"
        },
        {
          "indexed": false,
          "internalType": "uint256",
          "name": "_amount",
          "type": "uint256"
        }
      ],
      "name": "giftCardReedemed",
      "type": "event"
    },
    {
      "inputs": [],
      "name": "amount",
      "outputs": [
        {
          "internalType": "uint256",
          "name": "",
          "type": "uint256"
        }
      ],
      "stateMutability": "view",
      "type": "function"
    },
    {
      "inputs": [],
      "name": "claimed",
      "outputs": [
        {
          "internalType": "bool",
          "name": "",
          "type": "bool"
        }
      ],
      "stateMutability": "view",
      "type": "function"
    },
    {
      "inputs": [],
      "name": "collectionAddress",
      "outputs": [
        {
          "internalType": "address",
          "name": "",
          "type": "address"
        }
      ],
      "stateMutability": "view",
      "type": "function"
    },
    {
      "inputs": [],
      "name": "expireGC",
      "outputs": [],
      "stateMutability": "nonpayable",
      "type": "function"
    },
    {
      "inputs": [],
      "name": "expiry",
      "outputs": [
        {
          "internalType": "uint256",
          "name": "",
          "type": "uint256"
        }
      ],
      "stateMutability": "view",
      "type": "function"
    },
    {
      "inputs": [],
      "name": "initialize",
      "outputs": [],
      "stateMutability": "payable",
      "type": "function"
    },
    {
      "inputs": [],
      "name": "owner",
      "outputs": [
        {
          "internalType": "address",
          "name": "",
          "type": "address"
        }
      ],
      "stateMutability": "view",
      "type": "function"
    },
    {
      "inputs": [],
      "name": "payee",
      "outputs": [
        {
          "internalType": "address",
          "name": "",
          "type": "address"
        }
      ],
      "stateMutability": "view",
      "type": "function"
    },
    {
      "inputs": [
        {
          "internalType": "address",
          "name": "_recipient",
          "type": "address"
        }
      ],
      "name": "redeemGiftCard",
      "outputs": [],
      "stateMutability": "nonpayable",
      "type": "function"
    },
    {
      "inputs": [],
      "name": "renounceOwnership",
      "outputs": [],
      "stateMutability": "nonpayable",
      "type": "function"
    },
    {
      "inputs": [],
      "name": "tokenId",
      "outputs": [
        {
          "internalType": "uint256",
          "name": "",
          "type": "uint256"
        }
      ],
      "stateMutability": "view",
      "type": "function"
    },
    {
      "inputs": [
        {
          "internalType": "address",
          "name": "newOwner",
          "type": "address"
        }
      ],
      "name": "transferOwnership",
      "outputs": [],
      "stateMutability": "nonpayable",
      "type": "function"
    }
  ],
  "bytecode": "0x60a060405234801561001057600080fd5b506040516109ce3803806109ce83398101604081905261002f916102bd565b6100383361017c565b6001600160a01b0384166100855760405162461bcd60e51b815260206004820152600f60248201526e496e76616c6964206164647265737360881b60448201526064015b60405180910390fd5b600081116100d55760405162461bcd60e51b815260206004820152601660248201527f56616c69646974792073686f756c64206265203e203000000000000000000000604482015260640161007c565b600380546001600160a01b03199081166001600160a01b0387811691821790935560018054909216179055600484905582166080526101148142610301565b600555610120826101cc565b60808051604080516001600160a01b039283168152918716602083015281018590523060608201527fa1dd16298ed829c399581e970e3f4246e32ca3d054dd2ed11117d7709db74563910160405180910390a150505050610327565b600080546001600160a01b038381166001600160a01b0319831681178455604051919092169283917f8be0079c531659141344cd1fd0a4f28419497f9722a3daafe3b4186f6b6457e09190a35050565b6101d4610245565b6001600160a01b0381166102395760405162461bcd60e51b815260206004820152602660248201527f4f776e61626c653a206e6577206f776e657220697320746865207a65726f206160448201526564647265737360d01b606482015260840161007c565b6102428161017c565b50565b6000546001600160a01b0316331461029f5760405162461bcd60e51b815260206004820181905260248201527f4f776e61626c653a2063616c6c6572206973206e6f7420746865206f776e6572604482015260640161007c565b565b80516001600160a01b03811681146102b857600080fd5b919050565b600080600080608085870312156102d357600080fd5b6102dc856102a1565b9350602085015192506102f1604086016102a1565b6060959095015193969295505050565b6000821982111561032257634e487b7160e01b600052601160045260246000fd5b500190565b6080516106856103496000396000818161017201526104b401526106856000f3fe6080604052600436106100a75760003560e01c8063ae90b21311610064578063ae90b21314610160578063b2e0928314610194578063b73cdbd8146101a9578063e184c9be146101c9578063e834a834146101df578063f2fde38b1461020957600080fd5b806317d70f7c146100ac5780636aa00371146100d5578063715018a61461010d5780638129fc1c146101245780638da5cb5b1461012c578063aa8c217c1461014a575b600080fd5b3480156100b857600080fd5b506100c260045481565b6040519081526020015b60405180910390f35b3480156100e157600080fd5b506003546100f5906001600160a01b031681565b6040516001600160a01b0390911681526020016100cc565b34801561011957600080fd5b50610122610229565b005b61012261023d565b34801561013857600080fd5b506000546001600160a01b03166100f5565b34801561015657600080fd5b506100c260025481565b34801561016c57600080fd5b506100f57f000000000000000000000000000000000000000000000000000000000000000081565b3480156101a057600080fd5b50610122610298565b3480156101b557600080fd5b506101226101c436600461060e565b6102e9565b3480156101d557600080fd5b506100c260055481565b3480156101eb57600080fd5b506006546101f99060ff1681565b60405190151581526020016100cc565b34801561021557600080fd5b5061012261022436600461060e565b6104d6565b61023161054f565b61023b60006105a9565b565b61024561054f565b600034116102925760405162461bcd60e51b8152602060048201526015602482015274020b6b7bab73a1039b437bab632103132901f10181605d1b60448201526064015b60405180910390fd5b34600255565b60055442116102db5760405162461bcd60e51b815260206004820152600f60248201526e139bdd081e595d08115e1c1a5c9959608a1b6044820152606401610289565b6000546001600160a01b0316ff5b600154600480546040516331a9108f60e11b81529182015233916001600160a01b031690636352211e90602401602060405180830381865afa158015610333573d6000803e3d6000fd5b505050506040513d601f19601f820116820180604052508101906103579190610632565b6001600160a01b0316146103ad5760405162461bcd60e51b815260206004820152601c60248201527f596f7520617265206e6f742074686520746f6b656e20686f6c646572000000006044820152606401610289565b6001600160a01b0381166104035760405162461bcd60e51b815260206004820152601860248201527f496e76616c6964207265636965766572206164647265737300000000000000006044820152606401610289565b6002546040516000916001600160a01b038416918381818185875af1925050503d806000811461044f576040519150601f19603f3d011682016040523d82523d6000602084013e610454565b606091505b505090508061049d5760405162461bcd60e51b81526020600482015260156024820152741c995c5d595cdd081b9bdd0818dbdb5c1b195d1959605a1b6044820152606401610289565b6006805460ff191660011790556001600160a01b037f000000000000000000000000000000000000000000000000000000000000000016ff5b6104de61054f565b6001600160a01b0381166105435760405162461bcd60e51b815260206004820152602660248201527f4f776e61626c653a206e6577206f776e657220697320746865207a65726f206160448201526564647265737360d01b6064820152608401610289565b61054c816105a9565b50565b6000546001600160a01b0316331461023b5760405162461bcd60e51b815260206004820181905260248201527f4f776e61626c653a2063616c6c6572206973206e6f7420746865206f776e65726044820152606401610289565b600080546001600160a01b038381166001600160a01b0319831681178455604051919092169283917f8be0079c531659141344cd1fd0a4f28419497f9722a3daafe3b4186f6b6457e09190a35050565b6001600160a01b038116811461054c57600080fd5b60006020828403121561062057600080fd5b813561062b816105f9565b9392505050565b60006020828403121561064457600080fd5b815161062b816105f956fea2646970667358221220e43b61bc484bf0a81631e186ec337db112cbc1e729d7256f986ca46012b0143664736f6c634300080a0033",
  "linkReferences": {},
  "deployedLinkReferences": {}
}