{
  "_format": "hh-sol-artifact-1",
  "contractName": "payout",
  "sourceName": "contracts/payout.sol",
  "abi": [
    {
      "inputs": [
        {
          "internalType": "address",
          "name": "_receiver",
          "type": "address"
        },
        {
          "internalType": "address",
          "name": "_payee",
          "type": "address"
        }
      ],
      "stateMutability": "nonpayable",
      "type": "constructor"
    },
    {
      "anonymous": false,
      "inputs": [
        {
          "indexed": true,
          "internalType": "address",
          "name": "previousOwner",
          "type": "address"
        },
        {
          "indexed": true,
          "internalType": "address",
          "name": "newOwner",
          "type": "address"
        }
      ],
      "name": "OwnershipTransferred",
      "type": "event"
    },
    {
      "anonymous": false,
      "inputs": [
        {
          "indexed": false,
          "internalType": "address",
          "name": "creator",
          "type": "address"
        },
        {
          "indexed": false,
          "internalType": "address",
          "name": "_receiver",
          "type": "address"
        },
        {
          "indexed": false,
          "internalType": "uint256",
          "name": "_amount",
          "type": "uint256"
        },
        {
          "indexed": false,
          "internalType": "address",
          "name": "payoutContract",
          "type": "address"
        }
      ],
      "name": "payoutCreated",
      "type": "event"
    },
    {
      "anonymous": false,
      "inputs": [
        {
          "indexed": false,
          "internalType": "address",
          "name": "_receiver",
          "type": "address"
        },
        {
          "indexed": false,
          "internalType": "address",
          "name": "_wallet",
          "type": "address"
        },
        {
          "indexed": false,
          "internalType": "uint256",
          "name": "_amount",
          "type": "uint256"
        }
      ],
      "name": "payoutReedemed",
      "type": "event"
    },
    {
      "inputs": [],
      "name": "amount",
      "outputs": [
        {
          "internalType": "uint256",
          "name": "",
          "type": "uint256"
        }
      ],
      "stateMutability": "view",
      "type": "function"
    },
    {
      "inputs": [],
      "name": "cancelPayout",
      "outputs": [],
      "stateMutability": "nonpayable",
      "type": "function"
    },
    {
      "inputs": [],
      "name": "claimed",
      "outputs": [
        {
          "internalType": "bool",
          "name": "",
          "type": "bool"
        }
      ],
      "stateMutability": "view",
      "type": "function"
    },
    {
      "inputs": [],
      "name": "initialize",
      "outputs": [],
      "stateMutability": "payable",
      "type": "function"
    },
    {
      "inputs": [],
      "name": "owner",
      "outputs": [
        {
          "internalType": "address",
          "name": "",
          "type": "address"
        }
      ],
      "stateMutability": "view",
      "type": "function"
    },
    {
      "inputs": [],
      "name": "payee",
      "outputs": [
        {
          "internalType": "address",
          "name": "",
          "type": "address"
        }
      ],
      "stateMutability": "view",
      "type": "function"
    },
    {
      "inputs": [],
      "name": "receiver",
      "outputs": [
        {
          "internalType": "address",
          "name": "",
          "type": "address"
        }
      ],
      "stateMutability": "view",
      "type": "function"
    },
    {
      "inputs": [
        {
          "internalType": "address",
          "name": "_recipient",
          "type": "address"
        }
      ],
      "name": "redeemPayout",
      "outputs": [],
      "stateMutability": "nonpayable",
      "type": "function"
    },
    {
      "inputs": [],
      "name": "renounceOwnership",
      "outputs": [],
      "stateMutability": "nonpayable",
      "type": "function"
    },
    {
      "inputs": [
        {
          "internalType": "address",
          "name": "newOwner",
          "type": "address"
        }
      ],
      "name": "transferOwnership",
      "outputs": [],
      "stateMutability": "nonpayable",
      "type": "function"
    }
  ],
  "bytecode": "0x60c060405234801561001057600080fd5b506040516107b03803806107b083398101604081905261002f91610115565b610038336100a9565b6001600160a01b0382166100925760405162461bcd60e51b815260206004820152601460248201527f41646472657373206973206e6f742076616c6964000000000000000000000000604482015260640160405180910390fd5b6001600160a01b039182166080521660a052610148565b600080546001600160a01b038381166001600160a01b0319831681178455604051919092169283917f8be0079c531659141344cd1fd0a4f28419497f9722a3daafe3b4186f6b6457e09190a35050565b80516001600160a01b038116811461011057600080fd5b919050565b6000806040838503121561012857600080fd5b610131836100f9565b915061013f602084016100f9565b90509250929050565b60805160a0516106276101896000396000818161013701528181610277015261047c0152600081816101d50152818161029c015261030801526106276000f3fe6080604052600436106100915760003560e01c8063ae90b21311610059578063ae90b21314610125578063b7794c1214610159578063e834a83414610179578063f2fde38b146101a3578063f7260d3e146101c357600080fd5b8063715018a6146100965780637881be17146100ad5780638129fc1c146100c25780638da5cb5b146100ca578063aa8c217c14610101575b600080fd5b3480156100a257600080fd5b506100ab6101f7565b005b3480156100b957600080fd5b506100ab61020b565b6100ab610216565b3480156100d657600080fd5b506000546001600160a01b03165b6040516001600160a01b0390911681526020015b60405180910390f35b34801561010d57600080fd5b5061011760015481565b6040519081526020016100f8565b34801561013157600080fd5b506100e47f000000000000000000000000000000000000000000000000000000000000000081565b34801561016557600080fd5b506100ab6101743660046105c1565b6102fd565b34801561018557600080fd5b506002546101939060ff1681565b60405190151581526020016100f8565b3480156101af57600080fd5b506100ab6101be3660046105c1565b61049e565b3480156101cf57600080fd5b506100e47f000000000000000000000000000000000000000000000000000000000000000081565b6101ff610517565b6102096000610571565b565b610213610517565b33ff5b600034116102635760405162461bcd60e51b8152602060048201526015602482015274020b6b7bab73a1039b437bab632103132901f10181605d1b60448201526064015b60405180910390fd5b346001819055604080516001600160a01b037f0000000000000000000000000000000000000000000000000000000000000000811682527f0000000000000000000000000000000000000000000000000000000000000000166020820152908101919091523060608201527fcccb7c2f5a7cfd14da627777479db85df2ea50ad0d5d0eb4d38ca93be75600089060800160405180910390a1565b336001600160a01b037f000000000000000000000000000000000000000000000000000000000000000016146103755760405162461bcd60e51b815260206004820152601860248201527f596f7520617265206e6f74207468652072656369657665720000000000000000604482015260640161025a565b6001600160a01b0381166103cb5760405162461bcd60e51b815260206004820152601860248201527f496e76616c696420726563696576657220616464726573730000000000000000604482015260640161025a565b6001546040516000916001600160a01b038416918381818185875af1925050503d8060008114610417576040519150601f19603f3d011682016040523d82523d6000602084013e61041c565b606091505b50509050806104655760405162461bcd60e51b81526020600482015260156024820152741c995c5d595cdd081b9bdd0818dbdb5c1b195d1959605a1b604482015260640161025a565b6002805460ff191660011790556001600160a01b037f000000000000000000000000000000000000000000000000000000000000000016ff5b6104a6610517565b6001600160a01b03811661050b5760405162461bcd60e51b815260206004820152602660248201527f4f776e61626c653a206e6577206f776e657220697320746865207a65726f206160448201526564647265737360d01b606482015260840161025a565b61051481610571565b50565b6000546001600160a01b031633146102095760405162461bcd60e51b815260206004820181905260248201527f4f776e61626c653a2063616c6c6572206973206e6f7420746865206f776e6572604482015260640161025a565b600080546001600160a01b038381166001600160a01b0319831681178455604051919092169283917f8be0079c531659141344cd1fd0a4f28419497f9722a3daafe3b4186f6b6457e09190a35050565b6000602082840312156105d357600080fd5b81356001600160a01b03811681146105ea57600080fd5b939250505056fea2646970667358221220f46e736ac2cd2264af3750a1f2416f509f84c6fe4086c55a0882b21d9e0fc18a64736f6c634300080a0033",
  "linkReferences": {},
  "deployedLinkReferences": {}
}