{
  "_format": "hh-sol-artifact-1",
  "contractName": "gcCreator",
  "sourceName": "contracts/gcCreator.sol",
  "abi": [
    {
      "inputs": [
        {
          "internalType": "address",
          "name": "_gcCollection",
          "type": "address"
        }
      ],
      "stateMutability": "nonpayable",
      "type": "constructor"
    },
    {
      "anonymous": false,
      "inputs": [
        {
          "indexed": true,
          "internalType": "address",
          "name": "previousOwner",
          "type": "address"
        },
        {
          "indexed": true,
          "internalType": "address",
          "name": "newOwner",
          "type": "address"
        }
      ],
      "name": "OwnershipTransferred",
      "type": "event"
    },
    {
      "inputs": [
        {
          "internalType": "uint256",
          "name": "",
          "type": "uint256"
        }
      ],
      "name": "_giftCards",
      "outputs": [
        {
          "internalType": "address",
          "name": "sender",
          "type": "address"
        },
        {
          "internalType": "address",
          "name": "receiver",
          "type": "address"
        },
        {
          "internalType": "address",
          "name": "gcContract",
          "type": "address"
        },
        {
          "internalType": "contract giftcard",
          "name": "_contract",
          "type": "address"
        },
        {
          "internalType": "bool",
          "name": "reedemed",
          "type": "bool"
        },
        {
          "internalType": "uint256",
          "name": "amount",
          "type": "uint256"
        },
        {
          "internalType": "uint256",
          "name": "expiry",
          "type": "uint256"
        }
      ],
      "stateMutability": "view",
      "type": "function"
    },
    {
      "inputs": [
        {
          "internalType": "address",
          "name": "_receiver",
          "type": "address"
        },
        {
          "internalType": "uint256",
          "name": "validity",
          "type": "uint256"
        },
        {
          "internalType": "uint256",
          "name": "_amount",
          "type": "uint256"
        },
        {
          "internalType": "string",
          "name": "_tokenURI",
          "type": "string"
        }
      ],
      "name": "createGiftCard",
      "outputs": [
        {
          "internalType": "uint256",
          "name": "_gcID",
          "type": "uint256"
        }
      ],
      "stateMutability": "nonpayable",
      "type": "function"
    },
    {
      "inputs": [
        {
          "internalType": "uint256",
          "name": "_id",
          "type": "uint256"
        }
      ],
      "name": "getGcContractAddress",
      "outputs": [
        {
          "internalType": "address",
          "name": "",
          "type": "address"
        }
      ],
      "stateMutability": "view",
      "type": "function"
    },
    {
      "inputs": [
        {
          "internalType": "uint256",
          "name": "_id",
          "type": "uint256"
        }
      ],
      "name": "getGcDetails",
      "outputs": [
        {
          "components": [
            {
              "internalType": "address",
              "name": "sender",
              "type": "address"
            },
            {
              "internalType": "address",
              "name": "receiver",
              "type": "address"
            },
            {
              "internalType": "address",
              "name": "gcContract",
              "type": "address"
            },
            {
              "internalType": "contract giftcard",
              "name": "_contract",
              "type": "address"
            },
            {
              "internalType": "bool",
              "name": "reedemed",
              "type": "bool"
            },
            {
              "internalType": "uint256",
              "name": "amount",
              "type": "uint256"
            },
            {
              "internalType": "uint256",
              "name": "expiry",
              "type": "uint256"
            }
          ],
          "internalType": "struct gcCreator.GiftCards",
          "name": "",
          "type": "tuple"
        }
      ],
      "stateMutability": "view",
      "type": "function"
    },
    {
      "inputs": [],
      "name": "nftCollection",
      "outputs": [
        {
          "internalType": "address",
          "name": "",
          "type": "address"
        }
      ],
      "stateMutability": "view",
      "type": "function"
    },
    {
      "inputs": [],
      "name": "owner",
      "outputs": [
        {
          "internalType": "address",
          "name": "",
          "type": "address"
        }
      ],
      "stateMutability": "view",
      "type": "function"
    },
    {
      "inputs": [],
      "name": "renounceOwnership",
      "outputs": [],
      "stateMutability": "nonpayable",
      "type": "function"
    },
    {
      "inputs": [],
      "name": "totalGiftCards",
      "outputs": [
        {
          "internalType": "uint256",
          "name": "",
          "type": "uint256"
        }
      ],
      "stateMutability": "view",
      "type": "function"
    },
    {
      "inputs": [
        {
          "internalType": "address",
          "name": "newOwner",
          "type": "address"
        }
      ],
      "name": "transferOwnership",
      "outputs": [],
      "stateMutability": "nonpayable",
      "type": "function"
    }
  ],
  "bytecode": "0x6080604052600154600280546001600160a01b0319166001600160a01b0390921691909117905534801561003257600080fd5b50604051611455380380611455833981016040819052610051916100cf565b61005a3361007f565b600180546001600160a01b0319166001600160a01b03929092169190911790556100ff565b600080546001600160a01b038381166001600160a01b0319831681178455604051919092169283917f8be0079c531659141344cd1fd0a4f28419497f9722a3daafe3b4186f6b6457e09190a35050565b6000602082840312156100e157600080fd5b81516001600160a01b03811681146100f857600080fd5b9392505050565b6113478061010e6000396000f3fe60806040523480156200001157600080fd5b50600436106200009f5760003560e01c8063c1720f0d116200006e578063c1720f0d14620001a3578063d02bc05d14620001c9578063d6dde7cc14620001d3578063f2fde38b1462000202578063f97b8c17146200021957600080fd5b80636588103b14620000a4578063715018a614620000d55780638da5cb5b14620000e1578063c065931a14620000f3575b600080fd5b600154620000b8906001600160a01b031681565b6040516001600160a01b0390911681526020015b60405180910390f35b620000df62000342565b005b6000546001600160a01b0316620000b8565b620001576200010436600462000736565b60036020819052600091825260409091208054600182015460028301549383015460048401546005909401546001600160a01b03938416959284169492841693821692600160a01b90920460ff16919087565b604080516001600160a01b0398891681529688166020880152948716948601949094529490911660608401521515608083015260a082019290925260c081019190915260e001620000cc565b620001ba620001b436600462000783565b6200035a565b604051908152602001620000cc565b620001ba60045481565b620000b8620001e436600462000736565b6000908152600360205260409020600201546001600160a01b031690565b620000df6200021336600462000864565b620005fd565b620002dc6200022a36600462000736565b6040805160e081018252600080825260208201819052918101829052606081018290526080810182905260a0810182905260c081019190915250600090815260036020818152604092839020835160e08101855281546001600160a01b03908116825260018301548116938201939093526002820154831694810194909452918201549081166060840152600160a01b900460ff1615156080830152600481015460a08301526005015460c082015290565b604051620000cc919081516001600160a01b0390811682526020808401518216908301526040808401518216908301526060808401519091169082015260808083015115159082015260a0828101519082015260c0918201519181019190915260e00190565b6200034c6200067c565b620003586000620006d8565b565b6000808411620003aa5760405162461bcd60e51b8152602060048201526016602482015275056616c69646974792073686f756c64206265203e20360541b60448201526064015b60405180910390fd5b6001600160a01b038516620003f95760405162461bcd60e51b81526020600482015260146024820152731059191c995cdcc81a5cc81b9bdd081d985b1a5960621b6044820152606401620003a1565b60025460048054604051633349e71f60e21b81526001600160a01b039093169263cd279c7c9262000431928a92909188910162000889565b600060405180830381600087803b1580156200044c57600080fd5b505af115801562000461573d6000803e3d6000fd5b505050506000600160009054906101000a90046001600160a01b03166004548787604051620004909062000728565b6001600160a01b0394851681526020810193909352921660408201526060810191909152608001604051809103906000f080158015620004d4573d6000803e3d6000fd5b506040805160e0810182523381526001600160a01b038981166020830152831691810182905260608101919091526000608082015260a0810186905290915060c081016200052387426200090e565b9052600480546000908152600360208181526040808420865181546001600160a01b03199081166001600160a01b0392831617835593880151600180840180548716928416929092179091559288015160028301805490951690821617909355606087015193810180546080890151959094166001600160a81b031990941693909317600160a01b941515949094029390931790915560a08501518285015560c0909401516005909101558154620005dd9084906200090e565b9091555050600454620005f39060019062000929565b9695505050505050565b620006076200067c565b6001600160a01b0381166200066e5760405162461bcd60e51b815260206004820152602660248201527f4f776e61626c653a206e6577206f776e657220697320746865207a65726f206160448201526564647265737360d01b6064820152608401620003a1565b6200067981620006d8565b50565b6000546001600160a01b03163314620003585760405162461bcd60e51b815260206004820181905260248201527f4f776e61626c653a2063616c6c6572206973206e6f7420746865206f776e65726044820152606401620003a1565b600080546001600160a01b038381166001600160a01b0319831681178455604051919092169283917f8be0079c531659141344cd1fd0a4f28419497f9722a3daafe3b4186f6b6457e09190a35050565b6109ce806200094483390190565b6000602082840312156200074957600080fd5b5035919050565b80356001600160a01b03811681146200076857600080fd5b919050565b634e487b7160e01b600052604160045260246000fd5b600080600080608085870312156200079a57600080fd5b620007a58562000750565b93506020850135925060408501359150606085013567ffffffffffffffff80821115620007d157600080fd5b818701915087601f830112620007e657600080fd5b813581811115620007fb57620007fb6200076d565b604051601f8201601f19908116603f011681019083821181831017156200082657620008266200076d565b816040528281528a60208487010111156200084057600080fd5b82602086016020830137600060208483010152809550505050505092959194509250565b6000602082840312156200087757600080fd5b620008828262000750565b9392505050565b60018060a01b038416815260006020848184015260606040840152835180606085015260005b81811015620008cd57858101830151858201608001528201620008af565b81811115620008e0576000608083870101525b50601f01601f19169290920160800195945050505050565b634e487b7160e01b600052601160045260246000fd5b60008219821115620009245762000924620008f8565b500190565b6000828210156200093e576200093e620008f8565b50039056fe60a060405234801561001057600080fd5b506040516109ce3803806109ce83398101604081905261002f916102bd565b6100383361017c565b6001600160a01b0384166100855760405162461bcd60e51b815260206004820152600f60248201526e496e76616c6964206164647265737360881b60448201526064015b60405180910390fd5b600081116100d55760405162461bcd60e51b815260206004820152601660248201527f56616c69646974792073686f756c64206265203e203000000000000000000000604482015260640161007c565b600380546001600160a01b03199081166001600160a01b0387811691821790935560018054909216179055600484905582166080526101148142610301565b600555610120826101cc565b60808051604080516001600160a01b039283168152918716602083015281018590523060608201527fa1dd16298ed829c399581e970e3f4246e32ca3d054dd2ed11117d7709db74563910160405180910390a150505050610327565b600080546001600160a01b038381166001600160a01b0319831681178455604051919092169283917f8be0079c531659141344cd1fd0a4f28419497f9722a3daafe3b4186f6b6457e09190a35050565b6101d4610245565b6001600160a01b0381166102395760405162461bcd60e51b815260206004820152602660248201527f4f776e61626c653a206e6577206f776e657220697320746865207a65726f206160448201526564647265737360d01b606482015260840161007c565b6102428161017c565b50565b6000546001600160a01b0316331461029f5760405162461bcd60e51b815260206004820181905260248201527f4f776e61626c653a2063616c6c6572206973206e6f7420746865206f776e6572604482015260640161007c565b565b80516001600160a01b03811681146102b857600080fd5b919050565b600080600080608085870312156102d357600080fd5b6102dc856102a1565b9350602085015192506102f1604086016102a1565b6060959095015193969295505050565b6000821982111561032257634e487b7160e01b600052601160045260246000fd5b500190565b6080516106856103496000396000818161017201526104b401526106856000f3fe6080604052600436106100a75760003560e01c8063ae90b21311610064578063ae90b21314610160578063b2e0928314610194578063b73cdbd8146101a9578063e184c9be146101c9578063e834a834146101df578063f2fde38b1461020957600080fd5b806317d70f7c146100ac5780636aa00371146100d5578063715018a61461010d5780638129fc1c146101245780638da5cb5b1461012c578063aa8c217c1461014a575b600080fd5b3480156100b857600080fd5b506100c260045481565b6040519081526020015b60405180910390f35b3480156100e157600080fd5b506003546100f5906001600160a01b031681565b6040516001600160a01b0390911681526020016100cc565b34801561011957600080fd5b50610122610229565b005b61012261023d565b34801561013857600080fd5b506000546001600160a01b03166100f5565b34801561015657600080fd5b506100c260025481565b34801561016c57600080fd5b506100f57f000000000000000000000000000000000000000000000000000000000000000081565b3480156101a057600080fd5b50610122610298565b3480156101b557600080fd5b506101226101c436600461060e565b6102e9565b3480156101d557600080fd5b506100c260055481565b3480156101eb57600080fd5b506006546101f99060ff1681565b60405190151581526020016100cc565b34801561021557600080fd5b5061012261022436600461060e565b6104d6565b61023161054f565b61023b60006105a9565b565b61024561054f565b600034116102925760405162461bcd60e51b8152602060048201526015602482015274020b6b7bab73a1039b437bab632103132901f10181605d1b60448201526064015b60405180910390fd5b34600255565b60055442116102db5760405162461bcd60e51b815260206004820152600f60248201526e139bdd081e595d08115e1c1a5c9959608a1b6044820152606401610289565b6000546001600160a01b0316ff5b600154600480546040516331a9108f60e11b81529182015233916001600160a01b031690636352211e90602401602060405180830381865afa158015610333573d6000803e3d6000fd5b505050506040513d601f19601f820116820180604052508101906103579190610632565b6001600160a01b0316146103ad5760405162461bcd60e51b815260206004820152601c60248201527f596f7520617265206e6f742074686520746f6b656e20686f6c646572000000006044820152606401610289565b6001600160a01b0381166104035760405162461bcd60e51b815260206004820152601860248201527f496e76616c6964207265636965766572206164647265737300000000000000006044820152606401610289565b6002546040516000916001600160a01b038416918381818185875af1925050503d806000811461044f576040519150601f19603f3d011682016040523d82523d6000602084013e610454565b606091505b505090508061049d5760405162461bcd60e51b81526020600482015260156024820152741c995c5d595cdd081b9bdd0818dbdb5c1b195d1959605a1b6044820152606401610289565b6006805460ff191660011790556001600160a01b037f000000000000000000000000000000000000000000000000000000000000000016ff5b6104de61054f565b6001600160a01b0381166105435760405162461bcd60e51b815260206004820152602660248201527f4f776e61626c653a206e6577206f776e657220697320746865207a65726f206160448201526564647265737360d01b6064820152608401610289565b61054c816105a9565b50565b6000546001600160a01b0316331461023b5760405162461bcd60e51b815260206004820181905260248201527f4f776e61626c653a2063616c6c6572206973206e6f7420746865206f776e65726044820152606401610289565b600080546001600160a01b038381166001600160a01b0319831681178455604051919092169283917f8be0079c531659141344cd1fd0a4f28419497f9722a3daafe3b4186f6b6457e09190a35050565b6001600160a01b038116811461054c57600080fd5b60006020828403121561062057600080fd5b813561062b816105f9565b9392505050565b60006020828403121561064457600080fd5b815161062b816105f956fea2646970667358221220e43b61bc484bf0a81631e186ec337db112cbc1e729d7256f986ca46012b0143664736f6c634300080a0033a26469706673582212206f4c71e25cac1036175f256e7ea3bd5e8a7524968c7f7728e87b58888c89f72264736f6c634300080a0033",
  "linkReferences": {},
  "deployedLinkReferences": {}
}