{
  "_format": "hh-sol-artifact-1",
  "contractName": "paymentRequests",
  "sourceName": "contracts/paymentRequest.sol",
  "abi": [
    {
      "inputs": [
        {
          "internalType": "address",
          "name": "_managerAddress",
          "type": "address"
        }
      ],
      "stateMutability": "nonpayable",
      "type": "constructor"
    },
    {
      "anonymous": false,
      "inputs": [
        {
          "indexed": true,
          "internalType": "address",
          "name": "previousOwner",
          "type": "address"
        },
        {
          "indexed": true,
          "internalType": "address",
          "name": "newOwner",
          "type": "address"
        }
      ],
      "name": "OwnershipTransferred",
      "type": "event"
    },
    {
      "anonymous": false,
      "inputs": [
        {
          "indexed": false,
          "internalType": "address",
          "name": "payee",
          "type": "address"
        },
        {
          "indexed": false,
          "internalType": "address",
          "name": "payer",
          "type": "address"
        },
        {
          "indexed": false,
          "internalType": "uint256",
          "name": "id",
          "type": "uint256"
        },
        {
          "indexed": false,
          "internalType": "uint256",
          "name": "amount",
          "type": "uint256"
        }
      ],
      "name": "RequestPaid",
      "type": "event"
    },
    {
      "anonymous": false,
      "inputs": [
        {
          "indexed": false,
          "internalType": "address",
          "name": "creator",
          "type": "address"
        },
        {
          "indexed": false,
          "internalType": "address",
          "name": "payer",
          "type": "address"
        },
        {
          "indexed": false,
          "internalType": "uint256",
          "name": "id",
          "type": "uint256"
        },
        {
          "indexed": false,
          "internalType": "uint256",
          "name": "amount",
          "type": "uint256"
        },
        {
          "indexed": false,
          "internalType": "string",
          "name": "detailsURI",
          "type": "string"
        }
      ],
      "name": "RequestsCreated",
      "type": "event"
    },
    {
      "inputs": [
        {
          "internalType": "address",
          "name": "_creator",
          "type": "address"
        },
        {
          "internalType": "uint256",
          "name": "_id",
          "type": "uint256"
        },
        {
          "internalType": "uint256",
          "name": "_tenure",
          "type": "uint256"
        }
      ],
      "name": "PayEMI",
      "outputs": [],
      "stateMutability": "payable",
      "type": "function"
    },
    {
      "inputs": [
        {
          "internalType": "address",
          "name": "_creator",
          "type": "address"
        },
        {
          "internalType": "uint256",
          "name": "_id",
          "type": "uint256"
        },
        {
          "internalType": "uint256",
          "name": "_timePeriod",
          "type": "uint256"
        }
      ],
      "name": "PayLater",
      "outputs": [],
      "stateMutability": "payable",
      "type": "function"
    },
    {
      "inputs": [
        {
          "internalType": "address",
          "name": "_creator",
          "type": "address"
        },
        {
          "internalType": "uint256",
          "name": "_id",
          "type": "uint256"
        },
        {
          "internalType": "uint256",
          "name": "choice",
          "type": "uint256"
        }
      ],
      "name": "PayNow",
      "outputs": [],
      "stateMutability": "payable",
      "type": "function"
    },
    {
      "inputs": [
        {
          "internalType": "address",
          "name": "_creator",
          "type": "address"
        },
        {
          "internalType": "uint256",
          "name": "_id",
          "type": "uint256"
        },
        {
          "internalType": "uint256",
          "name": "_timePeriod",
          "type": "uint256"
        },
        {
          "internalType": "int96",
          "name": "_flowRate",
          "type": "int96"
        },
        {
          "internalType": "contract ISuperfluidToken",
          "name": "_token",
          "type": "address"
        }
      ],
      "name": "PayStream",
      "outputs": [
        {
          "internalType": "uint256",
          "name": "streamID",
          "type": "uint256"
        }
      ],
      "stateMutability": "payable",
      "type": "function"
    },
    {
      "inputs": [
        {
          "internalType": "address",
          "name": "_creator",
          "type": "address"
        },
        {
          "internalType": "uint256",
          "name": "_id",
          "type": "uint256"
        }
      ],
      "name": "completePayEMI",
      "outputs": [],
      "stateMutability": "payable",
      "type": "function"
    },
    {
      "inputs": [
        {
          "internalType": "address",
          "name": "_creator",
          "type": "address"
        },
        {
          "internalType": "uint256",
          "name": "_id",
          "type": "uint256"
        }
      ],
      "name": "completePayLater",
      "outputs": [],
      "stateMutability": "payable",
      "type": "function"
    },
    {
      "inputs": [
        {
          "internalType": "address",
          "name": "_creator",
          "type": "address"
        },
        {
          "internalType": "uint256",
          "name": "_id",
          "type": "uint256"
        }
      ],
      "name": "completePayStream",
      "outputs": [],
      "stateMutability": "payable",
      "type": "function"
    },
    {
      "inputs": [
        {
          "internalType": "uint256",
          "name": "_amount",
          "type": "uint256"
        },
        {
          "internalType": "string",
          "name": "_detailsURI",
          "type": "string"
        },
        {
          "internalType": "address",
          "name": "payer",
          "type": "address"
        }
      ],
      "name": "createRequest",
      "outputs": [
        {
          "internalType": "uint256",
          "name": "id",
          "type": "uint256"
        }
      ],
      "stateMutability": "nonpayable",
      "type": "function"
    },
    {
      "inputs": [
        {
          "internalType": "uint256",
          "name": "_id",
          "type": "uint256"
        },
        {
          "internalType": "address",
          "name": "_user",
          "type": "address"
        }
      ],
      "name": "getRequest",
      "outputs": [
        {
          "components": [
            {
              "internalType": "address",
              "name": "payer",
              "type": "address"
            },
            {
              "internalType": "uint256",
              "name": "amount",
              "type": "uint256"
            },
            {
              "internalType": "string",
              "name": "detailsURI",
              "type": "string"
            },
            {
              "internalType": "enum paymentRequests.payState",
              "name": "_state",
              "type": "uint8"
            },
            {
              "internalType": "enum paymentRequests.payMode",
              "name": "_mode",
              "type": "uint8"
            }
          ],
          "internalType": "struct paymentRequests.PaymentRequest",
          "name": "",
          "type": "tuple"
        }
      ],
      "stateMutability": "view",
      "type": "function"
    },
    {
      "inputs": [],
      "name": "managerAddress",
      "outputs": [
        {
          "internalType": "address",
          "name": "",
          "type": "address"
        }
      ],
      "stateMutability": "view",
      "type": "function"
    },
    {
      "inputs": [],
      "name": "owner",
      "outputs": [
        {
          "internalType": "address",
          "name": "",
          "type": "address"
        }
      ],
      "stateMutability": "view",
      "type": "function"
    },
    {
      "inputs": [],
      "name": "paymentsAddress",
      "outputs": [
        {
          "internalType": "address",
          "name": "",
          "type": "address"
        }
      ],
      "stateMutability": "view",
      "type": "function"
    },
    {
      "inputs": [],
      "name": "renounceOwnership",
      "outputs": [],
      "stateMutability": "nonpayable",
      "type": "function"
    },
    {
      "inputs": [
        {
          "internalType": "address",
          "name": "",
          "type": "address"
        },
        {
          "internalType": "uint256",
          "name": "",
          "type": "uint256"
        }
      ],
      "name": "requests",
      "outputs": [
        {
          "internalType": "address",
          "name": "payer",
          "type": "address"
        },
        {
          "internalType": "uint256",
          "name": "amount",
          "type": "uint256"
        },
        {
          "internalType": "string",
          "name": "detailsURI",
          "type": "string"
        },
        {
          "internalType": "enum paymentRequests.payState",
          "name": "_state",
          "type": "uint8"
        },
        {
          "internalType": "enum paymentRequests.payMode",
          "name": "_mode",
          "type": "uint8"
        }
      ],
      "stateMutability": "view",
      "type": "function"
    },
    {
      "inputs": [
        {
          "internalType": "address",
          "name": "_managerAddress",
          "type": "address"
        }
      ],
      "name": "setManager",
      "outputs": [],
      "stateMutability": "nonpayable",
      "type": "function"
    },
    {
      "inputs": [
        {
          "internalType": "address",
          "name": "_paymentsAddress",
          "type": "address"
        }
      ],
      "name": "setPayments",
      "outputs": [],
      "stateMutability": "nonpayable",
      "type": "function"
    },
    {
      "inputs": [
        {
          "internalType": "address",
          "name": "",
          "type": "address"
        }
      ],
      "name": "totalRequests",
      "outputs": [
        {
          "internalType": "uint256",
          "name": "",
          "type": "uint256"
        }
      ],
      "stateMutability": "view",
      "type": "function"
    },
    {
      "inputs": [
        {
          "internalType": "address",
          "name": "newOwner",
          "type": "address"
        }
      ],
      "name": "transferOwnership",
      "outputs": [],
      "stateMutability": "nonpayable",
      "type": "function"
    }
  ],
  "bytecode": "0x6080604052600154600280546001600160a01b039283166001600160a01b031991821617909155600354600480549190931691161790553480156200004357600080fd5b506040516200215638038062002156833981016040819052620000669162000142565b6200007133620000f2565b6001600160a01b038116620000cc5760405162461bcd60e51b815260206004820152601360248201527f4e6f7420612076616c6964206164647265737300000000000000000000000000604482015260640160405180910390fd5b600180546001600160a01b0319166001600160a01b039290921691909117905562000174565b600080546001600160a01b038381166001600160a01b0319831681178455604051919092169283917f8be0079c531659141344cd1fd0a4f28419497f9722a3daafe3b4186f6b6457e09190a35050565b6000602082840312156200015557600080fd5b81516001600160a01b03811681146200016d57600080fd5b9392505050565b611fd280620001846000396000f3fe6080604052600436106101095760003560e01c80639ecebe2a11610095578063d0ebdbe711610064578063d0ebdbe7146102ab578063d250a07a146102cb578063d89448ef146102de578063f2fde38b146102f1578063fed650271461031157600080fd5b80639ecebe2a1461021a578063af231a581461024b578063ce9ac84d1461026b578063cf73a1bc1461028b57600080fd5b8063564e593e116100dc578063564e593e1461018957806362b62ec61461019c578063694d0473146101af578063715018a6146101e75780638da5cb5b146101fc57600080fd5b80631805ee4f1461010e57806334777e58146101235780634aeb3560146101635780634f6ac7d914610176575b600080fd5b61012161011c366004611adf565b61033e565b005b34801561012f57600080fd5b5061015061013e366004611b14565b60066020526000908152604090205481565b6040519081526020015b60405180910390f35b610121610171366004611b38565b6105c2565b610121610184366004611adf565b6107dc565b610121610197366004611b38565b610c0a565b6101506101aa366004611b64565b610da3565b3480156101bb57600080fd5b506003546101cf906001600160a01b031681565b6040516001600160a01b03909116815260200161015a565b3480156101f357600080fd5b50610121611038565b34801561020857600080fd5b506000546001600160a01b03166101cf565b34801561022657600080fd5b5061023a610235366004611b38565b61104c565b60405161015a959493929190611c4b565b34801561025757600080fd5b50610121610266366004611b14565b61111e565b34801561027757600080fd5b50610150610286366004611cb2565b611194565b34801561029757600080fd5b506001546101cf906001600160a01b031681565b3480156102b757600080fd5b506101216102c6366004611b14565b611341565b6101216102d9366004611adf565b6113b7565b6101216102ec366004611b38565b61161b565b3480156102fd57600080fd5b5061012161030c366004611b14565b611766565b34801561031d57600080fd5b5061033161032c366004611d7d565b6117df565b60405161015a9190611dad565b6001600160a01b03831661036d5760405162461bcd60e51b815260040161036490611e1a565b60405180910390fd5b6001600160a01b0380841660009081526005602090815260408083208684528252808320815160a08101835281549095168552600181015492850192909252600282018054939493918401916103c290611e47565b80601f01602080910402602001604051908101604052809291908181526020018280546103ee90611e47565b801561043b5780601f106104105761010080835404028352916020019161043b565b820191906000526020600020905b81548152906001019060200180831161041e57829003601f168201915b5050509183525050600382015460209091019060ff16600481111561046257610462611c17565b600481111561047357610473611c17565b81526020016003820160019054906101000a900460ff16600481111561049b5761049b611c17565b60048111156104ac576104ac611c17565b90525090506001816060015160048111156104c9576104c9611c17565b14156104e75760405162461bcd60e51b815260040161036490611e82565b6000816060015160048111156104ff576104ff611c17565b1461051c5760405162461bcd60e51b815260040161036490611ea8565b600480546020830151604051639adfa2d960e01b81526001600160a01b0390921692639adfa2d9926105549233928a92899101611ed2565b6020604051808303816000875af1158015610573573d6000803e3d6000fd5b505050506040513d601f19601f820116820180604052508101906105979190611efb565b50600460608201526080810160035b908160048111156105b9576105b9611c17565b90525050505050565b6001600160a01b0380831660009081526005602090815260408083208584528252808320815160a081018352815490951685526001810154928501929092526002820180549394939184019161061790611e47565b80601f016020809104026020016040519081016040528092919081815260200182805461064390611e47565b80156106905780601f1061066557610100808354040283529160200191610690565b820191906000526020600020905b81548152906001019060200180831161067357829003601f168201915b5050509183525050600382015460209091019060ff1660048111156106b7576106b7611c17565b60048111156106c8576106c8611c17565b81526020016003820160019054906101000a900460ff1660048111156106f0576106f0611c17565b600481111561070157610701611c17565b905250905060025b8160800151600481111561071f5761071f611c17565b146107585760405162461bcd60e51b81526020600482015260096024820152684e6f74206120454d4960b81b6044820152606401610364565b60018160600151600481111561077057610770611c17565b141561078e5760405162461bcd60e51b815260040161036490611e82565b60016060820152805160208201516040517fb65db014b723fadd3247432ed31608af65170037629d00dc6447edf9701d14fb926107cf928792879190611ed2565b60405180910390a1505050565b6001600160a01b0383166108025760405162461bcd60e51b815260040161036490611e1a565b6001600160a01b0380841660009081526005602090815260408083208684528252808320815160a081018352815490951685526001810154928501929092526002820180549394939184019161085790611e47565b80601f016020809104026020016040519081016040528092919081815260200182805461088390611e47565b80156108d05780601f106108a5576101008083540402835291602001916108d0565b820191906000526020600020905b8154815290600101906020018083116108b357829003601f168201915b5050509183525050600382015460209091019060ff1660048111156108f7576108f7611c17565b600481111561090857610908611c17565b81526020016003820160019054906101000a900460ff16600481111561093057610930611c17565b600481111561094157610941611c17565b905250905060018160600151600481111561095e5761095e611c17565b141561097c5760405162461bcd60e51b815260040161036490611e82565b816001148061098b5750816002145b6109cc5760405162461bcd60e51b81526020600482015260126024820152714e6f7420612076616c69642063686f69636560701b6044820152606401610364565b8160011415610b3f5780602001513414610a285760405162461bcd60e51b815260206004820152601e60248201527f54686520616d6f756e742073656e74206973206e6f7420636f727265637400006044820152606401610364565b600254604051630743144960e01b81526001600160a01b0386811660048301526000921690630743144990602401602060405180830381865afa158015610a73573d6000803e3d6000fd5b505050506040513d601f19601f82011682018060405250810190610a979190611f14565b90506000816001600160a01b0316836020015160405160006040518083038185875af1925050503d8060008114610aea576040519150601f19603f3d011682016040523d82523d6000602084013e610aef565b606091505b5050905080610b385760405162461bcd60e51b81526020600482015260156024820152741c995c5d595cdd081b9bdd0818dbdb5c1b195d1959605a1b6044820152606401610364565b5050610bb4565b600480548251602084015160405163165f97a560e01b81526001600160a01b039283169481019490945287821660248501526044840152169063165f97a590606401600060405180830381600087803b158015610b9b57600080fd5b505af1158015610baf573d6000803e3d6000fd5b505050505b6001606082018190526080820152805160208201516040517fb65db014b723fadd3247432ed31608af65170037629d00dc6447edf9701d14fb92610bfc928892889190611ed2565b60405180910390a150505050565b6001600160a01b0380831660009081526005602090815260408083208584528252808320815160a0810183528154909516855260018101549285019290925260028201805493949391840191610c5f90611e47565b80601f0160208091040260200160405190810160405280929190818152602001828054610c8b90611e47565b8015610cd85780601f10610cad57610100808354040283529160200191610cd8565b820191906000526020600020905b815481529060010190602001808311610cbb57829003601f168201915b5050509183525050600382015460209091019060ff166004811115610cff57610cff611c17565b6004811115610d1057610d10611c17565b81526020016003820160019054906101000a900460ff166004811115610d3857610d38611c17565b6004811115610d4957610d49611c17565b9052509050600481608001516004811115610d6657610d66611c17565b146107585760405162461bcd60e51b815260206004820152600d60248201526c02737ba10309039ba3932b0b69609d1b6044820152606401610364565b60006001600160a01b038616610dcb5760405162461bcd60e51b815260040161036490611e1a565b6001600160a01b0380871660009081526005602090815260408083208984528252808320815160a0810183528154909516855260018101549285019290925260028201805493949391840191610e2090611e47565b80601f0160208091040260200160405190810160405280929190818152602001828054610e4c90611e47565b8015610e995780601f10610e6e57610100808354040283529160200191610e99565b820191906000526020600020905b815481529060010190602001808311610e7c57829003601f168201915b5050509183525050600382015460209091019060ff166004811115610ec057610ec0611c17565b6004811115610ed157610ed1611c17565b81526020016003820160019054906101000a900460ff166004811115610ef957610ef9611c17565b6004811115610f0a57610f0a611c17565b9052509050600181606001516004811115610f2757610f27611c17565b1415610f455760405162461bcd60e51b815260040161036490611e82565b600081606001516004811115610f5d57610f5d611c17565b14610f7a5760405162461bcd60e51b815260040161036490611ea8565b600480546020830151604051636bda314560e01b815233938101939093526001600160a01b038a81166024850152604484019190915260648301889052600b87900b608484015285811660a4840152600092911690636bda31459060c4016020604051808303816000875af1158015610ff7573d6000803e3d6000fd5b505050506040513d601f19601f8201168201806040525081019061101b9190611efb565b600360608401526004608090930192909252509695505050505050565b61104061192f565b61104a6000611989565b565b60056020908152600092835260408084209091529082529020805460018201546002830180546001600160a01b0390931693919261108990611e47565b80601f01602080910402602001604051908101604052809291908181526020018280546110b590611e47565b80156111025780601f106110d757610100808354040283529160200191611102565b820191906000526020600020905b8154815290600101906020018083116110e557829003601f168201915b5050506003909301549192505060ff8082169161010090041685565b61112661192f565b6001600160a01b0381166111725760405162461bcd60e51b81526020600482015260136024820152724e6f7420612076616c6964204164647265737360681b6044820152606401610364565b600380546001600160a01b0319166001600160a01b0392909216919091179055565b60008084116111e55760405162461bcd60e51b815260206004820152601f60248201527f416d6f756e742073686f756c642062652067726561746572207468616e2030006044820152606401610364565b33600090815260066020908152604080832054815160a0810183526001600160a01b0387168152928301889052908201869052916060820190815260200160009052336000908152600560209081526040808320858452825291829020835181546001600160a01b0319166001600160a01b0390911617815583820151600182015591830151805161127d92600285019201906119d9565b50606082015160038201805460ff191660018360048111156112a1576112a1611c17565b0217905550608082015160038201805461ff0019166101008360048111156112cb576112cb611c17565b0217905550503360009081526006602052604081208054600193509091906112f4908490611f31565b90915550506040517f0cfc23d3c443a1c4744e779cbf4e4e663e3a31f56bf0d02593f9f049f6eef92e90611331903390869085908a908a90611f57565b60405180910390a1949350505050565b61134961192f565b6001600160a01b0381166113955760405162461bcd60e51b81526020600482015260136024820152724e6f7420612076616c6964204164647265737360681b6044820152606401610364565b600180546001600160a01b0319166001600160a01b0392909216919091179055565b6001600160a01b0383166113dd5760405162461bcd60e51b815260040161036490611e1a565b6001600160a01b0380841660009081526005602090815260408083208684528252808320815160a081018352815490951685526001810154928501929092526002820180549394939184019161143290611e47565b80601f016020809104026020016040519081016040528092919081815260200182805461145e90611e47565b80156114ab5780601f10611480576101008083540402835291602001916114ab565b820191906000526020600020905b81548152906001019060200180831161148e57829003601f168201915b5050509183525050600382015460209091019060ff1660048111156114d2576114d2611c17565b60048111156114e3576114e3611c17565b81526020016003820160019054906101000a900460ff16600481111561150b5761150b611c17565b600481111561151c5761151c611c17565b905250905060018160600151600481111561153957611539611c17565b14156115575760405162461bcd60e51b815260040161036490611e82565b60008160600151600481111561156f5761156f611c17565b1461158c5760405162461bcd60e51b815260040161036490611ea8565b6004805460208301516040516314e5238160e21b81526001600160a01b03909216926353948e04926115c49233928a92899101611ed2565b6020604051808303816000875af11580156115e3573d6000803e3d6000fd5b505050506040513d601f19601f820116820180604052508101906116079190611efb565b5060026060820181905260808201906105a6565b6001600160a01b0380831660009081526005602090815260408083208584528252808320815160a081018352815490951685526001810154928501929092526002820180549394939184019161167090611e47565b80601f016020809104026020016040519081016040528092919081815260200182805461169c90611e47565b80156116e95780601f106116be576101008083540402835291602001916116e9565b820191906000526020600020905b8154815290600101906020018083116116cc57829003601f168201915b5050509183525050600382015460209091019060ff16600481111561171057611710611c17565b600481111561172157611721611c17565b81526020016003820160019054906101000a900460ff16600481111561174957611749611c17565b600481111561175a5761175a611c17565b90525090506003610709565b61176e61192f565b6001600160a01b0381166117d35760405162461bcd60e51b815260206004820152602660248201527f4f776e61626c653a206e6577206f776e657220697320746865207a65726f206160448201526564647265737360d01b6064820152608401610364565b6117dc81611989565b50565b6117e7611a5d565b6001600160a01b038083166000908152600560209081526040808320878452825291829020825160a08101845281549094168452600181015491840191909152600281018054919284019161183b90611e47565b80601f016020809104026020016040519081016040528092919081815260200182805461186790611e47565b80156118b45780601f10611889576101008083540402835291602001916118b4565b820191906000526020600020905b81548152906001019060200180831161189757829003601f168201915b5050509183525050600382015460209091019060ff1660048111156118db576118db611c17565b60048111156118ec576118ec611c17565b81526020016003820160019054906101000a900460ff16600481111561191457611914611c17565b600481111561192557611925611c17565b9052509392505050565b6000546001600160a01b0316331461104a5760405162461bcd60e51b815260206004820181905260248201527f4f776e61626c653a2063616c6c6572206973206e6f7420746865206f776e65726044820152606401610364565b600080546001600160a01b038381166001600160a01b0319831681178455604051919092169283917f8be0079c531659141344cd1fd0a4f28419497f9722a3daafe3b4186f6b6457e09190a35050565b8280546119e590611e47565b90600052602060002090601f016020900481019282611a075760008555611a4d565b82601f10611a2057805160ff1916838001178555611a4d565b82800160010185558215611a4d579182015b82811115611a4d578251825591602001919060010190611a32565b50611a59929150611aa5565b5090565b6040518060a0016040528060006001600160a01b03168152602001600081526020016060815260200160006004811115611a9957611a99611c17565b81526020016000905290565b5b80821115611a595760008155600101611aa6565b6001600160a01b03811681146117dc57600080fd5b8035611ada81611aba565b919050565b600080600060608486031215611af457600080fd5b8335611aff81611aba565b95602085013595506040909401359392505050565b600060208284031215611b2657600080fd5b8135611b3181611aba565b9392505050565b60008060408385031215611b4b57600080fd5b8235611b5681611aba565b946020939093013593505050565b600080600080600060a08688031215611b7c57600080fd5b8535611b8781611aba565b945060208601359350604086013592506060860135600b81900b8114611bac57600080fd5b91506080860135611bbc81611aba565b809150509295509295909350565b6000815180845260005b81811015611bf057602081850181015186830182015201611bd4565b81811115611c02576000602083870101525b50601f01601f19169290920160200192915050565b634e487b7160e01b600052602160045260246000fd5b600581106117dc57634e487b7160e01b600052602160045260246000fd5b60018060a01b038616815284602082015260a060408201526000611c7260a0830186611bca565b9050611c7d84611c2d565b836060830152611c8c83611c2d565b8260808301529695505050505050565b634e487b7160e01b600052604160045260246000fd5b600080600060608486031215611cc757600080fd5b83359250602084013567ffffffffffffffff80821115611ce657600080fd5b818601915086601f830112611cfa57600080fd5b813581811115611d0c57611d0c611c9c565b604051601f8201601f19908116603f01168101908382118183101715611d3457611d34611c9c565b81604052828152896020848701011115611d4d57600080fd5b826020860160208301376000602084830101528096505050505050611d7460408501611acf565b90509250925092565b60008060408385031215611d9057600080fd5b823591506020830135611da281611aba565b809150509250929050565b6020815260018060a01b038251166020820152602082015160408201526000604083015160a06060840152611de560c0840182611bca565b90506060840151611df581611c2d565b806080850152506080840151611e0a81611c2d565b60a0939093019290925250919050565b6020808252601390820152724e6f7420612076616c6964206164647265737360681b604082015260600190565b600181811c90821680611e5b57607f821691505b60208210811415611e7c57634e487b7160e01b600052602260045260246000fd5b50919050565b6020808252600c908201526b105b1c9958591e4814185a5960a21b604082015260600190565b60208082526010908201526f139bdd081e595d081a5b9d1a585d195960821b604082015260600190565b6001600160a01b0394851681529290931660208301526040820152606081019190915260800190565b600060208284031215611f0d57600080fd5b5051919050565b600060208284031215611f2657600080fd5b8151611b3181611aba565b60008219821115611f5257634e487b7160e01b600052601160045260246000fd5b500190565b6001600160a01b03868116825285166020820152604081018490526060810183905260a060808201819052600090611f9190830184611bca565b97965050505050505056fea26469706673582212205d4df4b21390b951f03c63dec5c114928532953582e9cb695c1612e96be49ad464736f6c634300080a0033",
  "linkReferences": {},
  "deployedLinkReferences": {}
}