{
  "_format": "hh-sol-artifact-1",
  "contractName": "gcCollection",
  "sourceName": "contracts/gcCollection.sol",
  "abi": [
    {
      "inputs": [],
      "stateMutability": "nonpayable",
      "type": "constructor"
    },
    {
      "anonymous": false,
      "inputs": [
        {
          "indexed": true,
          "internalType": "address",
          "name": "owner",
          "type": "address"
        },
        {
          "indexed": true,
          "internalType": "address",
          "name": "approved",
          "type": "address"
        },
        {
          "indexed": true,
          "internalType": "uint256",
          "name": "tokenId",
          "type": "uint256"
        }
      ],
      "name": "Approval",
      "type": "event"
    },
    {
      "anonymous": false,
      "inputs": [
        {
          "indexed": true,
          "internalType": "address",
          "name": "owner",
          "type": "address"
        },
        {
          "indexed": true,
          "internalType": "address",
          "name": "operator",
          "type": "address"
        },
        {
          "indexed": false,
          "internalType": "bool",
          "name": "approved",
          "type": "bool"
        }
      ],
      "name": "ApprovalForAll",
      "type": "event"
    },
    {
      "anonymous": false,
      "inputs": [
        {
          "indexed": true,
          "internalType": "address",
          "name": "previousOwner",
          "type": "address"
        },
        {
          "indexed": true,
          "internalType": "address",
          "name": "newOwner",
          "type": "address"
        }
      ],
      "name": "OwnershipTransferred",
      "type": "event"
    },
    {
      "anonymous": false,
      "inputs": [
        {
          "indexed": true,
          "internalType": "address",
          "name": "from",
          "type": "address"
        },
        {
          "indexed": true,
          "internalType": "address",
          "name": "to",
          "type": "address"
        },
        {
          "indexed": true,
          "internalType": "uint256",
          "name": "tokenId",
          "type": "uint256"
        }
      ],
      "name": "Transfer",
      "type": "event"
    },
    {
      "inputs": [],
      "name": "_creator",
      "outputs": [
        {
          "internalType": "address",
          "name": "",
          "type": "address"
        }
      ],
      "stateMutability": "view",
      "type": "function"
    },
    {
      "inputs": [
        {
          "internalType": "address",
          "name": "to",
          "type": "address"
        },
        {
          "internalType": "uint256",
          "name": "tokenId",
          "type": "uint256"
        }
      ],
      "name": "approve",
      "outputs": [],
      "stateMutability": "nonpayable",
      "type": "function"
    },
    {
      "inputs": [
        {
          "internalType": "address",
          "name": "owner",
          "type": "address"
        }
      ],
      "name": "balanceOf",
      "outputs": [
        {
          "internalType": "uint256",
          "name": "",
          "type": "uint256"
        }
      ],
      "stateMutability": "view",
      "type": "function"
    },
    {
      "inputs": [
        {
          "internalType": "address",
          "name": "_newCreator",
          "type": "address"
        }
      ],
      "name": "changeCreator",
      "outputs": [],
      "stateMutability": "nonpayable",
      "type": "function"
    },
    {
      "inputs": [
        {
          "internalType": "uint256",
          "name": "tokenId",
          "type": "uint256"
        }
      ],
      "name": "getApproved",
      "outputs": [
        {
          "internalType": "address",
          "name": "",
          "type": "address"
        }
      ],
      "stateMutability": "view",
      "type": "function"
    },
    {
      "inputs": [
        {
          "internalType": "address",
          "name": "owner",
          "type": "address"
        },
        {
          "internalType": "address",
          "name": "operator",
          "type": "address"
        }
      ],
      "name": "isApprovedForAll",
      "outputs": [
        {
          "internalType": "bool",
          "name": "",
          "type": "bool"
        }
      ],
      "stateMutability": "view",
      "type": "function"
    },
    {
      "inputs": [],
      "name": "name",
      "outputs": [
        {
          "internalType": "string",
          "name": "",
          "type": "string"
        }
      ],
      "stateMutability": "view",
      "type": "function"
    },
    {
      "inputs": [],
      "name": "owner",
      "outputs": [
        {
          "internalType": "address",
          "name": "",
          "type": "address"
        }
      ],
      "stateMutability": "view",
      "type": "function"
    },
    {
      "inputs": [
        {
          "internalType": "uint256",
          "name": "tokenId",
          "type": "uint256"
        }
      ],
      "name": "ownerOf",
      "outputs": [
        {
          "internalType": "address",
          "name": "",
          "type": "address"
        }
      ],
      "stateMutability": "view",
      "type": "function"
    },
    {
      "inputs": [],
      "name": "renounceOwnership",
      "outputs": [],
      "stateMutability": "nonpayable",
      "type": "function"
    },
    {
      "inputs": [
        {
          "internalType": "address",
          "name": "to",
          "type": "address"
        },
        {
          "internalType": "uint256",
          "name": "tokenId",
          "type": "uint256"
        },
        {
          "internalType": "string",
          "name": "uri",
          "type": "string"
        }
      ],
      "name": "safeMint",
      "outputs": [],
      "stateMutability": "nonpayable",
      "type": "function"
    },
    {
      "inputs": [
        {
          "internalType": "address",
          "name": "from",
          "type": "address"
        },
        {
          "internalType": "address",
          "name": "to",
          "type": "address"
        },
        {
          "internalType": "uint256",
          "name": "tokenId",
          "type": "uint256"
        }
      ],
      "name": "safeTransferFrom",
      "outputs": [],
      "stateMutability": "nonpayable",
      "type": "function"
    },
    {
      "inputs": [
        {
          "internalType": "address",
          "name": "from",
          "type": "address"
        },
        {
          "internalType": "address",
          "name": "to",
          "type": "address"
        },
        {
          "internalType": "uint256",
          "name": "tokenId",
          "type": "uint256"
        },
        {
          "internalType": "bytes",
          "name": "data",
          "type": "bytes"
        }
      ],
      "name": "safeTransferFrom",
      "outputs": [],
      "stateMutability": "nonpayable",
      "type": "function"
    },
    {
      "inputs": [
        {
          "internalType": "address",
          "name": "operator",
          "type": "address"
        },
        {
          "internalType": "bool",
          "name": "approved",
          "type": "bool"
        }
      ],
      "name": "setApprovalForAll",
      "outputs": [],
      "stateMutability": "nonpayable",
      "type": "function"
    },
    {
      "inputs": [
        {
          "internalType": "bytes4",
          "name": "interfaceId",
          "type": "bytes4"
        }
      ],
      "name": "supportsInterface",
      "outputs": [
        {
          "internalType": "bool",
          "name": "",
          "type": "bool"
        }
      ],
      "stateMutability": "view",
      "type": "function"
    },
    {
      "inputs": [],
      "name": "symbol",
      "outputs": [
        {
          "internalType": "string",
          "name": "",
          "type": "string"
        }
      ],
      "stateMutability": "view",
      "type": "function"
    },
    {
      "inputs": [
        {
          "internalType": "uint256",
          "name": "tokenId",
          "type": "uint256"
        }
      ],
      "name": "tokenURI",
      "outputs": [
        {
          "internalType": "string",
          "name": "",
          "type": "string"
        }
      ],
      "stateMutability": "view",
      "type": "function"
    },
    {
      "inputs": [
        {
          "internalType": "address",
          "name": "from",
          "type": "address"
        },
        {
          "internalType": "address",
          "name": "to",
          "type": "address"
        },
        {
          "internalType": "uint256",
          "name": "tokenId",
          "type": "uint256"
        }
      ],
      "name": "transferFrom",
      "outputs": [],
      "stateMutability": "nonpayable",
      "type": "function"
    },
    {
      "inputs": [
        {
          "internalType": "address",
          "name": "newOwner",
          "type": "address"
        }
      ],
      "name": "transferOwnership",
      "outputs": [],
      "stateMutability": "nonpayable",
      "type": "function"
    }
  ],
  "bytecode": "0x60806040523480156200001157600080fd5b506040805180820182526011815270537769667446692047696674436172647360781b60208083019182528351808501909452600984526853776966744669676360b81b9084015281519192916200006c91600091620000fb565b50805162000082906001906020840190620000fb565b5050506200009f62000099620000a560201b60201c565b620000a9565b620001de565b3390565b600780546001600160a01b038381166001600160a01b0319831681179093556040519116919082907f8be0079c531659141344cd1fd0a4f28419497f9722a3daafe3b4186f6b6457e090600090a35050565b8280546200010990620001a1565b90600052602060002090601f0160209004810192826200012d576000855562000178565b82601f106200014857805160ff191683800117855562000178565b8280016001018555821562000178579182015b82811115620001785782518255916020019190600101906200015b565b50620001869291506200018a565b5090565b5b808211156200018657600081556001016200018b565b600181811c90821680620001b657607f821691505b60208210811415620001d857634e487b7160e01b600052602260045260246000fd5b50919050565b6119a680620001ee6000396000f3fe608060405234801561001057600080fd5b50600436106101215760003560e01c806374580e2f116100ad578063bc8bde6411610071578063bc8bde6414610257578063c87b56dd1461026a578063cd279c7c1461027d578063e985e9c514610290578063f2fde38b146102cc57600080fd5b806374580e2f146102055780638da5cb5b1461021857806395d89b4114610229578063a22cb46514610231578063b88d4fde1461024457600080fd5b806323b872dd116100f457806323b872dd146101a357806342842e0e146101b65780636352211e146101c957806370a08231146101dc578063715018a6146101fd57600080fd5b806301ffc9a71461012657806306fdde031461014e578063081812fc14610163578063095ea7b31461018e575b600080fd5b610139610134366004611463565b6102df565b60405190151581526020015b60405180910390f35b610156610331565b60405161014591906114d8565b6101766101713660046114eb565b6103c3565b6040516001600160a01b039091168152602001610145565b6101a161019c366004611520565b6103ea565b005b6101a16101b136600461154a565b610505565b6101a16101c436600461154a565b610536565b6101766101d73660046114eb565b610551565b6101ef6101ea366004611586565b6105b1565b604051908152602001610145565b6101a1610637565b6101a1610213366004611586565b61064b565b6007546001600160a01b0316610176565b6101566106c2565b6101a161023f3660046115a1565b6106d1565b6101a1610252366004611669565b6106e0565b600854610176906001600160a01b031681565b6101566102783660046114eb565b610718565b6101a161028b3660046116e5565b610723565b61013961029e366004611750565b6001600160a01b03918216600090815260056020908152604080832093909416825291909152205460ff1690565b6101a16102da366004611586565b6107d8565b60006001600160e01b031982166380ac58cd60e01b148061031057506001600160e01b03198216635b5e139f60e01b145b8061032b57506301ffc9a760e01b6001600160e01b03198316145b92915050565b60606000805461034090611783565b80601f016020809104026020016040519081016040528092919081815260200182805461036c90611783565b80156103b95780601f1061038e576101008083540402835291602001916103b9565b820191906000526020600020905b81548152906001019060200180831161039c57829003601f168201915b5050505050905090565b60006103ce82610851565b506000908152600460205260409020546001600160a01b031690565b60006103f582610551565b9050806001600160a01b0316836001600160a01b031614156104685760405162461bcd60e51b815260206004820152602160248201527f4552433732313a20617070726f76616c20746f2063757272656e74206f776e656044820152603960f91b60648201526084015b60405180910390fd5b336001600160a01b03821614806104845750610484813361029e565b6104f65760405162461bcd60e51b815260206004820152603d60248201527f4552433732313a20617070726f76652063616c6c6572206973206e6f7420746f60448201527f6b656e206f776e6572206f7220617070726f76656420666f7220616c6c000000606482015260840161045f565b61050083836108b0565b505050565b61050f338261091e565b61052b5760405162461bcd60e51b815260040161045f906117be565b61050083838361099d565b610500838383604051806020016040528060008152506106e0565b6000818152600260205260408120546001600160a01b03168061032b5760405162461bcd60e51b8152602060048201526018602482015277115490cdcc8c4e881a5b9d985b1a59081d1bdad95b88125160421b604482015260640161045f565b60006001600160a01b03821661061b5760405162461bcd60e51b815260206004820152602960248201527f4552433732313a2061646472657373207a65726f206973206e6f7420612076616044820152683634b21037bbb732b960b91b606482015260840161045f565b506001600160a01b031660009081526003602052604090205490565b61063f610b0e565b6106496000610b68565b565b610653610b0e565b6001600160a01b0381166106a05760405162461bcd60e51b81526020600482015260146024820152736e6f7420612076616c696420616464726573737360601b604482015260640161045f565b600880546001600160a01b0319166001600160a01b0392909216919091179055565b60606001805461034090611783565b6106dc338383610bba565b5050565b6106ea338361091e565b6107065760405162461bcd60e51b815260040161045f906117be565b61071284848484610c89565b50505050565b606061032b82610cbc565b6008546001600160a01b031661077b5760405162461bcd60e51b815260206004820152601960248201527f43726561746f7220636f6e7472616374206e6f74207365742000000000000000604482015260640161045f565b6008546001600160a01b031633146107c45760405162461bcd60e51b815260206004820152600c60248201526b155b985d1a1bdd5c9a5e995960a21b604482015260640161045f565b6107ce8383610dc5565b6105008282610ddf565b6107e0610b0e565b6001600160a01b0381166108455760405162461bcd60e51b815260206004820152602660248201527f4f776e61626c653a206e6577206f776e657220697320746865207a65726f206160448201526564647265737360d01b606482015260840161045f565b61084e81610b68565b50565b6000818152600260205260409020546001600160a01b031661084e5760405162461bcd60e51b8152602060048201526018602482015277115490cdcc8c4e881a5b9d985b1a59081d1bdad95b88125160421b604482015260640161045f565b600081815260046020526040902080546001600160a01b0319166001600160a01b03841690811790915581906108e582610551565b6001600160a01b03167f8c5be1e5ebec7d5bd14f71427d1e84f3dd0314c0f7b2291e5b200ac8c7c3b92560405160405180910390a45050565b60008061092a83610551565b9050806001600160a01b0316846001600160a01b0316148061097157506001600160a01b0380821660009081526005602090815260408083209388168352929052205460ff165b806109955750836001600160a01b031661098a846103c3565b6001600160a01b0316145b949350505050565b826001600160a01b03166109b082610551565b6001600160a01b0316146109d65760405162461bcd60e51b815260040161045f9061180b565b6001600160a01b038216610a385760405162461bcd60e51b8152602060048201526024808201527f4552433732313a207472616e7366657220746f20746865207a65726f206164646044820152637265737360e01b606482015260840161045f565b610a458383836001610e79565b826001600160a01b0316610a5882610551565b6001600160a01b031614610a7e5760405162461bcd60e51b815260040161045f9061180b565b600081815260046020908152604080832080546001600160a01b03199081169091556001600160a01b0387811680865260038552838620805460001901905590871680865283862080546001019055868652600290945282852080549092168417909155905184937fddf252ad1be2c89b69c2b068fc378daa952ba7f163c4a11628f55a4df523b3ef91a4505050565b6007546001600160a01b031633146106495760405162461bcd60e51b815260206004820181905260248201527f4f776e61626c653a2063616c6c6572206973206e6f7420746865206f776e6572604482015260640161045f565b600780546001600160a01b038381166001600160a01b0319831681179093556040519116919082907f8be0079c531659141344cd1fd0a4f28419497f9722a3daafe3b4186f6b6457e090600090a35050565b816001600160a01b0316836001600160a01b03161415610c1c5760405162461bcd60e51b815260206004820152601960248201527f4552433732313a20617070726f766520746f2063616c6c657200000000000000604482015260640161045f565b6001600160a01b03838116600081815260056020908152604080832094871680845294825291829020805460ff191686151590811790915591519182527f17307eab39ab6107e8899845ad3d59bd9653f200f220920489ca2b5937696c31910160405180910390a3505050565b610c9484848461099d565b610ca084848484610f01565b6107125760405162461bcd60e51b815260040161045f90611850565b6060610cc782610851565b60008281526006602052604081208054610ce090611783565b80601f0160208091040260200160405190810160405280929190818152602001828054610d0c90611783565b8015610d595780601f10610d2e57610100808354040283529160200191610d59565b820191906000526020600020905b815481529060010190602001808311610d3c57829003601f168201915b505050505090506000610d7760408051602081019091526000815290565b9050805160001415610d8a575092915050565b815115610dbc578082604051602001610da49291906118a2565b60405160208183030381529060405292505050919050565b61099584610fff565b6106dc828260405180602001604052806000815250611073565b6000828152600260205260409020546001600160a01b0316610e5a5760405162461bcd60e51b815260206004820152602e60248201527f45524337323155524953746f726167653a2055524920736574206f66206e6f6e60448201526d32bc34b9ba32b73a103a37b5b2b760911b606482015260840161045f565b60008281526006602090815260409091208251610500928401906113b4565b6001811115610712576001600160a01b03841615610ebf576001600160a01b03841660009081526003602052604081208054839290610eb99084906118e7565b90915550505b6001600160a01b03831615610712576001600160a01b03831660009081526003602052604081208054839290610ef69084906118fe565b909155505050505050565b60006001600160a01b0384163b15610ff457604051630a85bd0160e11b81526001600160a01b0385169063150b7a0290610f45903390899088908890600401611916565b6020604051808303816000875af1925050508015610f80575060408051601f3d908101601f19168201909252610f7d91810190611953565b60015b610fda573d808015610fae576040519150601f19603f3d011682016040523d82523d6000602084013e610fb3565b606091505b508051610fd25760405162461bcd60e51b815260040161045f90611850565b805181602001fd5b6001600160e01b031916630a85bd0160e11b149050610995565b506001949350505050565b606061100a82610851565b600061102160408051602081019091526000815290565b90506000815111611041576040518060200160405280600081525061106c565b8061104b846110a6565b60405160200161105c9291906118a2565b6040516020818303038152906040525b9392505050565b61107d8383611143565b61108a6000848484610f01565b6105005760405162461bcd60e51b815260040161045f90611850565b606060006110b3836112dc565b600101905060008167ffffffffffffffff8111156110d3576110d36115dd565b6040519080825280601f01601f1916602001820160405280156110fd576020820181803683370190505b5090508181016020015b600019016f181899199a1a9b1b9c1cb0b131b232b360811b600a86061a8153600a85049450846111365761113b565b611107565b509392505050565b6001600160a01b0382166111995760405162461bcd60e51b815260206004820181905260248201527f4552433732313a206d696e7420746f20746865207a65726f2061646472657373604482015260640161045f565b6000818152600260205260409020546001600160a01b0316156111fe5760405162461bcd60e51b815260206004820152601c60248201527f4552433732313a20746f6b656e20616c7265616479206d696e74656400000000604482015260640161045f565b61120c600083836001610e79565b6000818152600260205260409020546001600160a01b0316156112715760405162461bcd60e51b815260206004820152601c60248201527f4552433732313a20746f6b656e20616c7265616479206d696e74656400000000604482015260640161045f565b6001600160a01b038216600081815260036020908152604080832080546001019055848352600290915280822080546001600160a01b0319168417905551839291907fddf252ad1be2c89b69c2b068fc378daa952ba7f163c4a11628f55a4df523b3ef908290a45050565b60008072184f03e93ff9f4daa797ed6e38ed64bf6a1f0160401b831061131b5772184f03e93ff9f4daa797ed6e38ed64bf6a1f0160401b830492506040015b6d04ee2d6d415b85acef81000000008310611347576d04ee2d6d415b85acef8100000000830492506020015b662386f26fc10000831061136557662386f26fc10000830492506010015b6305f5e100831061137d576305f5e100830492506008015b612710831061139157612710830492506004015b606483106113a3576064830492506002015b600a831061032b5760010192915050565b8280546113c090611783565b90600052602060002090601f0160209004810192826113e25760008555611428565b82601f106113fb57805160ff1916838001178555611428565b82800160010185558215611428579182015b8281111561142857825182559160200191906001019061140d565b50611434929150611438565b5090565b5b808211156114345760008155600101611439565b6001600160e01b03198116811461084e57600080fd5b60006020828403121561147557600080fd5b813561106c8161144d565b60005b8381101561149b578181015183820152602001611483565b838111156107125750506000910152565b600081518084526114c4816020860160208601611480565b601f01601f19169290920160200192915050565b60208152600061106c60208301846114ac565b6000602082840312156114fd57600080fd5b5035919050565b80356001600160a01b038116811461151b57600080fd5b919050565b6000806040838503121561153357600080fd5b61153c83611504565b946020939093013593505050565b60008060006060848603121561155f57600080fd5b61156884611504565b925061157660208501611504565b9150604084013590509250925092565b60006020828403121561159857600080fd5b61106c82611504565b600080604083850312156115b457600080fd5b6115bd83611504565b9150602083013580151581146115d257600080fd5b809150509250929050565b634e487b7160e01b600052604160045260246000fd5b600067ffffffffffffffff8084111561160e5761160e6115dd565b604051601f8501601f19908116603f01168101908282118183101715611636576116366115dd565b8160405280935085815286868601111561164f57600080fd5b858560208301376000602087830101525050509392505050565b6000806000806080858703121561167f57600080fd5b61168885611504565b935061169660208601611504565b925060408501359150606085013567ffffffffffffffff8111156116b957600080fd5b8501601f810187136116ca57600080fd5b6116d9878235602084016115f3565b91505092959194509250565b6000806000606084860312156116fa57600080fd5b61170384611504565b925060208401359150604084013567ffffffffffffffff81111561172657600080fd5b8401601f8101861361173757600080fd5b611746868235602084016115f3565b9150509250925092565b6000806040838503121561176357600080fd5b61176c83611504565b915061177a60208401611504565b90509250929050565b600181811c9082168061179757607f821691505b602082108114156117b857634e487b7160e01b600052602260045260246000fd5b50919050565b6020808252602d908201527f4552433732313a2063616c6c6572206973206e6f7420746f6b656e206f776e6560408201526c1c881bdc88185c1c1c9bdd9959609a1b606082015260800190565b60208082526025908201527f4552433732313a207472616e736665722066726f6d20696e636f72726563742060408201526437bbb732b960d91b606082015260800190565b60208082526032908201527f4552433732313a207472616e7366657220746f206e6f6e20455243373231526560408201527131b2b4bb32b91034b6b83632b6b2b73a32b960711b606082015260800190565b600083516118b4818460208801611480565b8351908301906118c8818360208801611480565b01949350505050565b634e487b7160e01b600052601160045260246000fd5b6000828210156118f9576118f96118d1565b500390565b60008219821115611911576119116118d1565b500190565b6001600160a01b0385811682528416602082015260408101839052608060608201819052600090611949908301846114ac565b9695505050505050565b60006020828403121561196557600080fd5b815161106c8161144d56fea2646970667358221220508d4e26943a87e6cf991d7c6521f8a3675f09af0d3441b0c1564dd8ab94e85164736f6c634300080a0033",
  "linkReferences": {},
  "deployedLinkReferences": {}
}