{
  "_format": "hh-sol-artifact-1",
  "contractName": "profileWallet",
  "sourceName": "contracts/profileWallet.sol",
  "abi": [
    {
      "inputs": [
        {
          "internalType": "address",
          "name": "_owner",
          "type": "address"
        }
      ],
      "stateMutability": "nonpayable",
      "type": "constructor"
    },
    {
      "anonymous": false,
      "inputs": [
        {
          "indexed": true,
          "internalType": "address",
          "name": "previousOwner",
          "type": "address"
        },
        {
          "indexed": true,
          "internalType": "address",
          "name": "newOwner",
          "type": "address"
        }
      ],
      "name": "OwnershipTransferred",
      "type": "event"
    },
    {
      "anonymous": false,
      "inputs": [
        {
          "indexed": false,
          "internalType": "address",
          "name": "user",
          "type": "address"
        },
        {
          "indexed": false,
          "internalType": "uint256",
          "name": "amount",
          "type": "uint256"
        }
      ],
      "name": "received",
      "type": "event"
    },
    {
      "anonymous": false,
      "inputs": [
        {
          "indexed": false,
          "internalType": "address",
          "name": "user",
          "type": "address"
        },
        {
          "indexed": false,
          "internalType": "uint256",
          "name": "amount",
          "type": "uint256"
        }
      ],
      "name": "withdrawal",
      "type": "event"
    },
    {
      "stateMutability": "payable",
      "type": "fallback"
    },
    {
      "inputs": [],
      "name": "EMIamountPerMonth",
      "outputs": [
        {
          "internalType": "uint256",
          "name": "",
          "type": "uint256"
        }
      ],
      "stateMutability": "view",
      "type": "function"
    },
    {
      "inputs": [
        {
          "internalType": "uint256",
          "name": "_amount",
          "type": "uint256"
        }
      ],
      "name": "UnblockAmount",
      "outputs": [],
      "stateMutability": "nonpayable",
      "type": "function"
    },
    {
      "inputs": [
        {
          "internalType": "address",
          "name": "_contractAddress",
          "type": "address"
        },
        {
          "internalType": "uint256",
          "name": "_amount",
          "type": "uint256"
        }
      ],
      "name": "allowBlocking",
      "outputs": [],
      "stateMutability": "nonpayable",
      "type": "function"
    },
    {
      "inputs": [
        {
          "internalType": "uint256",
          "name": "_amount",
          "type": "uint256"
        }
      ],
      "name": "blockAmount",
      "outputs": [],
      "stateMutability": "nonpayable",
      "type": "function"
    },
    {
      "inputs": [],
      "name": "blockedAmount",
      "outputs": [
        {
          "internalType": "uint256",
          "name": "",
          "type": "uint256"
        }
      ],
      "stateMutability": "view",
      "type": "function"
    },
    {
      "inputs": [
        {
          "internalType": "uint256",
          "name": "emiID",
          "type": "uint256"
        },
        {
          "internalType": "uint256",
          "name": "_totalAmount",
          "type": "uint256"
        },
        {
          "internalType": "uint256",
          "name": "tenure",
          "type": "uint256"
        }
      ],
      "name": "completeEMI",
      "outputs": [],
      "stateMutability": "nonpayable",
      "type": "function"
    },
    {
      "inputs": [
        {
          "internalType": "uint256",
          "name": "plID",
          "type": "uint256"
        },
        {
          "internalType": "uint256",
          "name": "_totalAmount",
          "type": "uint256"
        },
        {
          "internalType": "address",
          "name": "_receiver",
          "type": "address"
        }
      ],
      "name": "completePayLater",
      "outputs": [],
      "stateMutability": "nonpayable",
      "type": "function"
    },
    {
      "inputs": [
        {
          "internalType": "uint256",
          "name": "emiID",
          "type": "uint256"
        },
        {
          "internalType": "uint256",
          "name": "_totalAmount",
          "type": "uint256"
        },
        {
          "internalType": "uint256",
          "name": "tenure",
          "type": "uint256"
        }
      ],
      "name": "createEMI",
      "outputs": [],
      "stateMutability": "nonpayable",
      "type": "function"
    },
    {
      "inputs": [
        {
          "internalType": "uint256",
          "name": "plID",
          "type": "uint256"
        },
        {
          "internalType": "uint256",
          "name": "_totalAmount",
          "type": "uint256"
        }
      ],
      "name": "createPayLater",
      "outputs": [],
      "stateMutability": "nonpayable",
      "type": "function"
    },
    {
      "inputs": [],
      "name": "deposit",
      "outputs": [],
      "stateMutability": "payable",
      "type": "function"
    },
    {
      "inputs": [
        {
          "internalType": "address",
          "name": "_token",
          "type": "address"
        },
        {
          "internalType": "uint256",
          "name": "_amount",
          "type": "uint256"
        }
      ],
      "name": "depositToken",
      "outputs": [],
      "stateMutability": "nonpayable",
      "type": "function"
    },
    {
      "inputs": [],
      "name": "developer",
      "outputs": [
        {
          "internalType": "address",
          "name": "",
          "type": "address"
        }
      ],
      "stateMutability": "view",
      "type": "function"
    },
    {
      "inputs": [],
      "name": "getBalance",
      "outputs": [
        {
          "internalType": "uint256",
          "name": "",
          "type": "uint256"
        }
      ],
      "stateMutability": "view",
      "type": "function"
    },
    {
      "inputs": [],
      "name": "interestFreePeriod",
      "outputs": [
        {
          "internalType": "uint256",
          "name": "",
          "type": "uint256"
        }
      ],
      "stateMutability": "view",
      "type": "function"
    },
    {
      "inputs": [],
      "name": "interestRatePerMonth",
      "outputs": [
        {
          "internalType": "uint256",
          "name": "",
          "type": "uint256"
        }
      ],
      "stateMutability": "view",
      "type": "function"
    },
    {
      "inputs": [
        {
          "internalType": "address",
          "name": "",
          "type": "address"
        },
        {
          "internalType": "address",
          "name": "",
          "type": "address"
        },
        {
          "internalType": "uint256",
          "name": "",
          "type": "uint256"
        },
        {
          "internalType": "bytes",
          "name": "",
          "type": "bytes"
        }
      ],
      "name": "onERC721Received",
      "outputs": [
        {
          "internalType": "bytes4",
          "name": "",
          "type": "bytes4"
        }
      ],
      "stateMutability": "nonpayable",
      "type": "function"
    },
    {
      "inputs": [],
      "name": "owner",
      "outputs": [
        {
          "internalType": "address",
          "name": "",
          "type": "address"
        }
      ],
      "stateMutability": "view",
      "type": "function"
    },
    {
      "inputs": [],
      "name": "pauseContract",
      "outputs": [],
      "stateMutability": "nonpayable",
      "type": "function"
    },
    {
      "inputs": [
        {
          "internalType": "address",
          "name": "_reciever",
          "type": "address"
        },
        {
          "internalType": "uint256",
          "name": "_amount",
          "type": "uint256"
        }
      ],
      "name": "pay",
      "outputs": [],
      "stateMutability": "nonpayable",
      "type": "function"
    },
    {
      "inputs": [
        {
          "internalType": "uint256",
          "name": "emiID",
          "type": "uint256"
        },
        {
          "internalType": "address",
          "name": "reciever",
          "type": "address"
        }
      ],
      "name": "payEMI",
      "outputs": [],
      "stateMutability": "nonpayable",
      "type": "function"
    },
    {
      "inputs": [
        {
          "internalType": "address",
          "name": "token",
          "type": "address"
        },
        {
          "internalType": "address",
          "name": "reciever",
          "type": "address"
        },
        {
          "internalType": "uint256",
          "name": "_amount",
          "type": "uint256"
        }
      ],
      "name": "payinToken",
      "outputs": [],
      "stateMutability": "nonpayable",
      "type": "function"
    },
    {
      "inputs": [],
      "name": "payments",
      "outputs": [
        {
          "internalType": "address",
          "name": "",
          "type": "address"
        }
      ],
      "stateMutability": "view",
      "type": "function"
    },
    {
      "inputs": [],
      "name": "reedemableBalance",
      "outputs": [
        {
          "internalType": "uint256",
          "name": "",
          "type": "uint256"
        }
      ],
      "stateMutability": "view",
      "type": "function"
    },
    {
      "inputs": [],
      "name": "renounceOwnership",
      "outputs": [],
      "stateMutability": "nonpayable",
      "type": "function"
    },
    {
      "inputs": [
        {
          "internalType": "address",
          "name": "_payments",
          "type": "address"
        }
      ],
      "name": "setPayment",
      "outputs": [],
      "stateMutability": "nonpayable",
      "type": "function"
    },
    {
      "inputs": [],
      "name": "totalBalance",
      "outputs": [
        {
          "internalType": "uint256",
          "name": "",
          "type": "uint256"
        }
      ],
      "stateMutability": "view",
      "type": "function"
    },
    {
      "inputs": [
        {
          "internalType": "address",
          "name": "newOwner",
          "type": "address"
        }
      ],
      "name": "transferOwnership",
      "outputs": [],
      "stateMutability": "nonpayable",
      "type": "function"
    },
    {
      "inputs": [
        {
          "internalType": "address payable",
          "name": "_to",
          "type": "address"
        },
        {
          "internalType": "uint256",
          "name": "_amount",
          "type": "uint256"
        }
      ],
      "name": "withdrawEthTo",
      "outputs": [
        {
          "internalType": "bool",
          "name": "",
          "type": "bool"
        }
      ],
      "stateMutability": "nonpayable",
      "type": "function"
    },
    {
      "inputs": [
        {
          "internalType": "address",
          "name": "token",
          "type": "address"
        },
        {
          "internalType": "address payable",
          "name": "_to",
          "type": "address"
        },
        {
          "internalType": "uint256",
          "name": "_amount",
          "type": "uint256"
        }
      ],
      "name": "withdrawTokens",
      "outputs": [
        {
          "internalType": "bool",
          "name": "",
          "type": "bool"
        }
      ],
      "stateMutability": "nonpayable",
      "type": "function"
    },
    {
      "stateMutability": "payable",
      "type": "receive"
    }
  ],
  "bytecode": "0x60806040526000600255476003556002546003546200001f9190620001a5565b60045560006005553480156200003457600080fd5b5060405162001900380380620019008339810160408190526200005791620001cb565b620000623362000074565b6200006d81620000c4565b50620001fd565b600080546001600160a01b038381166001600160a01b0319831681178455604051919092169283917f8be0079c531659141344cd1fd0a4f28419497f9722a3daafe3b4186f6b6457e09190a35050565b620000ce62000147565b6001600160a01b038116620001395760405162461bcd60e51b815260206004820152602660248201527f4f776e61626c653a206e6577206f776e657220697320746865207a65726f206160448201526564647265737360d01b60648201526084015b60405180910390fd5b620001448162000074565b50565b6000546001600160a01b03163314620001a35760405162461bcd60e51b815260206004820181905260248201527f4f776e61626c653a2063616c6c6572206973206e6f7420746865206f776e6572604482015260640162000130565b565b600082821015620001c657634e487b7160e01b600052601160045260246000fd5b500390565b600060208284031215620001de57600080fd5b81516001600160a01b0381168114620001f657600080fd5b9392505050565b6116f3806200020d6000396000f3fe6080604052600436106101ae5760003560e01c8063715018a6116100eb578063c33af2501161008f578063d0e30db011610061578063d0e30db014610540578063f0da26cb14610548578063f2fde38b14610568578063f430bbff1461058857005b8063c33af250146104b8578063c4076876146104d8578063ca4b208b146104f8578063ca966f4b1461052057005b80639ab06fcb116100c85780639ab06fcb1461044d578063a0af39fc1461046d578063a6d23e1014610482578063ad7a672f146104a257005b8063715018a6146103e65780638da5cb5b146103fb578063927720471461042d57005b80634b2a7b7d116101525780635e35359e1161012f5780635e35359e1461036a5780636457d0b21461039a57806367da54ab146103b05780636b4943a7146103d057005b80634b2a7b7d1461031d5780634bef84e71461033357806355eb3e341461035357005b806317a7bd671161018b57806317a7bd67146102a8578063338b5dea146102c8578063369a28be146102e8578063439766ce1461030857005b806312065fe014610222578063141e1a1b14610244578063150b7a021461026457005b3661022057600154600160a01b900460ff16156101e65760405162461bcd60e51b81526004016101dd90611288565b60405180910390fd5b604080513381523460208201527ff11e547d796cc64acdf758e7cee90439494fd886a19159454aa61e473fdbafef910160405180910390a1005b005b34801561022e57600080fd5b50475b6040519081526020015b60405180910390f35b34801561025057600080fd5b5061022061025f3660046112bf565b6105a8565b34801561027057600080fd5b5061028f61027f366004611303565b630a85bd0160e11b949350505050565b6040516001600160e01b0319909116815260200161023b565b3480156102b457600080fd5b506102206102c33660046113e3565b610667565b3480156102d457600080fd5b506102206102e3366004611405565b6106d4565b3480156102f457600080fd5b50610220610303366004611405565b61077a565b34801561031457600080fd5b50610220610782565b34801561032957600080fd5b5061023160055481565b34801561033f57600080fd5b5061022061034e366004611431565b6107ab565b34801561035f57600080fd5b5061023162278d0081565b34801561037657600080fd5b5061038a610385366004611461565b6108ac565b604051901515815260200161023b565b3480156103a657600080fd5b5061023160045481565b3480156103bc57600080fd5b506102206103cb3660046114a2565b6109a0565b3480156103dc57600080fd5b5061023160025481565b3480156103f257600080fd5b50610220610a4b565b34801561040757600080fd5b506000546001600160a01b03165b6040516001600160a01b03909116815260200161023b565b34801561043957600080fd5b50610220610448366004611461565b610a5f565b34801561045957600080fd5b506102206104683660046114db565b610c0b565b34801561047957600080fd5b50610231600c81565b34801561048e57600080fd5b50600154610415906001600160a01b031681565b3480156104ae57600080fd5b5061023160035481565b3480156104c457600080fd5b5061038a6104d3366004611405565b610ca7565b3480156104e457600080fd5b506102206104f3366004611405565b610dd7565b34801561050457600080fd5b5061041573e22ecbba8fb9c0124eecb6afe0bf6a487424989f81565b34801561052c57600080fd5b5061022061053b3660046114ff565b610f16565b610220610fc6565b34801561055457600080fd5b506102206105633660046114ff565b61106d565b34801561057457600080fd5b506102206105833660046114db565b6110b0565b34801561059457600080fd5b506102206105a33660046112bf565b611129565b6001546001600160a01b03163314806105cb57506000546001600160a01b031633145b6105e75760405162461bcd60e51b81526004016101dd9061152b565b600454811061064d5760405162461bcd60e51b815260206004820152602c60248201527f416d6f756e742073686f756c64206265206c657373207468616e20756e626c6f60448201526b031b5b2b21030b6b7bab73a160a51b60648201526084016101dd565b806002600082825461065f9190611568565b909155505050565b6001546001600160a01b031633148061068a57506000546001600160a01b031633145b6106a65760405162461bcd60e51b81526004016101dd9061152b565b60045481106106c75760405162461bcd60e51b81526004016101dd90611580565b6106d0816105a8565b5050565b600154600160a01b900460ff16156106fe5760405162461bcd60e51b81526004016101dd90611288565b6040516323b872dd60e01b8152336004820152306024820152604481018290526001600160a01b038316906323b872dd906064016020604051808303816000875af1158015610751573d6000803e3d6000fd5b505050506040513d601f19601f8201168201806040525081019061077591906115ce565b505050565b6106d06111de565b61078a6111de565b6001805460ff60a01b198116600160a01b9182900460ff1615909102179055565b6001546001600160a01b03163314806107ce57506000546001600160a01b031633145b6107ea5760405162461bcd60e51b81526004016101dd9061152b565b60006005541161082f5760405162461bcd60e51b815260206004820152601060248201526f4e6f20454d492072656d61696e696e6760801b60448201526064016101dd565b6005546040516000916001600160a01b038416918381818185875af1925050503d806000811461087b576040519150601f19603f3d011682016040523d82523d6000602084013e610880565b606091505b50509050806108a15760405162461bcd60e51b81526004016101dd906115f0565b610775600554611129565b60006108b66111de565b600154600160a01b900460ff16156108e05760405162461bcd60e51b81526004016101dd90611288565b60405163a9059cbb60e01b81526001600160a01b0384811660048301526024820184905285169063a9059cbb906044016020604051808303816000875af115801561092f573d6000803e3d6000fd5b505050506040513d601f19601f8201168201806040525081019061095391906115ce565b50604080516001600160a01b0385168152602081018490527f5a6b26bafd3957bf06ea3b4915f51221953ed272573c779820e6e39df3e646cf910160405180910390a15060019392505050565b6109a86111de565b60045482106109c95760405162461bcd60e51b81526004016101dd90611580565b6000816001600160a01b03168360405160006040518083038185875af1925050503d8060008114610a16576040519150601f19603f3d011682016040523d82523d6000602084013e610a1b565b606091505b5050905080610a3c5760405162461bcd60e51b81526004016101dd906115f0565b610a4583611129565b50505050565b610a536111de565b610a5d6000611238565b565b6001546001600160a01b0316331480610a8257506000546001600160a01b031633145b610a9e5760405162461bcd60e51b81526004016101dd9061152b565b6040516370a0823160e01b81523360048201526001600160a01b038416906370a0823190602401602060405180830381865afa158015610ae2573d6000803e3d6000fd5b505050506040513d601f19601f82011682018060405250810190610b06919061161f565b8111158015610b155750600081115b610b6c5760405162461bcd60e51b815260206004820152602260248201527f416d6f756e74206e6f742056616c6964206f72206e6f7420617661696c61626c604482015261032960f51b60648201526084016101dd565b6001600160a01b038216610b925760405162461bcd60e51b81526004016101dd90611638565b6040516323b872dd60e01b81523360048201526001600160a01b038381166024830152604482018390528416906323b872dd906064016020604051808303816000875af1158015610be7573d6000803e3d6000fd5b505050506040513d601f19601f82011682018060405250810190610a4591906115ce565b3373e22ecbba8fb9c0124eecb6afe0bf6a487424989f14610c5f5760405162461bcd60e51b815260206004820152600e60248201526d139bdd08185d5d1a1bdc9a5cd95960921b60448201526064016101dd565b6001600160a01b038116610c855760405162461bcd60e51b81526004016101dd90611638565b600180546001600160a01b0319166001600160a01b0392909216919091179055565b6000610cb16111de565b600154600160a01b900460ff1615610cdb5760405162461bcd60e51b81526004016101dd90611288565b6004548210610d375760405162461bcd60e51b815260206004820152602260248201527f43616e2774207769746864726177206d6f7265207468616e20746865206c696d6044820152611a5d60f21b60648201526084016101dd565b6000836001600160a01b03168360405160006040518083038185875af1925050503d8060008114610d84576040519150601f19603f3d011682016040523d82523d6000602084013e610d89565b606091505b5050604080516001600160a01b0387168152602081018690529192507f5a6b26bafd3957bf06ea3b4915f51221953ed272573c779820e6e39df3e646cf910160405180910390a19392505050565b6001546001600160a01b0316331480610dfa57506000546001600160a01b031633145b610e165760405162461bcd60e51b81526004016101dd9061152b565b600454811115610e7d5760405162461bcd60e51b815260206004820152602c60248201527f416d6f756e742073686f756c64206265206c657373207468616e20726565646560448201526b1b58589b1948185b5bdd5b9d60a21b60648201526084016101dd565b6001600160a01b038216610ea35760405162461bcd60e51b81526004016101dd90611638565b6000826001600160a01b03168260405160006040518083038185875af1925050503d8060008114610ef0576040519150601f19603f3d011682016040523d82523d6000602084013e610ef5565b606091505b50509050806107755760405162461bcd60e51b81526004016101dd906115f0565b6001546001600160a01b0316331480610f3957506000546001600160a01b031633145b610f555760405162461bcd60e51b81526004016101dd9061152b565b6004548210610f765760405162461bcd60e51b81526004016101dd90611580565b60006064610f85846070611665565b610f8f9190611684565b9050610f9a816105a8565b6000610fa68383611684565b90508060056000828254610fba9190611568565b90915550505050505050565b600154600160a01b900460ff1615610ff05760405162461bcd60e51b81526004016101dd90611288565b600034116110335760405162461bcd60e51b815260206004820152601060248201526f056616c75652063616e277420626520360841b60448201526064016101dd565b604080513381523460208201527ff11e547d796cc64acdf758e7cee90439494fd886a19159454aa61e473fdbafef910160405180910390a1565b6110756111de565b60006064611084846070611665565b61108e9190611684565b9050600061109c8383611684565b90508060056000828254610fba91906116a6565b6110b86111de565b6001600160a01b03811661111d5760405162461bcd60e51b815260206004820152602660248201527f4f776e61626c653a206e6577206f776e657220697320746865207a65726f206160448201526564647265737360d01b60648201526084016101dd565b61112681611238565b50565b6001546001600160a01b031633148061114c57506000546001600160a01b031633145b6111685760405162461bcd60e51b81526004016101dd9061152b565b60025481106111cc5760405162461bcd60e51b815260206004820152602a60248201527f416d6f756e742073686f756c64206265206c657373207468616e20626c6f636b604482015269032b21030b6b7bab73a160b51b60648201526084016101dd565b806002600082825461065f91906116a6565b6000546001600160a01b03163314610a5d5760405162461bcd60e51b815260206004820181905260248201527f4f776e61626c653a2063616c6c6572206973206e6f7420746865206f776e657260448201526064016101dd565b600080546001600160a01b038381166001600160a01b0319831681178455604051919092169283917f8be0079c531659141344cd1fd0a4f28419497f9722a3daafe3b4186f6b6457e09190a35050565b6020808252601c908201527f436f6e74726163742069732063757272656e746c792070617573656400000000604082015260600190565b6000602082840312156112d157600080fd5b5035919050565b6001600160a01b038116811461112657600080fd5b634e487b7160e01b600052604160045260246000fd5b6000806000806080858703121561131957600080fd5b8435611324816112d8565b93506020850135611334816112d8565b925060408501359150606085013567ffffffffffffffff8082111561135857600080fd5b818701915087601f83011261136c57600080fd5b81358181111561137e5761137e6112ed565b604051601f8201601f19908116603f011681019083821181831017156113a6576113a66112ed565b816040528281528a60208487010111156113bf57600080fd5b82602086016020830137600060208483010152809550505050505092959194509250565b600080604083850312156113f657600080fd5b50508035926020909101359150565b6000806040838503121561141857600080fd5b8235611423816112d8565b946020939093013593505050565b6000806040838503121561144457600080fd5b823591506020830135611456816112d8565b809150509250929050565b60008060006060848603121561147657600080fd5b8335611481816112d8565b92506020840135611491816112d8565b929592945050506040919091013590565b6000806000606084860312156114b757600080fd5b833592506020840135915060408401356114d0816112d8565b809150509250925092565b6000602082840312156114ed57600080fd5b81356114f8816112d8565b9392505050565b60008060006060848603121561151457600080fd5b505081359360208301359350604090920135919050565b6020808252600d908201526c02737ba1020b8383937bb32b21609d1b604082015260600190565b634e487b7160e01b600052601160045260246000fd5b6000821982111561157b5761157b611552565b500190565b6020808252602e908201527f416d6f756e742073686f756c64206265206c657373207468616e20746865206260408201526d03637b1b5b2b21030b6b7bab73a160951b606082015260800190565b6000602082840312156115e057600080fd5b815180151581146114f857600080fd5b60208082526015908201527414185e5b595b9d08139bdd0810dbdb5c1b195d1959605a1b604082015260600190565b60006020828403121561163157600080fd5b5051919050565b6020808252601390820152724e6f7420612076616c6964206164647265737360681b604082015260600190565b600081600019048311821515161561167f5761167f611552565b500290565b6000826116a157634e487b7160e01b600052601260045260246000fd5b500490565b6000828210156116b8576116b8611552565b50039056fea2646970667358221220eabc8cf7cb6ca1d533fbf6421a0130559655ff17be99a125080dcaf55e3fd77164736f6c634300080a0033",
  "linkReferences": {},
  "deployedLinkReferences": {}
}