{
  "_format": "hh-sol-artifact-1",
  "contractName": "profileManager",
  "sourceName": "contracts/profileManager.sol",
  "abi": [
    {
      "inputs": [],
      "stateMutability": "payable",
      "type": "constructor"
    },
    {
      "anonymous": false,
      "inputs": [
        {
          "indexed": true,
          "internalType": "address",
          "name": "previousOwner",
          "type": "address"
        },
        {
          "indexed": true,
          "internalType": "address",
          "name": "newOwner",
          "type": "address"
        }
      ],
      "name": "OwnershipTransferred",
      "type": "event"
    },
    {
      "anonymous": false,
      "inputs": [
        {
          "indexed": false,
          "internalType": "address",
          "name": "user",
          "type": "address"
        },
        {
          "indexed": false,
          "internalType": "string",
          "name": "name",
          "type": "string"
        },
        {
          "indexed": false,
          "internalType": "address",
          "name": "wallet",
          "type": "address"
        }
      ],
      "name": "userCreated",
      "type": "event"
    },
    {
      "inputs": [
        {
          "internalType": "address",
          "name": "user",
          "type": "address"
        },
        {
          "internalType": "string",
          "name": "invoiceData",
          "type": "string"
        }
      ],
      "name": "addInvoice",
      "outputs": [],
      "stateMutability": "nonpayable",
      "type": "function"
    },
    {
      "inputs": [
        {
          "internalType": "address",
          "name": "_user",
          "type": "address"
        }
      ],
      "name": "checkUser",
      "outputs": [
        {
          "internalType": "bool",
          "name": "",
          "type": "bool"
        }
      ],
      "stateMutability": "view",
      "type": "function"
    },
    {
      "inputs": [
        {
          "internalType": "address",
          "name": "_user",
          "type": "address"
        }
      ],
      "name": "getReciever",
      "outputs": [
        {
          "internalType": "address",
          "name": "",
          "type": "address"
        }
      ],
      "stateMutability": "view",
      "type": "function"
    },
    {
      "inputs": [
        {
          "internalType": "address",
          "name": "_user",
          "type": "address"
        }
      ],
      "name": "getUser",
      "outputs": [
        {
          "components": [
            {
              "internalType": "address",
              "name": "reciever",
              "type": "address"
            },
            {
              "internalType": "contract profileWallet",
              "name": "_wallet",
              "type": "address"
            },
            {
              "internalType": "string",
              "name": "name",
              "type": "string"
            },
            {
              "internalType": "bool",
              "name": "user",
              "type": "bool"
            }
          ],
          "internalType": "struct profileManager.UserProfile",
          "name": "",
          "type": "tuple"
        }
      ],
      "stateMutability": "view",
      "type": "function"
    },
    {
      "inputs": [
        {
          "internalType": "address",
          "name": "_user",
          "type": "address"
        }
      ],
      "name": "getWalletContract",
      "outputs": [
        {
          "internalType": "address",
          "name": "_contract",
          "type": "address"
        }
      ],
      "stateMutability": "view",
      "type": "function"
    },
    {
      "inputs": [
        {
          "internalType": "address",
          "name": "",
          "type": "address"
        },
        {
          "internalType": "uint256",
          "name": "",
          "type": "uint256"
        }
      ],
      "name": "invoices",
      "outputs": [
        {
          "internalType": "string",
          "name": "",
          "type": "string"
        }
      ],
      "stateMutability": "view",
      "type": "function"
    },
    {
      "inputs": [],
      "name": "owner",
      "outputs": [
        {
          "internalType": "address",
          "name": "",
          "type": "address"
        }
      ],
      "stateMutability": "view",
      "type": "function"
    },
    {
      "inputs": [
        {
          "internalType": "address",
          "name": "reciever",
          "type": "address"
        },
        {
          "internalType": "string",
          "name": "name",
          "type": "string"
        }
      ],
      "name": "register",
      "outputs": [],
      "stateMutability": "nonpayable",
      "type": "function"
    },
    {
      "inputs": [],
      "name": "renounceOwnership",
      "outputs": [],
      "stateMutability": "nonpayable",
      "type": "function"
    },
    {
      "inputs": [
        {
          "internalType": "address",
          "name": "newReciever",
          "type": "address"
        }
      ],
      "name": "setReciever",
      "outputs": [],
      "stateMutability": "nonpayable",
      "type": "function"
    },
    {
      "inputs": [
        {
          "internalType": "address",
          "name": "_user",
          "type": "address"
        }
      ],
      "name": "suspectUser",
      "outputs": [],
      "stateMutability": "nonpayable",
      "type": "function"
    },
    {
      "inputs": [
        {
          "internalType": "address",
          "name": "newOwner",
          "type": "address"
        }
      ],
      "name": "transferOwnership",
      "outputs": [],
      "stateMutability": "nonpayable",
      "type": "function"
    },
    {
      "inputs": [
        {
          "internalType": "address",
          "name": "",
          "type": "address"
        }
      ],
      "name": "users",
      "outputs": [
        {
          "internalType": "address",
          "name": "reciever",
          "type": "address"
        },
        {
          "internalType": "contract profileWallet",
          "name": "_wallet",
          "type": "address"
        },
        {
          "internalType": "string",
          "name": "name",
          "type": "string"
        },
        {
          "internalType": "bool",
          "name": "user",
          "type": "bool"
        }
      ],
      "stateMutability": "view",
      "type": "function"
    }
  ],
  "bytecode": "0x608060405261000d33610012565b610062565b600080546001600160a01b038381166001600160a01b0319831681178455604051919092169283917f8be0079c531659141344cd1fd0a4f28419497f9722a3daafe3b4186f6b6457e09190a35050565b6125e8806100716000396000f3fe60806040523480156200001157600080fd5b5060043610620000e05760003560e01c80637313931511620000975780638da5cb5b116200006e5780638da5cb5b1462000244578063a0db86f91462000256578063a87430ba146200026d578063f2fde38b146200029657600080fd5b80637313931514620001e75780637eb03b2414620002165780638cc9ea2c146200022d57600080fd5b80630743144914620000e55780630dad62fa14620001355780631e9d48cf146200015b57806332434a2e146200019e5780636f77926b14620001b7578063715018a614620001dd575b600080fd5b62000118620000f636600462000a0c565b6001600160a01b03908116600090815260016020819052604090912001541690565b6040516001600160a01b0390911681526020015b60405180910390f35b6200014c6200014636600462000a31565b620002ad565b6040516200012c919062000aae565b6200018d6200016c36600462000a0c565b6001600160a01b031660009081526001602052604090206003015460ff1690565b60405190151581526020016200012c565b620001b5620001af36600462000ad9565b6200036f565b005b620001ce620001c836600462000a0c565b620004e4565b6040516200012c919062000ba7565b620001b5620005ee565b62000118620001f836600462000a0c565b6001600160a01b039081166000908152600160205260409020541690565b620001b56200022736600462000a0c565b62000606565b620001b56200023e36600462000ad9565b62000634565b6000546001600160a01b031662000118565b620001b56200026736600462000a0c565b62000677565b620002846200027e36600462000a0c565b62000745565b6040516200012c949392919062000bfd565b620001b5620002a736600462000a0c565b62000810565b60026020528160005260406000208181548110620002ca57600080fd5b90600052602060002001600091509150508054620002e89062000c3e565b80601f0160208091040260200160405190810160405280929190818152602001828054620003169062000c3e565b8015620003675780601f106200033b5761010080835404028352916020019162000367565b820191906000526020600020905b8154815290600101906020018083116200034957829003601f168201915b505050505081565b6001600160a01b038216620003c15760405162461bcd60e51b81526020600482015260136024820152726e6f7420612076616c6964206164647265737360681b60448201526064015b60405180910390fd5b600033604051620003d2906200093b565b6001600160a01b039091168152602001604051809103906000f080158015620003ff573d6000803e3d6000fd5b50604080516080810182526001600160a01b038087168252808416602080840191825283850188815260016060860181905233600090815281845296909620855181549086166001600160a01b03199182161782559351968101805497909516969093169590951790925592518051949550919362000485926002850192019062000949565b50606091909101516003909101805460ff19169115159190911790556040517fd74563aa5493a356b899749bef67785f69047390a5fdcbb950772eb3248b386090620004d79033908590859062000c7b565b60405180910390a1505050565b604080516080808201835260008083526020808401829052606084860181905284018290526001600160a01b038681168352600180835292869020865194850187528054821685529283015416908301526002810180549394929391928401916200054f9062000c3e565b80601f01602080910402602001604051908101604052809291908181526020018280546200057d9062000c3e565b8015620005ce5780601f10620005a257610100808354040283529160200191620005ce565b820191906000526020600020905b815481529060010190602001808311620005b057829003601f168201915b50505091835250506003919091015460ff16151560209091015292915050565b620005f86200088f565b620006046000620008eb565b565b620006106200088f565b6001600160a01b03166000908152600160205260409020600301805460ff19169055565b6001600160a01b0382166000908152600260209081526040822080546001810182559083529181902083516200067293919091019184019062000949565b505050565b3360009081526001602052604090206003015460ff16620006c85760405162461bcd60e51b815260206004820152600a6024820152692737ba1030903ab9b2b960b11b6044820152606401620003b8565b6001600160a01b038116620007165760405162461bcd60e51b81526020600482015260136024820152726e6f7420612076616c6964206164647265737360681b6044820152606401620003b8565b33600090815260016020526040902080546001600160a01b0319166001600160a01b0392909216919091179055565b60016020819052600091825260409091208054918101546002820180546001600160a01b039485169490921692916200077e9062000c3e565b80601f0160208091040260200160405190810160405280929190818152602001828054620007ac9062000c3e565b8015620007fd5780601f10620007d157610100808354040283529160200191620007fd565b820191906000526020600020905b815481529060010190602001808311620007df57829003601f168201915b5050506003909301549192505060ff1684565b6200081a6200088f565b6001600160a01b038116620008815760405162461bcd60e51b815260206004820152602660248201527f4f776e61626c653a206e6577206f776e657220697320746865207a65726f206160448201526564647265737360d01b6064820152608401620003b8565b6200088c81620008eb565b50565b6000546001600160a01b03163314620006045760405162461bcd60e51b815260206004820181905260248201527f4f776e61626c653a2063616c6c6572206973206e6f7420746865206f776e65726044820152606401620003b8565b600080546001600160a01b038381166001600160a01b0319831681178455604051919092169283917f8be0079c531659141344cd1fd0a4f28419497f9722a3daafe3b4186f6b6457e09190a35050565b6119008062000cb383390190565b828054620009579062000c3e565b90600052602060002090601f0160209004810192826200097b5760008555620009c6565b82601f106200099657805160ff1916838001178555620009c6565b82800160010185558215620009c6579182015b82811115620009c6578251825591602001919060010190620009a9565b50620009d4929150620009d8565b5090565b5b80821115620009d45760008155600101620009d9565b80356001600160a01b038116811462000a0757600080fd5b919050565b60006020828403121562000a1f57600080fd5b62000a2a82620009ef565b9392505050565b6000806040838503121562000a4557600080fd5b62000a5083620009ef565b946020939093013593505050565b6000815180845260005b8181101562000a865760208185018101518683018201520162000a68565b8181111562000a99576000602083870101525b50601f01601f19169290920160200192915050565b60208152600062000a2a602083018462000a5e565b634e487b7160e01b600052604160045260246000fd5b6000806040838503121562000aed57600080fd5b62000af883620009ef565b9150602083013567ffffffffffffffff8082111562000b1657600080fd5b818501915085601f83011262000b2b57600080fd5b81358181111562000b405762000b4062000ac3565b604051601f8201601f19908116603f0116810190838211818310171562000b6b5762000b6b62000ac3565b8160405282815288602084870101111562000b8557600080fd5b8260208601602083013760006020848301015280955050505050509250929050565b60208152600060018060a01b038084511660208401528060208501511660408401525060408301516080606084015262000be560a084018262000a5e565b90506060840151151560808401528091505092915050565b6001600160a01b0385811682528416602082015260806040820181905260009062000c2b9083018562000a5e565b9050821515606083015295945050505050565b600181811c9082168062000c5357607f821691505b6020821081141562000c7557634e487b7160e01b600052602260045260246000fd5b50919050565b600060018060a01b0380861683526060602084015262000c9f606084018662000a5e565b915080841660408401525094935050505056fe60806040526000600255476003556002546003546200001f9190620001a5565b60045560006005553480156200003457600080fd5b5060405162001900380380620019008339810160408190526200005791620001cb565b620000623362000074565b6200006d81620000c4565b50620001fd565b600080546001600160a01b038381166001600160a01b0319831681178455604051919092169283917f8be0079c531659141344cd1fd0a4f28419497f9722a3daafe3b4186f6b6457e09190a35050565b620000ce62000147565b6001600160a01b038116620001395760405162461bcd60e51b815260206004820152602660248201527f4f776e61626c653a206e6577206f776e657220697320746865207a65726f206160448201526564647265737360d01b60648201526084015b60405180910390fd5b620001448162000074565b50565b6000546001600160a01b03163314620001a35760405162461bcd60e51b815260206004820181905260248201527f4f776e61626c653a2063616c6c6572206973206e6f7420746865206f776e6572604482015260640162000130565b565b600082821015620001c657634e487b7160e01b600052601160045260246000fd5b500390565b600060208284031215620001de57600080fd5b81516001600160a01b0381168114620001f657600080fd5b9392505050565b6116f3806200020d6000396000f3fe6080604052600436106101ae5760003560e01c8063715018a6116100eb578063c33af2501161008f578063d0e30db011610061578063d0e30db014610540578063f0da26cb14610548578063f2fde38b14610568578063f430bbff1461058857005b8063c33af250146104b8578063c4076876146104d8578063ca4b208b146104f8578063ca966f4b1461052057005b80639ab06fcb116100c85780639ab06fcb1461044d578063a0af39fc1461046d578063a6d23e1014610482578063ad7a672f146104a257005b8063715018a6146103e65780638da5cb5b146103fb578063927720471461042d57005b80634b2a7b7d116101525780635e35359e1161012f5780635e35359e1461036a5780636457d0b21461039a57806367da54ab146103b05780636b4943a7146103d057005b80634b2a7b7d1461031d5780634bef84e71461033357806355eb3e341461035357005b806317a7bd671161018b57806317a7bd67146102a8578063338b5dea146102c8578063369a28be146102e8578063439766ce1461030857005b806312065fe014610222578063141e1a1b14610244578063150b7a021461026457005b3661022057600154600160a01b900460ff16156101e65760405162461bcd60e51b81526004016101dd90611288565b60405180910390fd5b604080513381523460208201527ff11e547d796cc64acdf758e7cee90439494fd886a19159454aa61e473fdbafef910160405180910390a1005b005b34801561022e57600080fd5b50475b6040519081526020015b60405180910390f35b34801561025057600080fd5b5061022061025f3660046112bf565b6105a8565b34801561027057600080fd5b5061028f61027f366004611303565b630a85bd0160e11b949350505050565b6040516001600160e01b0319909116815260200161023b565b3480156102b457600080fd5b506102206102c33660046113e3565b610667565b3480156102d457600080fd5b506102206102e3366004611405565b6106d4565b3480156102f457600080fd5b50610220610303366004611405565b61077a565b34801561031457600080fd5b50610220610782565b34801561032957600080fd5b5061023160055481565b34801561033f57600080fd5b5061022061034e366004611431565b6107ab565b34801561035f57600080fd5b5061023162278d0081565b34801561037657600080fd5b5061038a610385366004611461565b6108ac565b604051901515815260200161023b565b3480156103a657600080fd5b5061023160045481565b3480156103bc57600080fd5b506102206103cb3660046114a2565b6109a0565b3480156103dc57600080fd5b5061023160025481565b3480156103f257600080fd5b50610220610a4b565b34801561040757600080fd5b506000546001600160a01b03165b6040516001600160a01b03909116815260200161023b565b34801561043957600080fd5b50610220610448366004611461565b610a5f565b34801561045957600080fd5b506102206104683660046114db565b610c0b565b34801561047957600080fd5b50610231600c81565b34801561048e57600080fd5b50600154610415906001600160a01b031681565b3480156104ae57600080fd5b5061023160035481565b3480156104c457600080fd5b5061038a6104d3366004611405565b610ca7565b3480156104e457600080fd5b506102206104f3366004611405565b610dd7565b34801561050457600080fd5b5061041573e22ecbba8fb9c0124eecb6afe0bf6a487424989f81565b34801561052c57600080fd5b5061022061053b3660046114ff565b610f16565b610220610fc6565b34801561055457600080fd5b506102206105633660046114ff565b61106d565b34801561057457600080fd5b506102206105833660046114db565b6110b0565b34801561059457600080fd5b506102206105a33660046112bf565b611129565b6001546001600160a01b03163314806105cb57506000546001600160a01b031633145b6105e75760405162461bcd60e51b81526004016101dd9061152b565b600454811061064d5760405162461bcd60e51b815260206004820152602c60248201527f416d6f756e742073686f756c64206265206c657373207468616e20756e626c6f60448201526b031b5b2b21030b6b7bab73a160a51b60648201526084016101dd565b806002600082825461065f9190611568565b909155505050565b6001546001600160a01b031633148061068a57506000546001600160a01b031633145b6106a65760405162461bcd60e51b81526004016101dd9061152b565b60045481106106c75760405162461bcd60e51b81526004016101dd90611580565b6106d0816105a8565b5050565b600154600160a01b900460ff16156106fe5760405162461bcd60e51b81526004016101dd90611288565b6040516323b872dd60e01b8152336004820152306024820152604481018290526001600160a01b038316906323b872dd906064016020604051808303816000875af1158015610751573d6000803e3d6000fd5b505050506040513d601f19601f8201168201806040525081019061077591906115ce565b505050565b6106d06111de565b61078a6111de565b6001805460ff60a01b198116600160a01b9182900460ff1615909102179055565b6001546001600160a01b03163314806107ce57506000546001600160a01b031633145b6107ea5760405162461bcd60e51b81526004016101dd9061152b565b60006005541161082f5760405162461bcd60e51b815260206004820152601060248201526f4e6f20454d492072656d61696e696e6760801b60448201526064016101dd565b6005546040516000916001600160a01b038416918381818185875af1925050503d806000811461087b576040519150601f19603f3d011682016040523d82523d6000602084013e610880565b606091505b50509050806108a15760405162461bcd60e51b81526004016101dd906115f0565b610775600554611129565b60006108b66111de565b600154600160a01b900460ff16156108e05760405162461bcd60e51b81526004016101dd90611288565b60405163a9059cbb60e01b81526001600160a01b0384811660048301526024820184905285169063a9059cbb906044016020604051808303816000875af115801561092f573d6000803e3d6000fd5b505050506040513d601f19601f8201168201806040525081019061095391906115ce565b50604080516001600160a01b0385168152602081018490527f5a6b26bafd3957bf06ea3b4915f51221953ed272573c779820e6e39df3e646cf910160405180910390a15060019392505050565b6109a86111de565b60045482106109c95760405162461bcd60e51b81526004016101dd90611580565b6000816001600160a01b03168360405160006040518083038185875af1925050503d8060008114610a16576040519150601f19603f3d011682016040523d82523d6000602084013e610a1b565b606091505b5050905080610a3c5760405162461bcd60e51b81526004016101dd906115f0565b610a4583611129565b50505050565b610a536111de565b610a5d6000611238565b565b6001546001600160a01b0316331480610a8257506000546001600160a01b031633145b610a9e5760405162461bcd60e51b81526004016101dd9061152b565b6040516370a0823160e01b81523360048201526001600160a01b038416906370a0823190602401602060405180830381865afa158015610ae2573d6000803e3d6000fd5b505050506040513d601f19601f82011682018060405250810190610b06919061161f565b8111158015610b155750600081115b610b6c5760405162461bcd60e51b815260206004820152602260248201527f416d6f756e74206e6f742056616c6964206f72206e6f7420617661696c61626c604482015261032960f51b60648201526084016101dd565b6001600160a01b038216610b925760405162461bcd60e51b81526004016101dd90611638565b6040516323b872dd60e01b81523360048201526001600160a01b038381166024830152604482018390528416906323b872dd906064016020604051808303816000875af1158015610be7573d6000803e3d6000fd5b505050506040513d601f19601f82011682018060405250810190610a4591906115ce565b3373e22ecbba8fb9c0124eecb6afe0bf6a487424989f14610c5f5760405162461bcd60e51b815260206004820152600e60248201526d139bdd08185d5d1a1bdc9a5cd95960921b60448201526064016101dd565b6001600160a01b038116610c855760405162461bcd60e51b81526004016101dd90611638565b600180546001600160a01b0319166001600160a01b0392909216919091179055565b6000610cb16111de565b600154600160a01b900460ff1615610cdb5760405162461bcd60e51b81526004016101dd90611288565b6004548210610d375760405162461bcd60e51b815260206004820152602260248201527f43616e2774207769746864726177206d6f7265207468616e20746865206c696d6044820152611a5d60f21b60648201526084016101dd565b6000836001600160a01b03168360405160006040518083038185875af1925050503d8060008114610d84576040519150601f19603f3d011682016040523d82523d6000602084013e610d89565b606091505b5050604080516001600160a01b0387168152602081018690529192507f5a6b26bafd3957bf06ea3b4915f51221953ed272573c779820e6e39df3e646cf910160405180910390a19392505050565b6001546001600160a01b0316331480610dfa57506000546001600160a01b031633145b610e165760405162461bcd60e51b81526004016101dd9061152b565b600454811115610e7d5760405162461bcd60e51b815260206004820152602c60248201527f416d6f756e742073686f756c64206265206c657373207468616e20726565646560448201526b1b58589b1948185b5bdd5b9d60a21b60648201526084016101dd565b6001600160a01b038216610ea35760405162461bcd60e51b81526004016101dd90611638565b6000826001600160a01b03168260405160006040518083038185875af1925050503d8060008114610ef0576040519150601f19603f3d011682016040523d82523d6000602084013e610ef5565b606091505b50509050806107755760405162461bcd60e51b81526004016101dd906115f0565b6001546001600160a01b0316331480610f3957506000546001600160a01b031633145b610f555760405162461bcd60e51b81526004016101dd9061152b565b6004548210610f765760405162461bcd60e51b81526004016101dd90611580565b60006064610f85846070611665565b610f8f9190611684565b9050610f9a816105a8565b6000610fa68383611684565b90508060056000828254610fba9190611568565b90915550505050505050565b600154600160a01b900460ff1615610ff05760405162461bcd60e51b81526004016101dd90611288565b600034116110335760405162461bcd60e51b815260206004820152601060248201526f056616c75652063616e277420626520360841b60448201526064016101dd565b604080513381523460208201527ff11e547d796cc64acdf758e7cee90439494fd886a19159454aa61e473fdbafef910160405180910390a1565b6110756111de565b60006064611084846070611665565b61108e9190611684565b9050600061109c8383611684565b90508060056000828254610fba91906116a6565b6110b86111de565b6001600160a01b03811661111d5760405162461bcd60e51b815260206004820152602660248201527f4f776e61626c653a206e6577206f776e657220697320746865207a65726f206160448201526564647265737360d01b60648201526084016101dd565b61112681611238565b50565b6001546001600160a01b031633148061114c57506000546001600160a01b031633145b6111685760405162461bcd60e51b81526004016101dd9061152b565b60025481106111cc5760405162461bcd60e51b815260206004820152602a60248201527f416d6f756e742073686f756c64206265206c657373207468616e20626c6f636b604482015269032b21030b6b7bab73a160b51b60648201526084016101dd565b806002600082825461065f91906116a6565b6000546001600160a01b03163314610a5d5760405162461bcd60e51b815260206004820181905260248201527f4f776e61626c653a2063616c6c6572206973206e6f7420746865206f776e657260448201526064016101dd565b600080546001600160a01b038381166001600160a01b0319831681178455604051919092169283917f8be0079c531659141344cd1fd0a4f28419497f9722a3daafe3b4186f6b6457e09190a35050565b6020808252601c908201527f436f6e74726163742069732063757272656e746c792070617573656400000000604082015260600190565b6000602082840312156112d157600080fd5b5035919050565b6001600160a01b038116811461112657600080fd5b634e487b7160e01b600052604160045260246000fd5b6000806000806080858703121561131957600080fd5b8435611324816112d8565b93506020850135611334816112d8565b925060408501359150606085013567ffffffffffffffff8082111561135857600080fd5b818701915087601f83011261136c57600080fd5b81358181111561137e5761137e6112ed565b604051601f8201601f19908116603f011681019083821181831017156113a6576113a66112ed565b816040528281528a60208487010111156113bf57600080fd5b82602086016020830137600060208483010152809550505050505092959194509250565b600080604083850312156113f657600080fd5b50508035926020909101359150565b6000806040838503121561141857600080fd5b8235611423816112d8565b946020939093013593505050565b6000806040838503121561144457600080fd5b823591506020830135611456816112d8565b809150509250929050565b60008060006060848603121561147657600080fd5b8335611481816112d8565b92506020840135611491816112d8565b929592945050506040919091013590565b6000806000606084860312156114b757600080fd5b833592506020840135915060408401356114d0816112d8565b809150509250925092565b6000602082840312156114ed57600080fd5b81356114f8816112d8565b9392505050565b60008060006060848603121561151457600080fd5b505081359360208301359350604090920135919050565b6020808252600d908201526c02737ba1020b8383937bb32b21609d1b604082015260600190565b634e487b7160e01b600052601160045260246000fd5b6000821982111561157b5761157b611552565b500190565b6020808252602e908201527f416d6f756e742073686f756c64206265206c657373207468616e20746865206260408201526d03637b1b5b2b21030b6b7bab73a160951b606082015260800190565b6000602082840312156115e057600080fd5b815180151581146114f857600080fd5b60208082526015908201527414185e5b595b9d08139bdd0810dbdb5c1b195d1959605a1b604082015260600190565b60006020828403121561163157600080fd5b5051919050565b6020808252601390820152724e6f7420612076616c6964206164647265737360681b604082015260600190565b600081600019048311821515161561167f5761167f611552565b500290565b6000826116a157634e487b7160e01b600052601260045260246000fd5b500490565b6000828210156116b8576116b8611552565b50039056fea2646970667358221220eabc8cf7cb6ca1d533fbf6421a0130559655ff17be99a125080dcaf55e3fd77164736f6c634300080a0033a2646970667358221220f1beb21d15502e716698dc21597794f77676d2deb722ba4821b0908bf6340dbd64736f6c634300080a0033",
  "linkReferences": {},
  "deployedLinkReferences": {}
}