{
  "_format": "hh-sol-artifact-1",
  "contractName": "Funds",
  "sourceName": "contracts/Funds.sol",
  "abi": [
    {
      "anonymous": false,
      "inputs": [
        {
          "indexed": true,
          "internalType": "address",
          "name": "previousOwner",
          "type": "address"
        },
        {
          "indexed": true,
          "internalType": "address",
          "name": "newOwner",
          "type": "address"
        }
      ],
      "name": "OwnershipTransferred",
      "type": "event"
    },
    {
      "anonymous": false,
      "inputs": [
        {
          "indexed": true,
          "internalType": "address",
          "name": "sender",
          "type": "address"
        },
        {
          "indexed": false,
          "internalType": "uint256",
          "name": "amount",
          "type": "uint256"
        }
      ],
      "name": "recieved",
      "type": "event"
    },
    {
      "anonymous": false,
      "inputs": [
        {
          "indexed": false,
          "internalType": "address",
          "name": "user",
          "type": "address"
        },
        {
          "indexed": false,
          "internalType": "uint256",
          "name": "amount",
          "type": "uint256"
        }
      ],
      "name": "withdrawn",
      "type": "event"
    },
    {
      "stateMutability": "payable",
      "type": "fallback"
    },
    {
      "inputs": [
        {
          "internalType": "address",
          "name": "_manager",
          "type": "address"
        }
      ],
      "name": "changeManager",
      "outputs": [],
      "stateMutability": "nonpayable",
      "type": "function"
    },
    {
      "inputs": [
        {
          "internalType": "address",
          "name": "user",
          "type": "address"
        }
      ],
      "name": "getWithdrawls",
      "outputs": [
        {
          "internalType": "uint256",
          "name": "_balance",
          "type": "uint256"
        }
      ],
      "stateMutability": "view",
      "type": "function"
    },
    {
      "inputs": [],
      "name": "manager",
      "outputs": [
        {
          "internalType": "address",
          "name": "",
          "type": "address"
        }
      ],
      "stateMutability": "view",
      "type": "function"
    },
    {
      "inputs": [],
      "name": "owner",
      "outputs": [
        {
          "internalType": "address",
          "name": "",
          "type": "address"
        }
      ],
      "stateMutability": "view",
      "type": "function"
    },
    {
      "inputs": [],
      "name": "pauseWithdrawls",
      "outputs": [],
      "stateMutability": "nonpayable",
      "type": "function"
    },
    {
      "inputs": [],
      "name": "renounceOwnership",
      "outputs": [],
      "stateMutability": "nonpayable",
      "type": "function"
    },
    {
      "inputs": [
        {
          "internalType": "address",
          "name": "newOwner",
          "type": "address"
        }
      ],
      "name": "transferOwnership",
      "outputs": [],
      "stateMutability": "nonpayable",
      "type": "function"
    },
    {
      "inputs": [
        {
          "internalType": "address",
          "name": "_user",
          "type": "address"
        },
        {
          "internalType": "address",
          "name": "payee",
          "type": "address"
        },
        {
          "internalType": "uint256",
          "name": "amount",
          "type": "uint256"
        }
      ],
      "name": "withdrawforUser",
      "outputs": [
        {
          "internalType": "bool",
          "name": "_success",
          "type": "bool"
        }
      ],
      "stateMutability": "nonpayable",
      "type": "function"
    },
    {
      "inputs": [
        {
          "internalType": "address",
          "name": "",
          "type": "address"
        }
      ],
      "name": "withdrawls",
      "outputs": [
        {
          "internalType": "uint256",
          "name": "",
          "type": "uint256"
        }
      ],
      "stateMutability": "view",
      "type": "function"
    },
    {
      "stateMutability": "payable",
      "type": "receive"
    }
  ],
  "bytecode": "0x608060405234801561001057600080fd5b5061001a3361001f565b61006f565b600080546001600160a01b038381166001600160a01b0319831681178455604051919092169283917f8be0079c531659141344cd1fd0a4f28419497f9722a3daafe3b4186f6b6457e09190a35050565b6106938061007e6000396000f3fe6080604052600436106100835760003560e01c80638da5cb5b116100565780638da5cb5b1461012e578063a3fbbaae1461014c578063d0beaf451461016c578063d2262d77146101a2578063f2fde38b146101d257005b806299f9371461008c5780633d05ac9f146100a1578063481c6a75146100e1578063715018a61461011957005b3661008a57005b005b34801561009857600080fd5b5061008a6101f2565b3480156100ad57600080fd5b506100ce6100bc3660046105d9565b60026020526000908152604090205481565b6040519081526020015b60405180910390f35b3480156100ed57600080fd5b50600154610101906001600160a01b031681565b6040516001600160a01b0390911681526020016100d8565b34801561012557600080fd5b5061008a61021b565b34801561013a57600080fd5b506000546001600160a01b0316610101565b34801561015857600080fd5b5061008a6101673660046105d9565b61022f565b34801561017857600080fd5b506100ce6101873660046105d9565b6001600160a01b031660009081526002602052604090205490565b3480156101ae57600080fd5b506101c26101bd3660046105fb565b6102aa565b60405190151581526020016100d8565b3480156101de57600080fd5b5061008a6101ed3660046105d9565b61049a565b6101fa610513565b6000805460ff60a01b198116600160a01b9182900460ff1615909102179055565b610223610513565b61022d600061056d565b565b610237610513565b6001600160a01b0381166102885760405162461bcd60e51b81526020600482015260136024820152724e6f7420612056616c6964206164647265737360681b60448201526064015b60405180910390fd5b600180546001600160a01b0319166001600160a01b0392909216919091179055565b60008054600160a01b900460ff16156103055760405162461bcd60e51b815260206004820152601c60248201527f436f6e74726163742069732063757272656e746c792070617573656400000000604482015260640161027f565b6001546001600160a01b031633146103515760405162461bcd60e51b815260206004820152600f60248201526e3737ba103a34329026b0b730b3b2b960891b604482015260640161027f565b816103935760405162461bcd60e51b8152602060048201526012602482015271139bdd0818481d985b1a5908185b5bdd5b9d60721b604482015260640161027f565b6001600160a01b038416600090815260026020526040812080548492906103bb908490610637565b90915550506040516000906001600160a01b0385169084908381818185875af1925050503d806000811461040b576040519150601f19603f3d011682016040523d82523d6000602084013e610410565b606091505b50509050806104595760405162461bcd60e51b815260206004820152601560248201527414185e5b595b9d081b9bdd0818dbdb5c1b195d1959605a1b604482015260640161027f565b60408051338152602081018590527f6fb24f3ad0678f9d138e80b17293be051d87911eb34e9e60f0d1b9c3805e885a910160405180910390a1509392505050565b6104a2610513565b6001600160a01b0381166105075760405162461bcd60e51b815260206004820152602660248201527f4f776e61626c653a206e6577206f776e657220697320746865207a65726f206160448201526564647265737360d01b606482015260840161027f565b6105108161056d565b50565b6000546001600160a01b0316331461022d5760405162461bcd60e51b815260206004820181905260248201527f4f776e61626c653a2063616c6c6572206973206e6f7420746865206f776e6572604482015260640161027f565b600080546001600160a01b038381166001600160a01b0319831681178455604051919092169283917f8be0079c531659141344cd1fd0a4f28419497f9722a3daafe3b4186f6b6457e09190a35050565b80356001600160a01b03811681146105d457600080fd5b919050565b6000602082840312156105eb57600080fd5b6105f4826105bd565b9392505050565b60008060006060848603121561061057600080fd5b610619846105bd565b9250610627602085016105bd565b9150604084013590509250925092565b6000821982111561065857634e487b7160e01b600052601160045260246000fd5b50019056fea2646970667358221220c8a54f871442df864de28b6c2f414943b480760c727b44f9db5a1f737a599e1464736f6c634300080a0033",
  "linkReferences": {},
  "deployedLinkReferences": {}
}